{"contracts/EncryptedReceiptRegistry.sol":{"EncryptedReceiptRegistry":{"abi":[{"anonymous":false,"inputs":[{"indexed":true,"internalType":"bytes32","name":"receiptId","type":"bytes32"},{"indexed":false,"internalType":"bytes32","name":"attestationHash","type":"bytes32"},{"indexed":true,"internalType":"address","name":"attestor","type":"address"},{"indexed":false,"internalType":"uint256","name":"ts","type":"uint256"}],"name":"ReceiptAttested","type":"event"},{"anonymous":false,"inputs":[{"indexed":true,"internalType":"bytes32","name":"receiptId","type":"bytes32"},{"indexed":false,"internalType":"string","name":"ipfsCID","type":"string"},{"indexed":false,"internalType":"bytes32","name":"merkleRoot","type":"bytes32"},{"indexed":true,"internalType":"address","name":"uploader","type":"address"},{"indexed":false,"internalType":"uint256","name":"ts","type":"uint256"}],"name":"ReceiptRegistered","type":"event"},{"inputs":[{"internalType":"string","name":"ipfsCID","type":"string"},{"internalType":"address","name":"uploader","type":"address"}],"name":"computeReceiptId","outputs":[{"internalType":"bytes32","name":"","type":"bytes32"}],"stateMutability":"pure","type":"function"},{"inputs":[{"internalType":"bytes32","name":"","type":"bytes32"}],"name":"receipts","outputs":[{"internalType":"bytes32","name":"id","type":"bytes32"},{"internalType":"string","name":"ipfsCID","type":"string"},{"internalType":"bytes32","name":"merkleRoot","type":"bytes32"},{"internalType":"bytes32","name":"attestationHash","type":"bytes32"},{"internalType":"uint256","name":"registeredAt","type":"uint256"},{"internalType":"uint256","name":"attestedAt","type":"uint256"},{"internalType":"address","name":"uploader","type":"address"}],"stateMutability":"view","type":"function"},{"inputs":[{"internalType":"bytes32","name":"receiptId","type":"bytes32"},{"internalType":"string","name":"ipfsCID","type":"string"},{"internalType":"bytes32","name":"merkleRoot","type":"bytes32"}],"name":"registerEncryptedReceipt","outputs":[],"stateMutability":"nonpayable","type":"function"},{"inputs":[{"internalType":"bytes32","name":"receiptId","type":"bytes32"},{"internalType":"bytes32","name":"attestationHash","type":"bytes32"}],"name":"updateAttestation","outputs":[],"stateMutability":"nonpayable","type":"function"}],"evm":{"bytecode":{"linkReferences":{},"object":"608060405234801561001057600080fd5b50611676806100206000396000f3fe608060405234801561001057600080fd5b506004361061004c5760003560e01c806301ca76df146100515780635221a21e1461006d578063c03d83f01461009d578063ef6cf04d146100b9575b600080fd5b61006b600480360381019061006691906108f6565b6100ef565b005b610087600480360381019061008291906109c8565b61032b565b6040516100949190610a37565b60405180910390f35b6100b760048036038101906100b29190610a52565b610369565b005b6100d360048036038101906100ce9190610a92565b61048a565b6040516100e69796959493929190610b77565b60405180910390f35b6000801b6000808681526020019081526020016000206000015414610149576040517f08c379a000000000000000000000000000000000000000000000000000000000815260040161014090610c39565b60405180910390fd5b600061015684843361032b565b905084811461019a576040517f08c379a000000000000000000000000000000000000000000000000000000000815260040161019190610ca5565b60405180910390fd5b6040518060e0016040528086815260200185858080601f016020809104026020016040519081016040528093929190818152602001838380828437600081840152601f19601f8201169050808301925050505050505081526020018381526020016000801b8152602001428152602001600081526020013373ffffffffffffffffffffffffffffffffffffffff1681525060008087815260200190815260200160002060008201518160000155602082015181600101908161025c9190610f00565b5060408201518160020155606082015181600301556080820151816004015560a0820151816005015560c08201518160060160006101000a81548173ffffffffffffffffffffffffffffffffffffffff021916908373ffffffffffffffffffffffffffffffffffffffff1602179055509050503373ffffffffffffffffffffffffffffffffffffffff16857f801fbfe7a2075d128bf41f39b1cdb92f6e5d387d5d502a70a4b8852efb22c45c8686864260405161031c949392919061100e565b60405180910390a35050505050565b6000838361033884610574565b60405160200161034a939291906110fb565b6040516020818303038152906040528051906020012090509392505050565b6000801b60008084815260200190815260200160002060000154036103c3576040517f08c379a00000000000000000000000000000000000000000000000000000000081526004016103ba90611178565b60405180910390fd5b600080600084815260200190815260200160002090506000801b816003015414610422576040517f08c379a0000000000000000000000000000000000000000000000000000000008152600401610419906111e4565b60405180910390fd5b8181600301819055504281600501819055503373ffffffffffffffffffffffffffffffffffffffff16837f8065d50c7119db75be7a97902337147f1e42c1af2425cb94398bb315e6495701844260405161047d929190611204565b60405180910390a3505050565b60006020528060005260406000206000915090508060000154908060010180546104b390610d23565b80601f01602080910402602001604051908101604052809291908181526020018280546104df90610d23565b801561052c5780601f106105015761010080835404028352916020019161052c565b820191906000526020600020905b81548152906001019060200180831161050f57829003601f168201915b5050505050908060020154908060030154908060040154908060050154908060060160009054906101000a900473ffffffffffffffffffffffffffffffffffffffff16905087565b60606000602a67ffffffffffffffff81111561059357610592610cc5565b5b6040519080825280601f01601f1916602001820160405280156105c55781602001600182028036833780820191505090505b5090507f3000000000000000000000000000000000000000000000000000000000000000816000815181106105fd576105fc61122d565b5b60200101907effffffffffffffffffffffffffffffffffffffffffffffffffffffffffffff1916908160001a9053507f7800000000000000000000000000000000000000000000000000000000000000816001815181106106615761066061122d565b5b60200101907effffffffffffffffffffffffffffffffffffffffffffffffffffffffffffff1916908160001a90535060005b60148110156108015760008160136106ab919061128b565b60086106b791906112bf565b60026106c39190611434565b8573ffffffffffffffffffffffffffffffffffffffff166106e491906114ae565b60f81b9050600060108260f81c6106fb91906114ec565b60f81b905060008160f81c6010610712919061151d565b8360f81c610720919061155a565b60f81b905061072e8261080b565b85600286600261073e91906112bf565b610748919061158f565b815181106107595761075861122d565b5b60200101907effffffffffffffffffffffffffffffffffffffffffffffffffffffffffffff1916908160001a9053506107918161080b565b8560038660026107a191906112bf565b6107ab919061158f565b815181106107bc576107bb61122d565b5b60200101907effffffffffffffffffffffffffffffffffffffffffffffffffffffffffffff1916908160001a90535050505080806107f9906115c3565b915050610693565b5080915050919050565b6000600a8260f81c60ff1610156108365760308260f81c61082c919061160b565b60f81b905061084c565b60578260f81c610846919061160b565b60f81b90505b919050565b600080fd5b600080fd5b6000819050919050565b61086e8161085b565b811461087957600080fd5b50565b60008135905061088b81610865565b92915050565b600080fd5b600080fd5b600080fd5b60008083601f8401126108b6576108b5610891565b5b8235905067ffffffffffffffff8111156108d3576108d2610896565b5b6020830191508360018202830111156108ef576108ee61089b565b5b9250929050565b600080600080606085870312156109105761090f610851565b5b600061091e8782880161087c565b945050602085013567ffffffffffffffff81111561093f5761093e610856565b5b61094b878288016108a0565b9350935050604061095e8782880161087c565b91505092959194509250565b600073ffffffffffffffffffffffffffffffffffffffff82169050919050565b60006109958261096a565b9050919050565b6109a58161098a565b81146109b057600080fd5b50565b6000813590506109c28161099c565b92915050565b6000806000604084860312156109e1576109e0610851565b5b600084013567ffffffffffffffff8111156109ff576109fe610856565b5b610a0b868287016108a0565b93509350506020610a1e868287016109b3565b9150509250925092565b610a318161085b565b82525050565b6000602082019050610a4c6000830184610a28565b92915050565b60008060408385031215610a6957610a68610851565b5b6000610a778582860161087c565b9250506020610a888582860161087c565b9150509250929050565b600060208284031215610aa857610aa7610851565b5b6000610ab68482850161087c565b91505092915050565b600081519050919050565b600082825260208201905092915050565b60005b83811015610af9578082015181840152602081019050610ade565b60008484015250505050565b6000601f19601f8301169050919050565b6000610b2182610abf565b610b2b8185610aca565b9350610b3b818560208601610adb565b610b4481610b05565b840191505092915050565b6000819050919050565b610b6281610b4f565b82525050565b610b718161098a565b82525050565b600060e082019050610b8c600083018a610a28565b8181036020830152610b9e8189610b16565b9050610bad6040830188610a28565b610bba6060830187610a28565b610bc76080830186610b59565b610bd460a0830185610b59565b610be160c0830184610b68565b98975050505050505050565b7f616c726561647920726567697374657265640000000000000000000000000000600082015250565b6000610c23601283610aca565b9150610c2e82610bed565b602082019050919050565b60006020820190508181036000830152610c5281610c16565b9050919050565b7f726563656970744964206d69736d617463680000000000000000000000000000600082015250565b6000610c8f601283610aca565b9150610c9a82610c59565b602082019050919050565b60006020820190508181036000830152610cbe81610c82565b9050919050565b7f4e487b7100000000000000000000000000000000000000000000000000000000600052604160045260246000fd5b7f4e487b7100000000000000000000000000000000000000000000000000000000600052602260045260246000fd5b60006002820490506001821680610d3b57607f821691505b602082108103610d4e57610d4d610cf4565b5b50919050565b60008190508160005260206000209050919050565b60006020601f8301049050919050565b600082821b905092915050565b600060088302610db67fffffffffffffffffffffffffffffffffffffffffffffffffffffffffffffffff82610d79565b610dc08683610d79565b95508019841693508086168417925050509392505050565b6000819050919050565b6000610dfd610df8610df384610b4f565b610dd8565b610b4f565b9050919050565b6000819050919050565b610e1783610de2565b610e2b610e2382610e04565b848454610d86565b825550505050565b600090565b610e40610e33565b610e4b818484610e0e565b505050565b5b81811015610e6f57610e64600082610e38565b600181019050610e51565b5050565b601f821115610eb457610e8581610d54565b610e8e84610d69565b81016020851015610e9d578190505b610eb1610ea985610d69565b830182610e50565b50505b505050565b600082821c905092915050565b6000610ed760001984600802610eb9565b1980831691505092915050565b6000610ef08383610ec6565b9150826002028217905092915050565b610f0982610abf565b67ffffffffffffffff811115610f2257610f21610cc5565b5b610f2c8254610d23565b610f37828285610e73565b600060209050601f831160018114610f6a5760008415610f58578287015190505b610f628582610ee4565b865550610fca565b601f198416610f7886610d54565b60005b82811015610fa057848901518255600182019150602085019450602081019050610f7b565b86831015610fbd5784890151610fb9601f891682610ec6565b8355505b6001600288020188555050505b505050505050565b82818337600083830152505050565b6000610fed8385610aca565b9350610ffa838584610fd2565b61100383610b05565b840190509392505050565b60006060820190508181036000830152611029818688610fe1565b90506110386020830185610a28565b6110456040830184610b59565b95945050505050565b600081905092915050565b6000611065838561104e565b9350611072838584610fd2565b82840190509392505050565b7f7c00000000000000000000000000000000000000000000000000000000000000600082015250565b60006110b460018361104e565b91506110bf8261107e565b600182019050919050565b60006110d582610abf565b6110df818561104e565b93506110ef818560208601610adb565b80840191505092915050565b6000611108828587611059565b9150611113826110a7565b915061111f82846110ca565b9150819050949350505050565b7f6e6f742072656769737465726564000000000000000000000000000000000000600082015250565b6000611162600e83610aca565b915061116d8261112c565b602082019050919050565b6000602082019050818103600083015261119181611155565b9050919050565b7f616c726561647920617474657374656400000000000000000000000000000000600082015250565b60006111ce601083610aca565b91506111d982611198565b602082019050919050565b600060208201905081810360008301526111fd816111c1565b9050919050565b60006040820190506112196000830185610a28565b6112266020830184610b59565b9392505050565b7f4e487b7100000000000000000000000000000000000000000000000000000000600052603260045260246000fd5b7f4e487b7100000000000000000000000000000000000000000000000000000000600052601160045260246000fd5b600061129682610b4f565b91506112a183610b4f565b92508282039050818111156112b9576112b861125c565b5b92915050565b60006112ca82610b4f565b91506112d583610b4f565b92508282026112e381610b4f565b915082820484148315176112fa576112f961125c565b5b5092915050565b60008160011c9050919050565b6000808291508390505b6001851115611358578086048111156113345761133361125c565b5b60018516156113435780820291505b808102905061135185611301565b9450611318565b94509492505050565b600082611371576001905061142d565b8161137f576000905061142d565b8160018114611395576002811461139f576113ce565b600191505061142d565b60ff8411156113b1576113b061125c565b5b8360020a9150848211156113c8576113c761125c565b5b5061142d565b5060208310610133831016604e8410600b84101617156114035782820a9050838111156113fe576113fd61125c565b5b61142d565b611410848484600161130e565b925090508184048111156114275761142661125c565b5b81810290505b9392505050565b600061143f82610b4f565b915061144a83610b4f565b92506114777fffffffffffffffffffffffffffffffffffffffffffffffffffffffffffffffff8484611361565b905092915050565b7f4e487b7100000000000000000000000000000000000000000000000000000000600052601260045260246000fd5b60006114b982610b4f565b91506114c483610b4f565b9250826114d4576114d361147f565b5b828204905092915050565b600060ff82169050919050565b60006114f7826114df565b9150611502836114df565b9250826115125761151161147f565b5b828204905092915050565b6000611528826114df565b9150611533836114df565b9250828202611541816114df565b91508082146115535761155261125c565b5b5092915050565b6000611565826114df565b9150611570836114df565b9250828203905060ff8111156115895761158861125c565b5b92915050565b600061159a82610b4f565b91506115a583610b4f565b92508282019050808211156115bd576115bc61125c565b5b92915050565b60006115ce82610b4f565b91507fffffffffffffffffffffffffffffffffffffffffffffffffffffffffffffffff8203611600576115ff61125c565b5b600182019050919050565b6000611616826114df565b9150611621836114df565b9250828201905060ff81111561163a5761163961125c565b5b9291505056fea26469706673582212209d9377a4a7be5d4fab2c487613a069b6800f6bf21df5abf56ac4d84aabbb540364736f6c63430008120033","opcodes":"PUSH1 0x80 PUSH1 0x40 MSTORE CALLVALUE DUP1 ISZERO PUSH2 0x10 JUMPI PUSH1 0x0 DUP1 REVERT JUMPDEST POP PUSH2 0x1676 DUP1 PUSH2 0x20 PUSH1 0x0 CODECOPY PUSH1 0x0 RETURN INVALID PUSH1 0x80 PUSH1 0x40 MSTORE CALLVALUE DUP1 ISZERO PUSH2 0x10 JUMPI PUSH1 0x0 DUP1 REVERT JUMPDEST POP PUSH1 0x4 CALLDATASIZE LT PUSH2 0x4C JUMPI PUSH1 0x0 CALLDATALOAD PUSH1 0xE0 SHR DUP1 PUSH4 0x1CA76DF EQ PUSH2 0x51 JUMPI DUP1 PUSH4 0x5221A21E EQ PUSH2 0x6D JUMPI DUP1 PUSH4 0xC03D83F0 EQ PUSH2 0x9D JUMPI DUP1 PUSH4 0xEF6CF04D EQ PUSH2 0xB9 JUMPI JUMPDEST PUSH1 0x0 DUP1 REVERT JUMPDEST PUSH2 0x6B PUSH1 0x4 DUP1 CALLDATASIZE SUB DUP2 ADD SWAP1 PUSH2 0x66 SWAP2 SWAP1 PUSH2 0x8F6 JUMP JUMPDEST PUSH2 0xEF JUMP JUMPDEST STOP JUMPDEST PUSH2 0x87 PUSH1 0x4 DUP1 CALLDATASIZE SUB DUP2 ADD SWAP1 PUSH2 0x82 SWAP2 SWAP1 PUSH2 0x9C8 JUMP JUMPDEST PUSH2 0x32B JUMP JUMPDEST PUSH1 0x40 MLOAD PUSH2 0x94 SWAP2 SWAP1 PUSH2 0xA37 JUMP JUMPDEST PUSH1 0x40 MLOAD DUP1 SWAP2 SUB SWAP1 RETURN JUMPDEST PUSH2 0xB7 PUSH1 0x4 DUP1 CALLDATASIZE SUB DUP2 ADD SWAP1 PUSH2 0xB2 SWAP2 SWAP1 PUSH2 0xA52 JUMP JUMPDEST PUSH2 0x369 JUMP JUMPDEST STOP JUMPDEST PUSH2 0xD3 PUSH1 0x4 DUP1 CALLDATASIZE SUB DUP2 ADD SWAP1 PUSH2 0xCE SWAP2 SWAP1 PUSH2 0xA92 JUMP JUMPDEST PUSH2 0x48A JUMP JUMPDEST PUSH1 0x40 MLOAD PUSH2 0xE6 SWAP8 SWAP7 SWAP6 SWAP5 SWAP4 SWAP3 SWAP2 SWAP1 PUSH2 0xB77 JUMP JUMPDEST PUSH1 0x40 MLOAD DUP1 SWAP2 SUB SWAP1 RETURN JUMPDEST PUSH1 0x0 DUP1 SHL PUSH1 0x0 DUP1 DUP7 DUP2 MSTORE PUSH1 0x20 ADD SWAP1 DUP2 MSTORE PUSH1 0x20 ADD PUSH1 0x0 KECCAK256 PUSH1 0x0 ADD SLOAD EQ PUSH2 0x149 JUMPI PUSH1 0x40 MLOAD PUSH32 0x8C379A000000000000000000000000000000000000000000000000000000000 DUP2 MSTORE PUSH1 0x4 ADD PUSH2 0x140 SWAP1 PUSH2 0xC39 JUMP JUMPDEST PUSH1 0x40 MLOAD DUP1 SWAP2 SUB SWAP1 REVERT JUMPDEST PUSH1 0x0 PUSH2 0x156 DUP5 DUP5 CALLER PUSH2 0x32B JUMP JUMPDEST SWAP1 POP DUP5 DUP2 EQ PUSH2 0x19A JUMPI PUSH1 0x40 MLOAD PUSH32 0x8C379A000000000000000000000000000000000000000000000000000000000 DUP2 MSTORE PUSH1 0x4 ADD PUSH2 0x191 SWAP1 PUSH2 0xCA5 JUMP JUMPDEST PUSH1 0x40 MLOAD DUP1 SWAP2 SUB SWAP1 REVERT JUMPDEST PUSH1 0x40 MLOAD DUP1 PUSH1 0xE0 ADD PUSH1 0x40 MSTORE DUP1 DUP7 DUP2 MSTORE PUSH1 0x20 ADD DUP6 DUP6 DUP1 DUP1 PUSH1 0x1F ADD PUSH1 0x20 DUP1 SWAP2 DIV MUL PUSH1 0x20 ADD PUSH1 0x40 MLOAD SWAP1 DUP2 ADD PUSH1 0x40 MSTORE DUP1 SWAP4 SWAP3 SWAP2 SWAP1 DUP2 DUP2 MSTORE PUSH1 0x20 ADD DUP4 DUP4 DUP1 DUP3 DUP5 CALLDATACOPY PUSH1 0x0 DUP2 DUP5 ADD MSTORE PUSH1 0x1F NOT PUSH1 0x1F DUP3 ADD AND SWAP1 POP DUP1 DUP4 ADD SWAP3 POP POP POP POP POP POP POP DUP2 MSTORE PUSH1 0x20 ADD DUP4 DUP2 MSTORE PUSH1 0x20 ADD PUSH1 0x0 DUP1 SHL DUP2 MSTORE PUSH1 0x20 ADD TIMESTAMP DUP2 MSTORE PUSH1 0x20 ADD PUSH1 0x0 DUP2 MSTORE PUSH1 0x20 ADD CALLER PUSH20 0xFFFFFFFFFFFFFFFFFFFFFFFFFFFFFFFFFFFFFFFF AND DUP2 MSTORE POP PUSH1 0x0 DUP1 DUP8 DUP2 MSTORE PUSH1 0x20 ADD SWAP1 DUP2 MSTORE PUSH1 0x20 ADD PUSH1 0x0 KECCAK256 PUSH1 0x0 DUP3 ADD MLOAD DUP2 PUSH1 0x0 ADD SSTORE PUSH1 0x20 DUP3 ADD MLOAD DUP2 PUSH1 0x1 ADD SWAP1 DUP2 PUSH2 0x25C SWAP2 SWAP1 PUSH2 0xF00 JUMP JUMPDEST POP PUSH1 0x40 DUP3 ADD MLOAD DUP2 PUSH1 0x2 ADD SSTORE PUSH1 0x60 DUP3 ADD MLOAD DUP2 PUSH1 0x3 ADD SSTORE PUSH1 0x80 DUP3 ADD MLOAD DUP2 PUSH1 0x4 ADD SSTORE PUSH1 0xA0 DUP3 ADD MLOAD DUP2 PUSH1 0x5 ADD SSTORE PUSH1 0xC0 DUP3 ADD MLOAD DUP2 PUSH1 0x6 ADD PUSH1 0x0 PUSH2 0x100 EXP DUP2 SLOAD DUP2 PUSH20 0xFFFFFFFFFFFFFFFFFFFFFFFFFFFFFFFFFFFFFFFF MUL NOT AND SWAP1 DUP4 PUSH20 0xFFFFFFFFFFFFFFFFFFFFFFFFFFFFFFFFFFFFFFFF AND MUL OR SWAP1 SSTORE POP SWAP1 POP POP CALLER PUSH20 0xFFFFFFFFFFFFFFFFFFFFFFFFFFFFFFFFFFFFFFFF AND DUP6 PUSH32 0x801FBFE7A2075D128BF41F39B1CDB92F6E5D387D5D502A70A4B8852EFB22C45C DUP7 DUP7 DUP7 TIMESTAMP PUSH1 0x40 MLOAD PUSH2 0x31C SWAP5 SWAP4 SWAP3 SWAP2 SWAP1 PUSH2 0x100E JUMP JUMPDEST PUSH1 0x40 MLOAD DUP1 SWAP2 SUB SWAP1 LOG3 POP POP POP POP POP JUMP JUMPDEST PUSH1 0x0 DUP4 DUP4 PUSH2 0x338 DUP5 PUSH2 0x574 JUMP JUMPDEST PUSH1 0x40 MLOAD PUSH1 0x20 ADD PUSH2 0x34A SWAP4 SWAP3 SWAP2 SWAP1 PUSH2 0x10FB JUMP JUMPDEST PUSH1 0x40 MLOAD PUSH1 0x20 DUP2 DUP4 SUB SUB DUP2 MSTORE SWAP1 PUSH1 0x40 MSTORE DUP1 MLOAD SWAP1 PUSH1 0x20 ADD KECCAK256 SWAP1 POP SWAP4 SWAP3 POP POP POP JUMP JUMPDEST PUSH1 0x0 DUP1 SHL PUSH1 0x0 DUP1 DUP5 DUP2 MSTORE PUSH1 0x20 ADD SWAP1 DUP2 MSTORE PUSH1 0x20 ADD PUSH1 0x0 KECCAK256 PUSH1 0x0 ADD SLOAD SUB PUSH2 0x3C3 JUMPI PUSH1 0x40 MLOAD PUSH32 0x8C379A000000000000000000000000000000000000000000000000000000000 DUP2 MSTORE PUSH1 0x4 ADD PUSH2 0x3BA SWAP1 PUSH2 0x1178 JUMP JUMPDEST PUSH1 0x40 MLOAD DUP1 SWAP2 SUB SWAP1 REVERT JUMPDEST PUSH1 0x0 DUP1 PUSH1 0x0 DUP5 DUP2 MSTORE PUSH1 0x20 ADD SWAP1 DUP2 MSTORE PUSH1 0x20 ADD PUSH1 0x0 KECCAK256 SWAP1 POP PUSH1 0x0 DUP1 SHL DUP2 PUSH1 0x3 ADD SLOAD EQ PUSH2 0x422 JUMPI PUSH1 0x40 MLOAD PUSH32 0x8C379A000000000000000000000000000000000000000000000000000000000 DUP2 MSTORE PUSH1 0x4 ADD PUSH2 0x419 SWAP1 PUSH2 0x11E4 JUMP JUMPDEST PUSH1 0x40 MLOAD DUP1 SWAP2 SUB SWAP1 REVERT JUMPDEST DUP2 DUP2 PUSH1 0x3 ADD DUP2 SWAP1 SSTORE POP TIMESTAMP DUP2 PUSH1 0x5 ADD DUP2 SWAP1 SSTORE POP CALLER PUSH20 0xFFFFFFFFFFFFFFFFFFFFFFFFFFFFFFFFFFFFFFFF AND DUP4 PUSH32 0x8065D50C7119DB75BE7A97902337147F1E42C1AF2425CB94398BB315E6495701 DUP5 TIMESTAMP PUSH1 0x40 MLOAD PUSH2 0x47D SWAP3 SWAP2 SWAP1 PUSH2 0x1204 JUMP JUMPDEST PUSH1 0x40 MLOAD DUP1 SWAP2 SUB SWAP1 LOG3 POP POP POP JUMP JUMPDEST PUSH1 0x0 PUSH1 0x20 MSTORE DUP1 PUSH1 0x0 MSTORE PUSH1 0x40 PUSH1 0x0 KECCAK256 PUSH1 0x0 SWAP2 POP SWAP1 POP DUP1 PUSH1 0x0 ADD SLOAD SWAP1 DUP1 PUSH1 0x1 ADD DUP1 SLOAD PUSH2 0x4B3 SWAP1 PUSH2 0xD23 JUMP JUMPDEST DUP1 PUSH1 0x1F ADD PUSH1 0x20 DUP1 SWAP2 DIV MUL PUSH1 0x20 ADD PUSH1 0x40 MLOAD SWAP1 DUP2 ADD PUSH1 0x40 MSTORE DUP1 SWAP3 SWAP2 SWAP1 DUP2 DUP2 MSTORE PUSH1 0x20 ADD DUP3 DUP1 SLOAD PUSH2 0x4DF SWAP1 PUSH2 0xD23 JUMP JUMPDEST DUP1 ISZERO PUSH2 0x52C JUMPI DUP1 PUSH1 0x1F LT PUSH2 0x501 JUMPI PUSH2 0x100 DUP1 DUP4 SLOAD DIV MUL DUP4 MSTORE SWAP2 PUSH1 0x20 ADD SWAP2 PUSH2 0x52C JUMP JUMPDEST DUP3 ADD SWAP2 SWAP1 PUSH1 0x0 MSTORE PUSH1 0x20 PUSH1 0x0 KECCAK256 SWAP1 JUMPDEST DUP2 SLOAD DUP2 MSTORE SWAP1 PUSH1 0x1 ADD SWAP1 PUSH1 0x20 ADD DUP1 DUP4 GT PUSH2 0x50F JUMPI DUP3 SWAP1 SUB PUSH1 0x1F AND DUP3 ADD SWAP2 JUMPDEST POP POP POP POP POP SWAP1 DUP1 PUSH1 0x2 ADD SLOAD SWAP1 DUP1 PUSH1 0x3 ADD SLOAD SWAP1 DUP1 PUSH1 0x4 ADD SLOAD SWAP1 DUP1 PUSH1 0x5 ADD SLOAD SWAP1 DUP1 PUSH1 0x6 ADD PUSH1 0x0 SWAP1 SLOAD SWAP1 PUSH2 0x100 EXP SWAP1 DIV PUSH20 0xFFFFFFFFFFFFFFFFFFFFFFFFFFFFFFFFFFFFFFFF AND SWAP1 POP DUP8 JUMP JUMPDEST PUSH1 0x60 PUSH1 0x0 PUSH1 0x2A PUSH8 0xFFFFFFFFFFFFFFFF DUP2 GT ISZERO PUSH2 0x593 JUMPI PUSH2 0x592 PUSH2 0xCC5 JUMP JUMPDEST JUMPDEST PUSH1 0x40 MLOAD SWAP1 DUP1 DUP3 MSTORE DUP1 PUSH1 0x1F ADD PUSH1 0x1F NOT AND PUSH1 0x20 ADD DUP3 ADD PUSH1 0x40 MSTORE DUP1 ISZERO PUSH2 0x5C5 JUMPI DUP2 PUSH1 0x20 ADD PUSH1 0x1 DUP3 MUL DUP1 CALLDATASIZE DUP4 CALLDATACOPY DUP1 DUP3 ADD SWAP2 POP POP SWAP1 POP JUMPDEST POP SWAP1 POP PUSH32 0x3000000000000000000000000000000000000000000000000000000000000000 DUP2 PUSH1 0x0 DUP2 MLOAD DUP2 LT PUSH2 0x5FD JUMPI PUSH2 0x5FC PUSH2 0x122D JUMP JUMPDEST JUMPDEST PUSH1 0x20 ADD ADD SWAP1 PUSH31 0xFFFFFFFFFFFFFFFFFFFFFFFFFFFFFFFFFFFFFFFFFFFFFFFFFFFFFFFFFFFFFF NOT AND SWAP1 DUP2 PUSH1 0x0 BYTE SWAP1 MSTORE8 POP PUSH32 0x7800000000000000000000000000000000000000000000000000000000000000 DUP2 PUSH1 0x1 DUP2 MLOAD DUP2 LT PUSH2 0x661 JUMPI PUSH2 0x660 PUSH2 0x122D JUMP JUMPDEST JUMPDEST PUSH1 0x20 ADD ADD SWAP1 PUSH31 0xFFFFFFFFFFFFFFFFFFFFFFFFFFFFFFFFFFFFFFFFFFFFFFFFFFFFFFFFFFFFFF NOT AND SWAP1 DUP2 PUSH1 0x0 BYTE SWAP1 MSTORE8 POP PUSH1 0x0 JUMPDEST PUSH1 0x14 DUP2 LT ISZERO PUSH2 0x801 JUMPI PUSH1 0x0 DUP2 PUSH1 0x13 PUSH2 0x6AB SWAP2 SWAP1 PUSH2 0x128B JUMP JUMPDEST PUSH1 0x8 PUSH2 0x6B7 SWAP2 SWAP1 PUSH2 0x12BF JUMP JUMPDEST PUSH1 0x2 PUSH2 0x6C3 SWAP2 SWAP1 PUSH2 0x1434 JUMP JUMPDEST DUP6 PUSH20 0xFFFFFFFFFFFFFFFFFFFFFFFFFFFFFFFFFFFFFFFF AND PUSH2 0x6E4 SWAP2 SWAP1 PUSH2 0x14AE JUMP JUMPDEST PUSH1 0xF8 SHL SWAP1 POP PUSH1 0x0 PUSH1 0x10 DUP3 PUSH1 0xF8 SHR PUSH2 0x6FB SWAP2 SWAP1 PUSH2 0x14EC JUMP JUMPDEST PUSH1 0xF8 SHL SWAP1 POP PUSH1 0x0 DUP2 PUSH1 0xF8 SHR PUSH1 0x10 PUSH2 0x712 SWAP2 SWAP1 PUSH2 0x151D JUMP JUMPDEST DUP4 PUSH1 0xF8 SHR PUSH2 0x720 SWAP2 SWAP1 PUSH2 0x155A JUMP JUMPDEST PUSH1 0xF8 SHL SWAP1 POP PUSH2 0x72E DUP3 PUSH2 0x80B JUMP JUMPDEST DUP6 PUSH1 0x2 DUP7 PUSH1 0x2 PUSH2 0x73E SWAP2 SWAP1 PUSH2 0x12BF JUMP JUMPDEST PUSH2 0x748 SWAP2 SWAP1 PUSH2 0x158F JUMP JUMPDEST DUP2 MLOAD DUP2 LT PUSH2 0x759 JUMPI PUSH2 0x758 PUSH2 0x122D JUMP JUMPDEST JUMPDEST PUSH1 0x20 ADD ADD SWAP1 PUSH31 0xFFFFFFFFFFFFFFFFFFFFFFFFFFFFFFFFFFFFFFFFFFFFFFFFFFFFFFFFFFFFFF NOT AND SWAP1 DUP2 PUSH1 0x0 BYTE SWAP1 MSTORE8 POP PUSH2 0x791 DUP2 PUSH2 0x80B JUMP JUMPDEST DUP6 PUSH1 0x3 DUP7 PUSH1 0x2 PUSH2 0x7A1 SWAP2 SWAP1 PUSH2 0x12BF JUMP JUMPDEST PUSH2 0x7AB SWAP2 SWAP1 PUSH2 0x158F JUMP JUMPDEST DUP2 MLOAD DUP2 LT PUSH2 0x7BC JUMPI PUSH2 0x7BB PUSH2 0x122D JUMP JUMPDEST JUMPDEST PUSH1 0x20 ADD ADD SWAP1 PUSH31 0xFFFFFFFFFFFFFFFFFFFFFFFFFFFFFFFFFFFFFFFFFFFFFFFFFFFFFFFFFFFFFF NOT AND SWAP1 DUP2 PUSH1 0x0 BYTE SWAP1 MSTORE8 POP POP POP POP DUP1 DUP1 PUSH2 0x7F9 SWAP1 PUSH2 0x15C3 JUMP JUMPDEST SWAP2 POP POP PUSH2 0x693 JUMP JUMPDEST POP DUP1 SWAP2 POP POP SWAP2 SWAP1 POP JUMP JUMPDEST PUSH1 0x0 PUSH1 0xA DUP3 PUSH1 0xF8 SHR PUSH1 0xFF AND LT ISZERO PUSH2 0x836 JUMPI PUSH1 0x30 DUP3 PUSH1 0xF8 SHR PUSH2 0x82C SWAP2 SWAP1 PUSH2 0x160B JUMP JUMPDEST PUSH1 0xF8 SHL SWAP1 POP PUSH2 0x84C JUMP JUMPDEST PUSH1 0x57 DUP3 PUSH1 0xF8 SHR PUSH2 0x846 SWAP2 SWAP1 PUSH2 0x160B JUMP JUMPDEST PUSH1 0xF8 SHL SWAP1 POP JUMPDEST SWAP2 SWAP1 POP JUMP JUMPDEST PUSH1 0x0 DUP1 REVERT JUMPDEST PUSH1 0x0 DUP1 REVERT JUMPDEST PUSH1 0x0 DUP2 SWAP1 POP SWAP2 SWAP1 POP JUMP JUMPDEST PUSH2 0x86E DUP2 PUSH2 0x85B JUMP JUMPDEST DUP2 EQ PUSH2 0x879 JUMPI PUSH1 0x0 DUP1 REVERT JUMPDEST POP JUMP JUMPDEST PUSH1 0x0 DUP2 CALLDATALOAD SWAP1 POP PUSH2 0x88B DUP2 PUSH2 0x865 JUMP JUMPDEST SWAP3 SWAP2 POP POP JUMP JUMPDEST PUSH1 0x0 DUP1 REVERT JUMPDEST PUSH1 0x0 DUP1 REVERT JUMPDEST PUSH1 0x0 DUP1 REVERT JUMPDEST PUSH1 0x0 DUP1 DUP4 PUSH1 0x1F DUP5 ADD SLT PUSH2 0x8B6 JUMPI PUSH2 0x8B5 PUSH2 0x891 JUMP JUMPDEST JUMPDEST DUP3 CALLDATALOAD SWAP1 POP PUSH8 0xFFFFFFFFFFFFFFFF DUP2 GT ISZERO PUSH2 0x8D3 JUMPI PUSH2 0x8D2 PUSH2 0x896 JUMP JUMPDEST JUMPDEST PUSH1 0x20 DUP4 ADD SWAP2 POP DUP4 PUSH1 0x1 DUP3 MUL DUP4 ADD GT ISZERO PUSH2 0x8EF JUMPI PUSH2 0x8EE PUSH2 0x89B JUMP JUMPDEST JUMPDEST SWAP3 POP SWAP3 SWAP1 POP JUMP JUMPDEST PUSH1 0x0 DUP1 PUSH1 0x0 DUP1 PUSH1 0x60 DUP6 DUP8 SUB SLT ISZERO PUSH2 0x910 JUMPI PUSH2 0x90F PUSH2 0x851 JUMP JUMPDEST JUMPDEST PUSH1 0x0 PUSH2 0x91E DUP8 DUP3 DUP9 ADD PUSH2 0x87C JUMP JUMPDEST SWAP5 POP POP PUSH1 0x20 DUP6 ADD CALLDATALOAD PUSH8 0xFFFFFFFFFFFFFFFF DUP2 GT ISZERO PUSH2 0x93F JUMPI PUSH2 0x93E PUSH2 0x856 JUMP JUMPDEST JUMPDEST PUSH2 0x94B DUP8 DUP3 DUP9 ADD PUSH2 0x8A0 JUMP JUMPDEST SWAP4 POP SWAP4 POP POP PUSH1 0x40 PUSH2 0x95E DUP8 DUP3 DUP9 ADD PUSH2 0x87C JUMP JUMPDEST SWAP2 POP POP SWAP3 SWAP6 SWAP2 SWAP5 POP SWAP3 POP JUMP JUMPDEST PUSH1 0x0 PUSH20 0xFFFFFFFFFFFFFFFFFFFFFFFFFFFFFFFFFFFFFFFF DUP3 AND SWAP1 POP SWAP2 SWAP1 POP JUMP JUMPDEST PUSH1 0x0 PUSH2 0x995 DUP3 PUSH2 0x96A JUMP JUMPDEST SWAP1 POP SWAP2 SWAP1 POP JUMP JUMPDEST PUSH2 0x9A5 DUP2 PUSH2 0x98A JUMP JUMPDEST DUP2 EQ PUSH2 0x9B0 JUMPI PUSH1 0x0 DUP1 REVERT JUMPDEST POP JUMP JUMPDEST PUSH1 0x0 DUP2 CALLDATALOAD SWAP1 POP PUSH2 0x9C2 DUP2 PUSH2 0x99C JUMP JUMPDEST SWAP3 SWAP2 POP POP JUMP JUMPDEST PUSH1 0x0 DUP1 PUSH1 0x0 PUSH1 0x40 DUP5 DUP7 SUB SLT ISZERO PUSH2 0x9E1 JUMPI PUSH2 0x9E0 PUSH2 0x851 JUMP JUMPDEST JUMPDEST PUSH1 0x0 DUP5 ADD CALLDATALOAD PUSH8 0xFFFFFFFFFFFFFFFF DUP2 GT ISZERO PUSH2 0x9FF JUMPI PUSH2 0x9FE PUSH2 0x856 JUMP JUMPDEST JUMPDEST PUSH2 0xA0B DUP7 DUP3 DUP8 ADD PUSH2 0x8A0 JUMP JUMPDEST SWAP4 POP SWAP4 POP POP PUSH1 0x20 PUSH2 0xA1E DUP7 DUP3 DUP8 ADD PUSH2 0x9B3 JUMP JUMPDEST SWAP2 POP POP SWAP3 POP SWAP3 POP SWAP3 JUMP JUMPDEST PUSH2 0xA31 DUP2 PUSH2 0x85B JUMP JUMPDEST DUP3 MSTORE POP POP JUMP JUMPDEST PUSH1 0x0 PUSH1 0x20 DUP3 ADD SWAP1 POP PUSH2 0xA4C PUSH1 0x0 DUP4 ADD DUP5 PUSH2 0xA28 JUMP JUMPDEST SWAP3 SWAP2 POP POP JUMP JUMPDEST PUSH1 0x0 DUP1 PUSH1 0x40 DUP4 DUP6 SUB SLT ISZERO PUSH2 0xA69 JUMPI PUSH2 0xA68 PUSH2 0x851 JUMP JUMPDEST JUMPDEST PUSH1 0x0 PUSH2 0xA77 DUP6 DUP3 DUP7 ADD PUSH2 0x87C JUMP JUMPDEST SWAP3 POP POP PUSH1 0x20 PUSH2 0xA88 DUP6 DUP3 DUP7 ADD PUSH2 0x87C JUMP JUMPDEST SWAP2 POP POP SWAP3 POP SWAP3 SWAP1 POP JUMP JUMPDEST PUSH1 0x0 PUSH1 0x20 DUP3 DUP5 SUB SLT ISZERO PUSH2 0xAA8 JUMPI PUSH2 0xAA7 PUSH2 0x851 JUMP JUMPDEST JUMPDEST PUSH1 0x0 PUSH2 0xAB6 DUP5 DUP3 DUP6 ADD PUSH2 0x87C JUMP JUMPDEST SWAP2 POP POP SWAP3 SWAP2 POP POP JUMP JUMPDEST PUSH1 0x0 DUP2 MLOAD SWAP1 POP SWAP2 SWAP1 POP JUMP JUMPDEST PUSH1 0x0 DUP3 DUP3 MSTORE PUSH1 0x20 DUP3 ADD SWAP1 POP SWAP3 SWAP2 POP POP JUMP JUMPDEST PUSH1 0x0 JUMPDEST DUP4 DUP2 LT ISZERO PUSH2 0xAF9 JUMPI DUP1 DUP3 ADD MLOAD DUP2 DUP5 ADD MSTORE PUSH1 0x20 DUP2 ADD SWAP1 POP PUSH2 0xADE JUMP JUMPDEST PUSH1 0x0 DUP5 DUP5 ADD MSTORE POP POP POP POP JUMP JUMPDEST PUSH1 0x0 PUSH1 0x1F NOT PUSH1 0x1F DUP4 ADD AND SWAP1 POP SWAP2 SWAP1 POP JUMP JUMPDEST PUSH1 0x0 PUSH2 0xB21 DUP3 PUSH2 0xABF JUMP JUMPDEST PUSH2 0xB2B DUP2 DUP6 PUSH2 0xACA JUMP JUMPDEST SWAP4 POP PUSH2 0xB3B DUP2 DUP6 PUSH1 0x20 DUP7 ADD PUSH2 0xADB JUMP JUMPDEST PUSH2 0xB44 DUP2 PUSH2 0xB05 JUMP JUMPDEST DUP5 ADD SWAP2 POP POP SWAP3 SWAP2 POP POP JUMP JUMPDEST PUSH1 0x0 DUP2 SWAP1 POP SWAP2 SWAP1 POP JUMP JUMPDEST PUSH2 0xB62 DUP2 PUSH2 0xB4F JUMP JUMPDEST DUP3 MSTORE POP POP JUMP JUMPDEST PUSH2 0xB71 DUP2 PUSH2 0x98A JUMP JUMPDEST DUP3 MSTORE POP POP JUMP JUMPDEST PUSH1 0x0 PUSH1 0xE0 DUP3 ADD SWAP1 POP PUSH2 0xB8C PUSH1 0x0 DUP4 ADD DUP11 PUSH2 0xA28 JUMP JUMPDEST DUP2 DUP2 SUB PUSH1 0x20 DUP4 ADD MSTORE PUSH2 0xB9E DUP2 DUP10 PUSH2 0xB16 JUMP JUMPDEST SWAP1 POP PUSH2 0xBAD PUSH1 0x40 DUP4 ADD DUP9 PUSH2 0xA28 JUMP JUMPDEST PUSH2 0xBBA PUSH1 0x60 DUP4 ADD DUP8 PUSH2 0xA28 JUMP JUMPDEST PUSH2 0xBC7 PUSH1 0x80 DUP4 ADD DUP7 PUSH2 0xB59 JUMP JUMPDEST PUSH2 0xBD4 PUSH1 0xA0 DUP4 ADD DUP6 PUSH2 0xB59 JUMP JUMPDEST PUSH2 0xBE1 PUSH1 0xC0 DUP4 ADD DUP5 PUSH2 0xB68 JUMP JUMPDEST SWAP9 SWAP8 POP POP POP POP POP POP POP POP JUMP JUMPDEST PUSH32 0x616C726561647920726567697374657265640000000000000000000000000000 PUSH1 0x0 DUP3 ADD MSTORE POP JUMP JUMPDEST PUSH1 0x0 PUSH2 0xC23 PUSH1 0x12 DUP4 PUSH2 0xACA JUMP JUMPDEST SWAP2 POP PUSH2 0xC2E DUP3 PUSH2 0xBED JUMP JUMPDEST PUSH1 0x20 DUP3 ADD SWAP1 POP SWAP2 SWAP1 POP JUMP JUMPDEST PUSH1 0x0 PUSH1 0x20 DUP3 ADD SWAP1 POP DUP2 DUP2 SUB PUSH1 0x0 DUP4 ADD MSTORE PUSH2 0xC52 DUP2 PUSH2 0xC16 JUMP JUMPDEST SWAP1 POP SWAP2 SWAP1 POP JUMP JUMPDEST PUSH32 0x726563656970744964206D69736D617463680000000000000000000000000000 PUSH1 0x0 DUP3 ADD MSTORE POP JUMP JUMPDEST PUSH1 0x0 PUSH2 0xC8F PUSH1 0x12 DUP4 PUSH2 0xACA JUMP JUMPDEST SWAP2 POP PUSH2 0xC9A DUP3 PUSH2 0xC59 JUMP JUMPDEST PUSH1 0x20 DUP3 ADD SWAP1 POP SWAP2 SWAP1 POP JUMP JUMPDEST PUSH1 0x0 PUSH1 0x20 DUP3 ADD SWAP1 POP DUP2 DUP2 SUB PUSH1 0x0 DUP4 ADD MSTORE PUSH2 0xCBE DUP2 PUSH2 0xC82 JUMP JUMPDEST SWAP1 POP SWAP2 SWAP1 POP JUMP JUMPDEST PUSH32 0x4E487B7100000000000000000000000000000000000000000000000000000000 PUSH1 0x0 MSTORE PUSH1 0x41 PUSH1 0x4 MSTORE PUSH1 0x24 PUSH1 0x0 REVERT JUMPDEST PUSH32 0x4E487B7100000000000000000000000000000000000000000000000000000000 PUSH1 0x0 MSTORE PUSH1 0x22 PUSH1 0x4 MSTORE PUSH1 0x24 PUSH1 0x0 REVERT JUMPDEST PUSH1 0x0 PUSH1 0x2 DUP3 DIV SWAP1 POP PUSH1 0x1 DUP3 AND DUP1 PUSH2 0xD3B JUMPI PUSH1 0x7F DUP3 AND SWAP2 POP JUMPDEST PUSH1 0x20 DUP3 LT DUP2 SUB PUSH2 0xD4E JUMPI PUSH2 0xD4D PUSH2 0xCF4 JUMP JUMPDEST JUMPDEST POP SWAP2 SWAP1 POP JUMP JUMPDEST PUSH1 0x0 DUP2 SWAP1 POP DUP2 PUSH1 0x0 MSTORE PUSH1 0x20 PUSH1 0x0 KECCAK256 SWAP1 POP SWAP2 SWAP1 POP JUMP JUMPDEST PUSH1 0x0 PUSH1 0x20 PUSH1 0x1F DUP4 ADD DIV SWAP1 POP SWAP2 SWAP1 POP JUMP JUMPDEST PUSH1 0x0 DUP3 DUP3 SHL SWAP1 POP SWAP3 SWAP2 POP POP JUMP JUMPDEST PUSH1 0x0 PUSH1 0x8 DUP4 MUL PUSH2 0xDB6 PUSH32 0xFFFFFFFFFFFFFFFFFFFFFFFFFFFFFFFFFFFFFFFFFFFFFFFFFFFFFFFFFFFFFFFF DUP3 PUSH2 0xD79 JUMP JUMPDEST PUSH2 0xDC0 DUP7 DUP4 PUSH2 0xD79 JUMP JUMPDEST SWAP6 POP DUP1 NOT DUP5 AND SWAP4 POP DUP1 DUP7 AND DUP5 OR SWAP3 POP POP POP SWAP4 SWAP3 POP POP POP JUMP JUMPDEST PUSH1 0x0 DUP2 SWAP1 POP SWAP2 SWAP1 POP JUMP JUMPDEST PUSH1 0x0 PUSH2 0xDFD PUSH2 0xDF8 PUSH2 0xDF3 DUP5 PUSH2 0xB4F JUMP JUMPDEST PUSH2 0xDD8 JUMP JUMPDEST PUSH2 0xB4F JUMP JUMPDEST SWAP1 POP SWAP2 SWAP1 POP JUMP JUMPDEST PUSH1 0x0 DUP2 SWAP1 POP SWAP2 SWAP1 POP JUMP JUMPDEST PUSH2 0xE17 DUP4 PUSH2 0xDE2 JUMP JUMPDEST PUSH2 0xE2B PUSH2 0xE23 DUP3 PUSH2 0xE04 JUMP JUMPDEST DUP5 DUP5 SLOAD PUSH2 0xD86 JUMP JUMPDEST DUP3 SSTORE POP POP POP POP JUMP JUMPDEST PUSH1 0x0 SWAP1 JUMP JUMPDEST PUSH2 0xE40 PUSH2 0xE33 JUMP JUMPDEST PUSH2 0xE4B DUP2 DUP5 DUP5 PUSH2 0xE0E JUMP JUMPDEST POP POP POP JUMP JUMPDEST JUMPDEST DUP2 DUP2 LT ISZERO PUSH2 0xE6F JUMPI PUSH2 0xE64 PUSH1 0x0 DUP3 PUSH2 0xE38 JUMP JUMPDEST PUSH1 0x1 DUP2 ADD SWAP1 POP PUSH2 0xE51 JUMP JUMPDEST POP POP JUMP JUMPDEST PUSH1 0x1F DUP3 GT ISZERO PUSH2 0xEB4 JUMPI PUSH2 0xE85 DUP2 PUSH2 0xD54 JUMP JUMPDEST PUSH2 0xE8E DUP5 PUSH2 0xD69 JUMP JUMPDEST DUP2 ADD PUSH1 0x20 DUP6 LT ISZERO PUSH2 0xE9D JUMPI DUP2 SWAP1 POP JUMPDEST PUSH2 0xEB1 PUSH2 0xEA9 DUP6 PUSH2 0xD69 JUMP JUMPDEST DUP4 ADD DUP3 PUSH2 0xE50 JUMP JUMPDEST POP POP JUMPDEST POP POP POP JUMP JUMPDEST PUSH1 0x0 DUP3 DUP3 SHR SWAP1 POP SWAP3 SWAP2 POP POP JUMP JUMPDEST PUSH1 0x0 PUSH2 0xED7 PUSH1 0x0 NOT DUP5 PUSH1 0x8 MUL PUSH2 0xEB9 JUMP JUMPDEST NOT DUP1 DUP4 AND SWAP2 POP POP SWAP3 SWAP2 POP POP JUMP JUMPDEST PUSH1 0x0 PUSH2 0xEF0 DUP4 DUP4 PUSH2 0xEC6 JUMP JUMPDEST SWAP2 POP DUP3 PUSH1 0x2 MUL DUP3 OR SWAP1 POP SWAP3 SWAP2 POP POP JUMP JUMPDEST PUSH2 0xF09 DUP3 PUSH2 0xABF JUMP JUMPDEST PUSH8 0xFFFFFFFFFFFFFFFF DUP2 GT ISZERO PUSH2 0xF22 JUMPI PUSH2 0xF21 PUSH2 0xCC5 JUMP JUMPDEST JUMPDEST PUSH2 0xF2C DUP3 SLOAD PUSH2 0xD23 JUMP JUMPDEST PUSH2 0xF37 DUP3 DUP3 DUP6 PUSH2 0xE73 JUMP JUMPDEST PUSH1 0x0 PUSH1 0x20 SWAP1 POP PUSH1 0x1F DUP4 GT PUSH1 0x1 DUP2 EQ PUSH2 0xF6A JUMPI PUSH1 0x0 DUP5 ISZERO PUSH2 0xF58 JUMPI DUP3 DUP8 ADD MLOAD SWAP1 POP JUMPDEST PUSH2 0xF62 DUP6 DUP3 PUSH2 0xEE4 JUMP JUMPDEST DUP7 SSTORE POP PUSH2 0xFCA JUMP JUMPDEST PUSH1 0x1F NOT DUP5 AND PUSH2 0xF78 DUP7 PUSH2 0xD54 JUMP JUMPDEST PUSH1 0x0 JUMPDEST DUP3 DUP2 LT ISZERO PUSH2 0xFA0 JUMPI DUP5 DUP10 ADD MLOAD DUP3 SSTORE PUSH1 0x1 DUP3 ADD SWAP2 POP PUSH1 0x20 DUP6 ADD SWAP5 POP PUSH1 0x20 DUP2 ADD SWAP1 POP PUSH2 0xF7B JUMP JUMPDEST DUP7 DUP4 LT ISZERO PUSH2 0xFBD JUMPI DUP5 DUP10 ADD MLOAD PUSH2 0xFB9 PUSH1 0x1F DUP10 AND DUP3 PUSH2 0xEC6 JUMP JUMPDEST DUP4 SSTORE POP JUMPDEST PUSH1 0x1 PUSH1 0x2 DUP9 MUL ADD DUP9 SSTORE POP POP POP JUMPDEST POP POP POP POP POP POP JUMP JUMPDEST DUP3 DUP2 DUP4 CALLDATACOPY PUSH1 0x0 DUP4 DUP4 ADD MSTORE POP POP POP JUMP JUMPDEST PUSH1 0x0 PUSH2 0xFED DUP4 DUP6 PUSH2 0xACA JUMP JUMPDEST SWAP4 POP PUSH2 0xFFA DUP4 DUP6 DUP5 PUSH2 0xFD2 JUMP JUMPDEST PUSH2 0x1003 DUP4 PUSH2 0xB05 JUMP JUMPDEST DUP5 ADD SWAP1 POP SWAP4 SWAP3 POP POP POP JUMP JUMPDEST PUSH1 0x0 PUSH1 0x60 DUP3 ADD SWAP1 POP DUP2 DUP2 SUB PUSH1 0x0 DUP4 ADD MSTORE PUSH2 0x1029 DUP2 DUP7 DUP9 PUSH2 0xFE1 JUMP JUMPDEST SWAP1 POP PUSH2 0x1038 PUSH1 0x20 DUP4 ADD DUP6 PUSH2 0xA28 JUMP JUMPDEST PUSH2 0x1045 PUSH1 0x40 DUP4 ADD DUP5 PUSH2 0xB59 JUMP JUMPDEST SWAP6 SWAP5 POP POP POP POP POP JUMP JUMPDEST PUSH1 0x0 DUP2 SWAP1 POP SWAP3 SWAP2 POP POP JUMP JUMPDEST PUSH1 0x0 PUSH2 0x1065 DUP4 DUP6 PUSH2 0x104E JUMP JUMPDEST SWAP4 POP PUSH2 0x1072 DUP4 DUP6 DUP5 PUSH2 0xFD2 JUMP JUMPDEST DUP3 DUP5 ADD SWAP1 POP SWAP4 SWAP3 POP POP POP JUMP JUMPDEST PUSH32 0x7C00000000000000000000000000000000000000000000000000000000000000 PUSH1 0x0 DUP3 ADD MSTORE POP JUMP JUMPDEST PUSH1 0x0 PUSH2 0x10B4 PUSH1 0x1 DUP4 PUSH2 0x104E JUMP JUMPDEST SWAP2 POP PUSH2 0x10BF DUP3 PUSH2 0x107E JUMP JUMPDEST PUSH1 0x1 DUP3 ADD SWAP1 POP SWAP2 SWAP1 POP JUMP JUMPDEST PUSH1 0x0 PUSH2 0x10D5 DUP3 PUSH2 0xABF JUMP JUMPDEST PUSH2 0x10DF DUP2 DUP6 PUSH2 0x104E JUMP JUMPDEST SWAP4 POP PUSH2 0x10EF DUP2 DUP6 PUSH1 0x20 DUP7 ADD PUSH2 0xADB JUMP JUMPDEST DUP1 DUP5 ADD SWAP2 POP POP SWAP3 SWAP2 POP POP JUMP JUMPDEST PUSH1 0x0 PUSH2 0x1108 DUP3 DUP6 DUP8 PUSH2 0x1059 JUMP JUMPDEST SWAP2 POP PUSH2 0x1113 DUP3 PUSH2 0x10A7 JUMP JUMPDEST SWAP2 POP PUSH2 0x111F DUP3 DUP5 PUSH2 0x10CA JUMP JUMPDEST SWAP2 POP DUP2 SWAP1 POP SWAP5 SWAP4 POP POP POP POP JUMP JUMPDEST PUSH32 0x6E6F742072656769737465726564000000000000000000000000000000000000 PUSH1 0x0 DUP3 ADD MSTORE POP JUMP JUMPDEST PUSH1 0x0 PUSH2 0x1162 PUSH1 0xE DUP4 PUSH2 0xACA JUMP JUMPDEST SWAP2 POP PUSH2 0x116D DUP3 PUSH2 0x112C JUMP JUMPDEST PUSH1 0x20 DUP3 ADD SWAP1 POP SWAP2 SWAP1 POP JUMP JUMPDEST PUSH1 0x0 PUSH1 0x20 DUP3 ADD SWAP1 POP DUP2 DUP2 SUB PUSH1 0x0 DUP4 ADD MSTORE PUSH2 0x1191 DUP2 PUSH2 0x1155 JUMP JUMPDEST SWAP1 POP SWAP2 SWAP1 POP JUMP JUMPDEST PUSH32 0x616C726561647920617474657374656400000000000000000000000000000000 PUSH1 0x0 DUP3 ADD MSTORE POP JUMP JUMPDEST PUSH1 0x0 PUSH2 0x11CE PUSH1 0x10 DUP4 PUSH2 0xACA JUMP JUMPDEST SWAP2 POP PUSH2 0x11D9 DUP3 PUSH2 0x1198 JUMP JUMPDEST PUSH1 0x20 DUP3 ADD SWAP1 POP SWAP2 SWAP1 POP JUMP JUMPDEST PUSH1 0x0 PUSH1 0x20 DUP3 ADD SWAP1 POP DUP2 DUP2 SUB PUSH1 0x0 DUP4 ADD MSTORE PUSH2 0x11FD DUP2 PUSH2 0x11C1 JUMP JUMPDEST SWAP1 POP SWAP2 SWAP1 POP JUMP JUMPDEST PUSH1 0x0 PUSH1 0x40 DUP3 ADD SWAP1 POP PUSH2 0x1219 PUSH1 0x0 DUP4 ADD DUP6 PUSH2 0xA28 JUMP JUMPDEST PUSH2 0x1226 PUSH1 0x20 DUP4 ADD DUP5 PUSH2 0xB59 JUMP JUMPDEST SWAP4 SWAP3 POP POP POP JUMP JUMPDEST PUSH32 0x4E487B7100000000000000000000000000000000000000000000000000000000 PUSH1 0x0 MSTORE PUSH1 0x32 PUSH1 0x4 MSTORE PUSH1 0x24 PUSH1 0x0 REVERT JUMPDEST PUSH32 0x4E487B7100000000000000000000000000000000000000000000000000000000 PUSH1 0x0 MSTORE PUSH1 0x11 PUSH1 0x4 MSTORE PUSH1 0x24 PUSH1 0x0 REVERT JUMPDEST PUSH1 0x0 PUSH2 0x1296 DUP3 PUSH2 0xB4F JUMP JUMPDEST SWAP2 POP PUSH2 0x12A1 DUP4 PUSH2 0xB4F JUMP JUMPDEST SWAP3 POP DUP3 DUP3 SUB SWAP1 POP DUP2 DUP2 GT ISZERO PUSH2 0x12B9 JUMPI PUSH2 0x12B8 PUSH2 0x125C JUMP JUMPDEST JUMPDEST SWAP3 SWAP2 POP POP JUMP JUMPDEST PUSH1 0x0 PUSH2 0x12CA DUP3 PUSH2 0xB4F JUMP JUMPDEST SWAP2 POP PUSH2 0x12D5 DUP4 PUSH2 0xB4F JUMP JUMPDEST SWAP3 POP DUP3 DUP3 MUL PUSH2 0x12E3 DUP2 PUSH2 0xB4F JUMP JUMPDEST SWAP2 POP DUP3 DUP3 DIV DUP5 EQ DUP4 ISZERO OR PUSH2 0x12FA JUMPI PUSH2 0x12F9 PUSH2 0x125C JUMP JUMPDEST JUMPDEST POP SWAP3 SWAP2 POP POP JUMP JUMPDEST PUSH1 0x0 DUP2 PUSH1 0x1 SHR SWAP1 POP SWAP2 SWAP1 POP JUMP JUMPDEST PUSH1 0x0 DUP1 DUP3 SWAP2 POP DUP4 SWAP1 POP JUMPDEST PUSH1 0x1 DUP6 GT ISZERO PUSH2 0x1358 JUMPI DUP1 DUP7 DIV DUP2 GT ISZERO PUSH2 0x1334 JUMPI PUSH2 0x1333 PUSH2 0x125C JUMP JUMPDEST JUMPDEST PUSH1 0x1 DUP6 AND ISZERO PUSH2 0x1343 JUMPI DUP1 DUP3 MUL SWAP2 POP JUMPDEST DUP1 DUP2 MUL SWAP1 POP PUSH2 0x1351 DUP6 PUSH2 0x1301 JUMP JUMPDEST SWAP5 POP PUSH2 0x1318 JUMP JUMPDEST SWAP5 POP SWAP5 SWAP3 POP POP POP JUMP JUMPDEST PUSH1 0x0 DUP3 PUSH2 0x1371 JUMPI PUSH1 0x1 SWAP1 POP PUSH2 0x142D JUMP JUMPDEST DUP2 PUSH2 0x137F JUMPI PUSH1 0x0 SWAP1 POP PUSH2 0x142D JUMP JUMPDEST DUP2 PUSH1 0x1 DUP2 EQ PUSH2 0x1395 JUMPI PUSH1 0x2 DUP2 EQ PUSH2 0x139F JUMPI PUSH2 0x13CE JUMP JUMPDEST PUSH1 0x1 SWAP2 POP POP PUSH2 0x142D JUMP JUMPDEST PUSH1 0xFF DUP5 GT ISZERO PUSH2 0x13B1 JUMPI PUSH2 0x13B0 PUSH2 0x125C JUMP JUMPDEST JUMPDEST DUP4 PUSH1 0x2 EXP SWAP2 POP DUP5 DUP3 GT ISZERO PUSH2 0x13C8 JUMPI PUSH2 0x13C7 PUSH2 0x125C JUMP JUMPDEST JUMPDEST POP PUSH2 0x142D JUMP JUMPDEST POP PUSH1 0x20 DUP4 LT PUSH2 0x133 DUP4 LT AND PUSH1 0x4E DUP5 LT PUSH1 0xB DUP5 LT AND OR ISZERO PUSH2 0x1403 JUMPI DUP3 DUP3 EXP SWAP1 POP DUP4 DUP2 GT ISZERO PUSH2 0x13FE JUMPI PUSH2 0x13FD PUSH2 0x125C JUMP JUMPDEST JUMPDEST PUSH2 0x142D JUMP JUMPDEST PUSH2 0x1410 DUP5 DUP5 DUP5 PUSH1 0x1 PUSH2 0x130E JUMP JUMPDEST SWAP3 POP SWAP1 POP DUP2 DUP5 DIV DUP2 GT ISZERO PUSH2 0x1427 JUMPI PUSH2 0x1426 PUSH2 0x125C JUMP JUMPDEST JUMPDEST DUP2 DUP2 MUL SWAP1 POP JUMPDEST SWAP4 SWAP3 POP POP POP JUMP JUMPDEST PUSH1 0x0 PUSH2 0x143F DUP3 PUSH2 0xB4F JUMP JUMPDEST SWAP2 POP PUSH2 0x144A DUP4 PUSH2 0xB4F JUMP JUMPDEST SWAP3 POP PUSH2 0x1477 PUSH32 0xFFFFFFFFFFFFFFFFFFFFFFFFFFFFFFFFFFFFFFFFFFFFFFFFFFFFFFFFFFFFFFFF DUP5 DUP5 PUSH2 0x1361 JUMP JUMPDEST SWAP1 POP SWAP3 SWAP2 POP POP JUMP JUMPDEST PUSH32 0x4E487B7100000000000000000000000000000000000000000000000000000000 PUSH1 0x0 MSTORE PUSH1 0x12 PUSH1 0x4 MSTORE PUSH1 0x24 PUSH1 0x0 REVERT JUMPDEST PUSH1 0x0 PUSH2 0x14B9 DUP3 PUSH2 0xB4F JUMP JUMPDEST SWAP2 POP PUSH2 0x14C4 DUP4 PUSH2 0xB4F JUMP JUMPDEST SWAP3 POP DUP3 PUSH2 0x14D4 JUMPI PUSH2 0x14D3 PUSH2 0x147F JUMP JUMPDEST JUMPDEST DUP3 DUP3 DIV SWAP1 POP SWAP3 SWAP2 POP POP JUMP JUMPDEST PUSH1 0x0 PUSH1 0xFF DUP3 AND SWAP1 POP SWAP2 SWAP1 POP JUMP JUMPDEST PUSH1 0x0 PUSH2 0x14F7 DUP3 PUSH2 0x14DF JUMP JUMPDEST SWAP2 POP PUSH2 0x1502 DUP4 PUSH2 0x14DF JUMP JUMPDEST SWAP3 POP DUP3 PUSH2 0x1512 JUMPI PUSH2 0x1511 PUSH2 0x147F JUMP JUMPDEST JUMPDEST DUP3 DUP3 DIV SWAP1 POP SWAP3 SWAP2 POP POP JUMP JUMPDEST PUSH1 0x0 PUSH2 0x1528 DUP3 PUSH2 0x14DF JUMP JUMPDEST SWAP2 POP PUSH2 0x1533 DUP4 PUSH2 0x14DF JUMP JUMPDEST SWAP3 POP DUP3 DUP3 MUL PUSH2 0x1541 DUP2 PUSH2 0x14DF JUMP JUMPDEST SWAP2 POP DUP1 DUP3 EQ PUSH2 0x1553 JUMPI PUSH2 0x1552 PUSH2 0x125C JUMP JUMPDEST JUMPDEST POP SWAP3 SWAP2 POP POP JUMP JUMPDEST PUSH1 0x0 PUSH2 0x1565 DUP3 PUSH2 0x14DF JUMP JUMPDEST SWAP2 POP PUSH2 0x1570 DUP4 PUSH2 0x14DF JUMP JUMPDEST SWAP3 POP DUP3 DUP3 SUB SWAP1 POP PUSH1 0xFF DUP2 GT ISZERO PUSH2 0x1589 JUMPI PUSH2 0x1588 PUSH2 0x125C JUMP JUMPDEST JUMPDEST SWAP3 SWAP2 POP POP JUMP JUMPDEST PUSH1 0x0 PUSH2 0x159A DUP3 PUSH2 0xB4F JUMP JUMPDEST SWAP2 POP PUSH2 0x15A5 DUP4 PUSH2 0xB4F JUMP JUMPDEST SWAP3 POP DUP3 DUP3 ADD SWAP1 POP DUP1 DUP3 GT ISZERO PUSH2 0x15BD JUMPI PUSH2 0x15BC PUSH2 0x125C JUMP JUMPDEST JUMPDEST SWAP3 SWAP2 POP POP JUMP JUMPDEST PUSH1 0x0 PUSH2 0x15CE DUP3 PUSH2 0xB4F JUMP JUMPDEST SWAP2 POP PUSH32 0xFFFFFFFFFFFFFFFFFFFFFFFFFFFFFFFFFFFFFFFFFFFFFFFFFFFFFFFFFFFFFFFF DUP3 SUB PUSH2 0x1600 JUMPI PUSH2 0x15FF PUSH2 0x125C JUMP JUMPDEST JUMPDEST PUSH1 0x1 DUP3 ADD SWAP1 POP SWAP2 SWAP1 POP JUMP JUMPDEST PUSH1 0x0 PUSH2 0x1616 DUP3 PUSH2 0x14DF JUMP JUMPDEST SWAP2 POP PUSH2 0x1621 DUP4 PUSH2 0x14DF JUMP JUMPDEST SWAP3 POP DUP3 DUP3 ADD SWAP1 POP PUSH1 0xFF DUP2 GT ISZERO PUSH2 0x163A JUMPI PUSH2 0x1639 PUSH2 0x125C JUMP JUMPDEST JUMPDEST SWAP3 SWAP2 POP POP JUMP INVALID LOG2 PUSH5 0x6970667358 0x22 SLT KECCAK256 SWAP14 SWAP4 PUSH24 0xA4A7BE5D4FAB2C487613A069B6800F6BF21DF5ABF56AC4D8 0x4A 0xAB 0xBB SLOAD SUB PUSH5 0x736F6C6343 STOP ADDMOD SLT STOP CALLER "},"methodIdentifiers":{"computeReceiptId(string,address)":"5221a21e","receipts(bytes32)":"ef6cf04d","registerEncryptedReceipt(bytes32,string,bytes32)":"01ca76df","updateAttestation(bytes32,bytes32)":"c03d83f0"}}}}}