{"contracts/arb/EncryptedReceiptRegistry.sol":{"EncryptedReceiptRegistry":{"abi":[{"anonymous":false,"inputs":[{"indexed":true,"internalType":"bytes32","name":"receiptId","type":"bytes32"},{"indexed":false,"internalType":"bytes32","name":"attestationHash","type":"bytes32"},{"indexed":true,"internalType":"address","name":"attestor","type":"address"},{"indexed":false,"internalType":"uint256","name":"ts","type":"uint256"}],"name":"ReceiptAttested","type":"event"},{"anonymous":false,"inputs":[{"indexed":true,"internalType":"bytes32","name":"receiptId","type":"bytes32"},{"indexed":false,"internalType":"string","name":"ipfsCID","type":"string"},{"indexed":false,"internalType":"bytes32","name":"merkleRoot","type":"bytes32"},{"indexed":true,"internalType":"address","name":"uploader","type":"address"},{"indexed":false,"internalType":"uint256","name":"ts","type":"uint256"}],"name":"ReceiptRegistered","type":"event"},{"inputs":[{"internalType":"string","name":"ipfsCID","type":"string"},{"internalType":"address","name":"uploader","type":"address"}],"name":"computeReceiptId","outputs":[{"internalType":"bytes32","name":"","type":"bytes32"}],"stateMutability":"pure","type":"function"},{"inputs":[{"internalType":"bytes32","name":"","type":"bytes32"}],"name":"receipts","outputs":[{"internalType":"bytes32","name":"id","type":"bytes32"},{"internalType":"string","name":"ipfsCID","type":"string"},{"internalType":"bytes32","name":"merkleRoot","type":"bytes32"},{"internalType":"bytes32","name":"attestationHash","type":"bytes32"},{"internalType":"uint256","name":"registeredAt","type":"uint256"},{"internalType":"uint256","name":"attestedAt","type":"uint256"},{"internalType":"address","name":"uploader","type":"address"}],"stateMutability":"view","type":"function"},{"inputs":[{"internalType":"bytes32","name":"receiptId","type":"bytes32"},{"internalType":"string","name":"ipfsCID","type":"string"},{"internalType":"bytes32","name":"merkleRoot","type":"bytes32"}],"name":"registerEncryptedReceipt","outputs":[],"stateMutability":"nonpayable","type":"function"},{"inputs":[{"internalType":"bytes32","name":"receiptId","type":"bytes32"},{"internalType":"bytes32","name":"attestationHash","type":"bytes32"}],"name":"updateAttestation","outputs":[],"stateMutability":"nonpayable","type":"function"}],"evm":{"bytecode":{"linkReferences":{},"object":"608060405234801561001057600080fd5b50611692806100206000396000f3fe608060405234801561001057600080fd5b506004361061004c5760003560e01c806301ca76df146100515780635221a21e1461006d578063c03d83f01461009d578063ef6cf04d146100b9575b600080fd5b61006b6004803603810190610066919061085d565b6100ef565b005b6100876004803603810190610082919061092f565b61032b565b604051610094919061099e565b60405180910390f35b6100b760048036038101906100b291906109b9565b610369565b005b6100d360048036038101906100ce91906109f9565b6104a6565b6040516100e69796959493929190610ade565b60405180910390f35b6000801b6000808681526020019081526020016000206000015414610149576040517f08c379a000000000000000000000000000000000000000000000000000000000815260040161014090610ba0565b60405180910390fd5b600061015684843361032b565b905084811461019a576040517f08c379a000000000000000000000000000000000000000000000000000000000815260040161019190610c0c565b60405180910390fd5b6040518060e0016040528086815260200185858080601f016020809104026020016040519081016040528093929190818152602001838380828437600081840152601f19601f8201169050808301925050505050505081526020018381526020016000801b8152602001428152602001600081526020013373ffffffffffffffffffffffffffffffffffffffff1681525060008087815260200190815260200160002060008201518160000155602082015181600101908161025c9190610e67565b5060408201518160020155606082015181600301556080820151816004015560a0820151816005015560c08201518160060160006101000a81548173ffffffffffffffffffffffffffffffffffffffff021916908373ffffffffffffffffffffffffffffffffffffffff1602179055509050503373ffffffffffffffffffffffffffffffffffffffff16857f801fbfe7a2075d128bf41f39b1cdb92f6e5d387d5d502a70a4b8852efb22c45c8686864260405161031c9493929190610f75565b60405180910390a35050505050565b6000838361033884610590565b60405160200161034a93929190611062565b6040516020818303038152906040528051906020012090509392505050565b6000801b60008084815260200190815260200160002060000154036103c3576040517f08c379a00000000000000000000000000000000000000000000000000000000081526004016103ba906110df565b60405180910390fd5b6000801b600080848152602001908152602001600020600301541461041d576040517f08c379a00000000000000000000000000000000000000000000000000000000081526004016104149061114b565b60405180910390fd5b806000808481526020019081526020016000206003018190555042600080848152602001908152602001600020600501819055503373ffffffffffffffffffffffffffffffffffffffff16827f8065d50c7119db75be7a97902337147f1e42c1af2425cb94398bb315e6495701834260405161049a92919061116b565b60405180910390a35050565b60006020528060005260406000206000915090508060000154908060010180546104cf90610c8a565b80601f01602080910402602001604051908101604052809291908181526020018280546104fb90610c8a565b80156105485780601f1061051d57610100808354040283529160200191610548565b820191906000526020600020905b81548152906001019060200180831161052b57829003601f168201915b5050505050908060020154908060030154908060040154908060050154908060060160009054906101000a900473ffffffffffffffffffffffffffffffffffffffff16905087565b60606000602867ffffffffffffffff8111156105af576105ae610c2c565b5b6040519080825280601f01601f1916602001820160405280156105e15781602001600182028036833780820191505090505b50905060005b60148110156107495760008160136105ff91906111c3565b600861060b91906111f7565b6002610617919061136c565b8573ffffffffffffffffffffffffffffffffffffffff1661063891906113e6565b60f81b9050600060108260f81c61064f9190611424565b60f81b905060008160f81c60106106669190611455565b8360f81c6106749190611492565b60f81b905061068282610772565b8585600261069091906111f7565b815181106106a1576106a06114c7565b5b60200101907effffffffffffffffffffffffffffffffffffffffffffffffffffffffffffff1916908160001a9053506106d981610772565b8560018660026106e991906111f7565b6106f391906114f6565b81518110610704576107036114c7565b5b60200101907effffffffffffffffffffffffffffffffffffffffffffffffffffffffffffff1916908160001a90535050505080806107419061152a565b9150506105e7565b508060405160200161075b9190611605565b604051602081830303815290604052915050919050565b6000600a8260f81c60ff16101561079d5760308260f81c6107939190611627565b60f81b90506107b3565b60578260f81c6107ad9190611627565b60f81b90505b919050565b600080fd5b600080fd5b6000819050919050565b6107d5816107c2565b81146107e057600080fd5b50565b6000813590506107f2816107cc565b92915050565b600080fd5b600080fd5b600080fd5b60008083601f84011261081d5761081c6107f8565b5b8235905067ffffffffffffffff81111561083a576108396107fd565b5b60208301915083600182028301111561085657610855610802565b5b9250929050565b60008060008060608587031215610877576108766107b8565b5b6000610885878288016107e3565b945050602085013567ffffffffffffffff8111156108a6576108a56107bd565b5b6108b287828801610807565b935093505060406108c5878288016107e3565b91505092959194509250565b600073ffffffffffffffffffffffffffffffffffffffff82169050919050565b60006108fc826108d1565b9050919050565b61090c816108f1565b811461091757600080fd5b50565b60008135905061092981610903565b92915050565b600080600060408486031215610948576109476107b8565b5b600084013567ffffffffffffffff811115610966576109656107bd565b5b61097286828701610807565b935093505060206109858682870161091a565b9150509250925092565b610998816107c2565b82525050565b60006020820190506109b3600083018461098f565b92915050565b600080604083850312156109d0576109cf6107b8565b5b60006109de858286016107e3565b92505060206109ef858286016107e3565b9150509250929050565b600060208284031215610a0f57610a0e6107b8565b5b6000610a1d848285016107e3565b91505092915050565b600081519050919050565b600082825260208201905092915050565b60005b83811015610a60578082015181840152602081019050610a45565b60008484015250505050565b6000601f19601f8301169050919050565b6000610a8882610a26565b610a928185610a31565b9350610aa2818560208601610a42565b610aab81610a6c565b840191505092915050565b6000819050919050565b610ac981610ab6565b82525050565b610ad8816108f1565b82525050565b600060e082019050610af3600083018a61098f565b8181036020830152610b058189610a7d565b9050610b14604083018861098f565b610b21606083018761098f565b610b2e6080830186610ac0565b610b3b60a0830185610ac0565b610b4860c0830184610acf565b98975050505050505050565b7f616c726561647920726567697374657265640000000000000000000000000000600082015250565b6000610b8a601283610a31565b9150610b9582610b54565b602082019050919050565b60006020820190508181036000830152610bb981610b7d565b9050919050565b7f726563656970744964206d69736d617463680000000000000000000000000000600082015250565b6000610bf6601283610a31565b9150610c0182610bc0565b602082019050919050565b60006020820190508181036000830152610c2581610be9565b9050919050565b7f4e487b7100000000000000000000000000000000000000000000000000000000600052604160045260246000fd5b7f4e487b7100000000000000000000000000000000000000000000000000000000600052602260045260246000fd5b60006002820490506001821680610ca257607f821691505b602082108103610cb557610cb4610c5b565b5b50919050565b60008190508160005260206000209050919050565b60006020601f8301049050919050565b600082821b905092915050565b600060088302610d1d7fffffffffffffffffffffffffffffffffffffffffffffffffffffffffffffffff82610ce0565b610d278683610ce0565b95508019841693508086168417925050509392505050565b6000819050919050565b6000610d64610d5f610d5a84610ab6565b610d3f565b610ab6565b9050919050565b6000819050919050565b610d7e83610d49565b610d92610d8a82610d6b565b848454610ced565b825550505050565b600090565b610da7610d9a565b610db2818484610d75565b505050565b5b81811015610dd657610dcb600082610d9f565b600181019050610db8565b5050565b601f821115610e1b57610dec81610cbb565b610df584610cd0565b81016020851015610e04578190505b610e18610e1085610cd0565b830182610db7565b50505b505050565b600082821c905092915050565b6000610e3e60001984600802610e20565b1980831691505092915050565b6000610e578383610e2d565b9150826002028217905092915050565b610e7082610a26565b67ffffffffffffffff811115610e8957610e88610c2c565b5b610e938254610c8a565b610e9e828285610dda565b600060209050601f831160018114610ed15760008415610ebf578287015190505b610ec98582610e4b565b865550610f31565b601f198416610edf86610cbb565b60005b82811015610f0757848901518255600182019150602085019450602081019050610ee2565b86831015610f245784890151610f20601f891682610e2d565b8355505b6001600288020188555050505b505050505050565b82818337600083830152505050565b6000610f548385610a31565b9350610f61838584610f39565b610f6a83610a6c565b840190509392505050565b60006060820190508181036000830152610f90818688610f48565b9050610f9f602083018561098f565b610fac6040830184610ac0565b95945050505050565b600081905092915050565b6000610fcc8385610fb5565b9350610fd9838584610f39565b82840190509392505050565b7f7c00000000000000000000000000000000000000000000000000000000000000600082015250565b600061101b600183610fb5565b915061102682610fe5565b600182019050919050565b600061103c82610a26565b6110468185610fb5565b9350611056818560208601610a42565b80840191505092915050565b600061106f828587610fc0565b915061107a8261100e565b91506110868284611031565b9150819050949350505050565b7f6e6f742072656769737465726564000000000000000000000000000000000000600082015250565b60006110c9600e83610a31565b91506110d482611093565b602082019050919050565b600060208201905081810360008301526110f8816110bc565b9050919050565b7f616c726561647920617474657374656400000000000000000000000000000000600082015250565b6000611135601083610a31565b9150611140826110ff565b602082019050919050565b6000602082019050818103600083015261116481611128565b9050919050565b6000604082019050611180600083018561098f565b61118d6020830184610ac0565b9392505050565b7f4e487b7100000000000000000000000000000000000000000000000000000000600052601160045260246000fd5b60006111ce82610ab6565b91506111d983610ab6565b92508282039050818111156111f1576111f0611194565b5b92915050565b600061120282610ab6565b915061120d83610ab6565b925082820261121b81610ab6565b9150828204841483151761123257611231611194565b5b5092915050565b60008160011c9050919050565b6000808291508390505b60018511156112905780860481111561126c5761126b611194565b5b600185161561127b5780820291505b808102905061128985611239565b9450611250565b94509492505050565b6000826112a95760019050611365565b816112b75760009050611365565b81600181146112cd57600281146112d757611306565b6001915050611365565b60ff8411156112e9576112e8611194565b5b8360020a915084821115611300576112ff611194565b5b50611365565b5060208310610133831016604e8410600b841016171561133b5782820a90508381111561133657611335611194565b5b611365565b6113488484846001611246565b9250905081840481111561135f5761135e611194565b5b81810290505b9392505050565b600061137782610ab6565b915061138283610ab6565b92506113af7fffffffffffffffffffffffffffffffffffffffffffffffffffffffffffffffff8484611299565b905092915050565b7f4e487b7100000000000000000000000000000000000000000000000000000000600052601260045260246000fd5b60006113f182610ab6565b91506113fc83610ab6565b92508261140c5761140b6113b7565b5b828204905092915050565b600060ff82169050919050565b600061142f82611417565b915061143a83611417565b92508261144a576114496113b7565b5b828204905092915050565b600061146082611417565b915061146b83611417565b925082820261147981611417565b915080821461148b5761148a611194565b5b5092915050565b600061149d82611417565b91506114a883611417565b9250828203905060ff8111156114c1576114c0611194565b5b92915050565b7f4e487b7100000000000000000000000000000000000000000000000000000000600052603260045260246000fd5b600061150182610ab6565b915061150c83610ab6565b925082820190508082111561152457611523611194565b5b92915050565b600061153582610ab6565b91507fffffffffffffffffffffffffffffffffffffffffffffffffffffffffffffffff820361156757611566611194565b5b600182019050919050565b7f3078000000000000000000000000000000000000000000000000000000000000600082015250565b60006115a8600283610fb5565b91506115b382611572565b600282019050919050565b600081519050919050565b600081905092915050565b60006115df826115be565b6115e981856115c9565b93506115f9818560208601610a42565b80840191505092915050565b60006116108261159b565b915061161c82846115d4565b915081905092915050565b600061163282611417565b915061163d83611417565b9250828201905060ff81111561165657611655611194565b5b9291505056fea264697066735822122051f76081a41147d79e63cccd7f33aff80a9254cd37fc7bee8ceba4be6ef39acf64736f6c63430008120033","opcodes":"PUSH1 0x80 PUSH1 0x40 MSTORE CALLVALUE DUP1 ISZERO PUSH2 0x10 JUMPI PUSH1 0x0 DUP1 REVERT JUMPDEST POP PUSH2 0x1692 DUP1 PUSH2 0x20 PUSH1 0x0 CODECOPY PUSH1 0x0 RETURN INVALID PUSH1 0x80 PUSH1 0x40 MSTORE CALLVALUE DUP1 ISZERO PUSH2 0x10 JUMPI PUSH1 0x0 DUP1 REVERT JUMPDEST POP PUSH1 0x4 CALLDATASIZE LT PUSH2 0x4C JUMPI PUSH1 0x0 CALLDATALOAD PUSH1 0xE0 SHR DUP1 PUSH4 0x1CA76DF EQ PUSH2 0x51 JUMPI DUP1 PUSH4 0x5221A21E EQ PUSH2 0x6D JUMPI DUP1 PUSH4 0xC03D83F0 EQ PUSH2 0x9D JUMPI DUP1 PUSH4 0xEF6CF04D EQ PUSH2 0xB9 JUMPI JUMPDEST PUSH1 0x0 DUP1 REVERT JUMPDEST PUSH2 0x6B PUSH1 0x4 DUP1 CALLDATASIZE SUB DUP2 ADD SWAP1 PUSH2 0x66 SWAP2 SWAP1 PUSH2 0x85D JUMP JUMPDEST PUSH2 0xEF JUMP JUMPDEST STOP JUMPDEST PUSH2 0x87 PUSH1 0x4 DUP1 CALLDATASIZE SUB DUP2 ADD SWAP1 PUSH2 0x82 SWAP2 SWAP1 PUSH2 0x92F JUMP JUMPDEST PUSH2 0x32B JUMP JUMPDEST PUSH1 0x40 MLOAD PUSH2 0x94 SWAP2 SWAP1 PUSH2 0x99E JUMP JUMPDEST PUSH1 0x40 MLOAD DUP1 SWAP2 SUB SWAP1 RETURN JUMPDEST PUSH2 0xB7 PUSH1 0x4 DUP1 CALLDATASIZE SUB DUP2 ADD SWAP1 PUSH2 0xB2 SWAP2 SWAP1 PUSH2 0x9B9 JUMP JUMPDEST PUSH2 0x369 JUMP JUMPDEST STOP JUMPDEST PUSH2 0xD3 PUSH1 0x4 DUP1 CALLDATASIZE SUB DUP2 ADD SWAP1 PUSH2 0xCE SWAP2 SWAP1 PUSH2 0x9F9 JUMP JUMPDEST PUSH2 0x4A6 JUMP JUMPDEST PUSH1 0x40 MLOAD PUSH2 0xE6 SWAP8 SWAP7 SWAP6 SWAP5 SWAP4 SWAP3 SWAP2 SWAP1 PUSH2 0xADE JUMP JUMPDEST PUSH1 0x40 MLOAD DUP1 SWAP2 SUB SWAP1 RETURN JUMPDEST PUSH1 0x0 DUP1 SHL PUSH1 0x0 DUP1 DUP7 DUP2 MSTORE PUSH1 0x20 ADD SWAP1 DUP2 MSTORE PUSH1 0x20 ADD PUSH1 0x0 KECCAK256 PUSH1 0x0 ADD SLOAD EQ PUSH2 0x149 JUMPI PUSH1 0x40 MLOAD PUSH32 0x8C379A000000000000000000000000000000000000000000000000000000000 DUP2 MSTORE PUSH1 0x4 ADD PUSH2 0x140 SWAP1 PUSH2 0xBA0 JUMP JUMPDEST PUSH1 0x40 MLOAD DUP1 SWAP2 SUB SWAP1 REVERT JUMPDEST PUSH1 0x0 PUSH2 0x156 DUP5 DUP5 CALLER PUSH2 0x32B JUMP JUMPDEST SWAP1 POP DUP5 DUP2 EQ PUSH2 0x19A JUMPI PUSH1 0x40 MLOAD PUSH32 0x8C379A000000000000000000000000000000000000000000000000000000000 DUP2 MSTORE PUSH1 0x4 ADD PUSH2 0x191 SWAP1 PUSH2 0xC0C JUMP JUMPDEST PUSH1 0x40 MLOAD DUP1 SWAP2 SUB SWAP1 REVERT JUMPDEST PUSH1 0x40 MLOAD DUP1 PUSH1 0xE0 ADD PUSH1 0x40 MSTORE DUP1 DUP7 DUP2 MSTORE PUSH1 0x20 ADD DUP6 DUP6 DUP1 DUP1 PUSH1 0x1F ADD PUSH1 0x20 DUP1 SWAP2 DIV MUL PUSH1 0x20 ADD PUSH1 0x40 MLOAD SWAP1 DUP2 ADD PUSH1 0x40 MSTORE DUP1 SWAP4 SWAP3 SWAP2 SWAP1 DUP2 DUP2 MSTORE PUSH1 0x20 ADD DUP4 DUP4 DUP1 DUP3 DUP5 CALLDATACOPY PUSH1 0x0 DUP2 DUP5 ADD MSTORE PUSH1 0x1F NOT PUSH1 0x1F DUP3 ADD AND SWAP1 POP DUP1 DUP4 ADD SWAP3 POP POP POP POP POP POP POP DUP2 MSTORE PUSH1 0x20 ADD DUP4 DUP2 MSTORE PUSH1 0x20 ADD PUSH1 0x0 DUP1 SHL DUP2 MSTORE PUSH1 0x20 ADD TIMESTAMP DUP2 MSTORE PUSH1 0x20 ADD PUSH1 0x0 DUP2 MSTORE PUSH1 0x20 ADD CALLER PUSH20 0xFFFFFFFFFFFFFFFFFFFFFFFFFFFFFFFFFFFFFFFF AND DUP2 MSTORE POP PUSH1 0x0 DUP1 DUP8 DUP2 MSTORE PUSH1 0x20 ADD SWAP1 DUP2 MSTORE PUSH1 0x20 ADD PUSH1 0x0 KECCAK256 PUSH1 0x0 DUP3 ADD MLOAD DUP2 PUSH1 0x0 ADD SSTORE PUSH1 0x20 DUP3 ADD MLOAD DUP2 PUSH1 0x1 ADD SWAP1 DUP2 PUSH2 0x25C SWAP2 SWAP1 PUSH2 0xE67 JUMP JUMPDEST POP PUSH1 0x40 DUP3 ADD MLOAD DUP2 PUSH1 0x2 ADD SSTORE PUSH1 0x60 DUP3 ADD MLOAD DUP2 PUSH1 0x3 ADD SSTORE PUSH1 0x80 DUP3 ADD MLOAD DUP2 PUSH1 0x4 ADD SSTORE PUSH1 0xA0 DUP3 ADD MLOAD DUP2 PUSH1 0x5 ADD SSTORE PUSH1 0xC0 DUP3 ADD MLOAD DUP2 PUSH1 0x6 ADD PUSH1 0x0 PUSH2 0x100 EXP DUP2 SLOAD DUP2 PUSH20 0xFFFFFFFFFFFFFFFFFFFFFFFFFFFFFFFFFFFFFFFF MUL NOT AND SWAP1 DUP4 PUSH20 0xFFFFFFFFFFFFFFFFFFFFFFFFFFFFFFFFFFFFFFFF AND MUL OR SWAP1 SSTORE POP SWAP1 POP POP CALLER PUSH20 0xFFFFFFFFFFFFFFFFFFFFFFFFFFFFFFFFFFFFFFFF AND DUP6 PUSH32 0x801FBFE7A2075D128BF41F39B1CDB92F6E5D387D5D502A70A4B8852EFB22C45C DUP7 DUP7 DUP7 TIMESTAMP PUSH1 0x40 MLOAD PUSH2 0x31C SWAP5 SWAP4 SWAP3 SWAP2 SWAP1 PUSH2 0xF75 JUMP JUMPDEST PUSH1 0x40 MLOAD DUP1 SWAP2 SUB SWAP1 LOG3 POP POP POP POP POP JUMP JUMPDEST PUSH1 0x0 DUP4 DUP4 PUSH2 0x338 DUP5 PUSH2 0x590 JUMP JUMPDEST PUSH1 0x40 MLOAD PUSH1 0x20 ADD PUSH2 0x34A SWAP4 SWAP3 SWAP2 SWAP1 PUSH2 0x1062 JUMP JUMPDEST PUSH1 0x40 MLOAD PUSH1 0x20 DUP2 DUP4 SUB SUB DUP2 MSTORE SWAP1 PUSH1 0x40 MSTORE DUP1 MLOAD SWAP1 PUSH1 0x20 ADD KECCAK256 SWAP1 POP SWAP4 SWAP3 POP POP POP JUMP JUMPDEST PUSH1 0x0 DUP1 SHL PUSH1 0x0 DUP1 DUP5 DUP2 MSTORE PUSH1 0x20 ADD SWAP1 DUP2 MSTORE PUSH1 0x20 ADD PUSH1 0x0 KECCAK256 PUSH1 0x0 ADD SLOAD SUB PUSH2 0x3C3 JUMPI PUSH1 0x40 MLOAD PUSH32 0x8C379A000000000000000000000000000000000000000000000000000000000 DUP2 MSTORE PUSH1 0x4 ADD PUSH2 0x3BA SWAP1 PUSH2 0x10DF JUMP JUMPDEST PUSH1 0x40 MLOAD DUP1 SWAP2 SUB SWAP1 REVERT JUMPDEST PUSH1 0x0 DUP1 SHL PUSH1 0x0 DUP1 DUP5 DUP2 MSTORE PUSH1 0x20 ADD SWAP1 DUP2 MSTORE PUSH1 0x20 ADD PUSH1 0x0 KECCAK256 PUSH1 0x3 ADD SLOAD EQ PUSH2 0x41D JUMPI PUSH1 0x40 MLOAD PUSH32 0x8C379A000000000000000000000000000000000000000000000000000000000 DUP2 MSTORE PUSH1 0x4 ADD PUSH2 0x414 SWAP1 PUSH2 0x114B JUMP JUMPDEST PUSH1 0x40 MLOAD DUP1 SWAP2 SUB SWAP1 REVERT JUMPDEST DUP1 PUSH1 0x0 DUP1 DUP5 DUP2 MSTORE PUSH1 0x20 ADD SWAP1 DUP2 MSTORE PUSH1 0x20 ADD PUSH1 0x0 KECCAK256 PUSH1 0x3 ADD DUP2 SWAP1 SSTORE POP TIMESTAMP PUSH1 0x0 DUP1 DUP5 DUP2 MSTORE PUSH1 0x20 ADD SWAP1 DUP2 MSTORE PUSH1 0x20 ADD PUSH1 0x0 KECCAK256 PUSH1 0x5 ADD DUP2 SWAP1 SSTORE POP CALLER PUSH20 0xFFFFFFFFFFFFFFFFFFFFFFFFFFFFFFFFFFFFFFFF AND DUP3 PUSH32 0x8065D50C7119DB75BE7A97902337147F1E42C1AF2425CB94398BB315E6495701 DUP4 TIMESTAMP PUSH1 0x40 MLOAD PUSH2 0x49A SWAP3 SWAP2 SWAP1 PUSH2 0x116B JUMP JUMPDEST PUSH1 0x40 MLOAD DUP1 SWAP2 SUB SWAP1 LOG3 POP POP JUMP JUMPDEST PUSH1 0x0 PUSH1 0x20 MSTORE DUP1 PUSH1 0x0 MSTORE PUSH1 0x40 PUSH1 0x0 KECCAK256 PUSH1 0x0 SWAP2 POP SWAP1 POP DUP1 PUSH1 0x0 ADD SLOAD SWAP1 DUP1 PUSH1 0x1 ADD DUP1 SLOAD PUSH2 0x4CF SWAP1 PUSH2 0xC8A JUMP JUMPDEST DUP1 PUSH1 0x1F ADD PUSH1 0x20 DUP1 SWAP2 DIV MUL PUSH1 0x20 ADD PUSH1 0x40 MLOAD SWAP1 DUP2 ADD PUSH1 0x40 MSTORE DUP1 SWAP3 SWAP2 SWAP1 DUP2 DUP2 MSTORE PUSH1 0x20 ADD DUP3 DUP1 SLOAD PUSH2 0x4FB SWAP1 PUSH2 0xC8A JUMP JUMPDEST DUP1 ISZERO PUSH2 0x548 JUMPI DUP1 PUSH1 0x1F LT PUSH2 0x51D JUMPI PUSH2 0x100 DUP1 DUP4 SLOAD DIV MUL DUP4 MSTORE SWAP2 PUSH1 0x20 ADD SWAP2 PUSH2 0x548 JUMP JUMPDEST DUP3 ADD SWAP2 SWAP1 PUSH1 0x0 MSTORE PUSH1 0x20 PUSH1 0x0 KECCAK256 SWAP1 JUMPDEST DUP2 SLOAD DUP2 MSTORE SWAP1 PUSH1 0x1 ADD SWAP1 PUSH1 0x20 ADD DUP1 DUP4 GT PUSH2 0x52B JUMPI DUP3 SWAP1 SUB PUSH1 0x1F AND DUP3 ADD SWAP2 JUMPDEST POP POP POP POP POP SWAP1 DUP1 PUSH1 0x2 ADD SLOAD SWAP1 DUP1 PUSH1 0x3 ADD SLOAD SWAP1 DUP1 PUSH1 0x4 ADD SLOAD SWAP1 DUP1 PUSH1 0x5 ADD SLOAD SWAP1 DUP1 PUSH1 0x6 ADD PUSH1 0x0 SWAP1 SLOAD SWAP1 PUSH2 0x100 EXP SWAP1 DIV PUSH20 0xFFFFFFFFFFFFFFFFFFFFFFFFFFFFFFFFFFFFFFFF AND SWAP1 POP DUP8 JUMP JUMPDEST PUSH1 0x60 PUSH1 0x0 PUSH1 0x28 PUSH8 0xFFFFFFFFFFFFFFFF DUP2 GT ISZERO PUSH2 0x5AF JUMPI PUSH2 0x5AE PUSH2 0xC2C JUMP JUMPDEST JUMPDEST PUSH1 0x40 MLOAD SWAP1 DUP1 DUP3 MSTORE DUP1 PUSH1 0x1F ADD PUSH1 0x1F NOT AND PUSH1 0x20 ADD DUP3 ADD PUSH1 0x40 MSTORE DUP1 ISZERO PUSH2 0x5E1 JUMPI DUP2 PUSH1 0x20 ADD PUSH1 0x1 DUP3 MUL DUP1 CALLDATASIZE DUP4 CALLDATACOPY DUP1 DUP3 ADD SWAP2 POP POP SWAP1 POP JUMPDEST POP SWAP1 POP PUSH1 0x0 JUMPDEST PUSH1 0x14 DUP2 LT ISZERO PUSH2 0x749 JUMPI PUSH1 0x0 DUP2 PUSH1 0x13 PUSH2 0x5FF SWAP2 SWAP1 PUSH2 0x11C3 JUMP JUMPDEST PUSH1 0x8 PUSH2 0x60B SWAP2 SWAP1 PUSH2 0x11F7 JUMP JUMPDEST PUSH1 0x2 PUSH2 0x617 SWAP2 SWAP1 PUSH2 0x136C JUMP JUMPDEST DUP6 PUSH20 0xFFFFFFFFFFFFFFFFFFFFFFFFFFFFFFFFFFFFFFFF AND PUSH2 0x638 SWAP2 SWAP1 PUSH2 0x13E6 JUMP JUMPDEST PUSH1 0xF8 SHL SWAP1 POP PUSH1 0x0 PUSH1 0x10 DUP3 PUSH1 0xF8 SHR PUSH2 0x64F SWAP2 SWAP1 PUSH2 0x1424 JUMP JUMPDEST PUSH1 0xF8 SHL SWAP1 POP PUSH1 0x0 DUP2 PUSH1 0xF8 SHR PUSH1 0x10 PUSH2 0x666 SWAP2 SWAP1 PUSH2 0x1455 JUMP JUMPDEST DUP4 PUSH1 0xF8 SHR PUSH2 0x674 SWAP2 SWAP1 PUSH2 0x1492 JUMP JUMPDEST PUSH1 0xF8 SHL SWAP1 POP PUSH2 0x682 DUP3 PUSH2 0x772 JUMP JUMPDEST DUP6 DUP6 PUSH1 0x2 PUSH2 0x690 SWAP2 SWAP1 PUSH2 0x11F7 JUMP JUMPDEST DUP2 MLOAD DUP2 LT PUSH2 0x6A1 JUMPI PUSH2 0x6A0 PUSH2 0x14C7 JUMP JUMPDEST JUMPDEST PUSH1 0x20 ADD ADD SWAP1 PUSH31 0xFFFFFFFFFFFFFFFFFFFFFFFFFFFFFFFFFFFFFFFFFFFFFFFFFFFFFFFFFFFFFF NOT AND SWAP1 DUP2 PUSH1 0x0 BYTE SWAP1 MSTORE8 POP PUSH2 0x6D9 DUP2 PUSH2 0x772 JUMP JUMPDEST DUP6 PUSH1 0x1 DUP7 PUSH1 0x2 PUSH2 0x6E9 SWAP2 SWAP1 PUSH2 0x11F7 JUMP JUMPDEST PUSH2 0x6F3 SWAP2 SWAP1 PUSH2 0x14F6 JUMP JUMPDEST DUP2 MLOAD DUP2 LT PUSH2 0x704 JUMPI PUSH2 0x703 PUSH2 0x14C7 JUMP JUMPDEST JUMPDEST PUSH1 0x20 ADD ADD SWAP1 PUSH31 0xFFFFFFFFFFFFFFFFFFFFFFFFFFFFFFFFFFFFFFFFFFFFFFFFFFFFFFFFFFFFFF NOT AND SWAP1 DUP2 PUSH1 0x0 BYTE SWAP1 MSTORE8 POP POP POP POP DUP1 DUP1 PUSH2 0x741 SWAP1 PUSH2 0x152A JUMP JUMPDEST SWAP2 POP POP PUSH2 0x5E7 JUMP JUMPDEST POP DUP1 PUSH1 0x40 MLOAD PUSH1 0x20 ADD PUSH2 0x75B SWAP2 SWAP1 PUSH2 0x1605 JUMP JUMPDEST PUSH1 0x40 MLOAD PUSH1 0x20 DUP2 DUP4 SUB SUB DUP2 MSTORE SWAP1 PUSH1 0x40 MSTORE SWAP2 POP POP SWAP2 SWAP1 POP JUMP JUMPDEST PUSH1 0x0 PUSH1 0xA DUP3 PUSH1 0xF8 SHR PUSH1 0xFF AND LT ISZERO PUSH2 0x79D JUMPI PUSH1 0x30 DUP3 PUSH1 0xF8 SHR PUSH2 0x793 SWAP2 SWAP1 PUSH2 0x1627 JUMP JUMPDEST PUSH1 0xF8 SHL SWAP1 POP PUSH2 0x7B3 JUMP JUMPDEST PUSH1 0x57 DUP3 PUSH1 0xF8 SHR PUSH2 0x7AD SWAP2 SWAP1 PUSH2 0x1627 JUMP JUMPDEST PUSH1 0xF8 SHL SWAP1 POP JUMPDEST SWAP2 SWAP1 POP JUMP JUMPDEST PUSH1 0x0 DUP1 REVERT JUMPDEST PUSH1 0x0 DUP1 REVERT JUMPDEST PUSH1 0x0 DUP2 SWAP1 POP SWAP2 SWAP1 POP JUMP JUMPDEST PUSH2 0x7D5 DUP2 PUSH2 0x7C2 JUMP JUMPDEST DUP2 EQ PUSH2 0x7E0 JUMPI PUSH1 0x0 DUP1 REVERT JUMPDEST POP JUMP JUMPDEST PUSH1 0x0 DUP2 CALLDATALOAD SWAP1 POP PUSH2 0x7F2 DUP2 PUSH2 0x7CC JUMP JUMPDEST SWAP3 SWAP2 POP POP JUMP JUMPDEST PUSH1 0x0 DUP1 REVERT JUMPDEST PUSH1 0x0 DUP1 REVERT JUMPDEST PUSH1 0x0 DUP1 REVERT JUMPDEST PUSH1 0x0 DUP1 DUP4 PUSH1 0x1F DUP5 ADD SLT PUSH2 0x81D JUMPI PUSH2 0x81C PUSH2 0x7F8 JUMP JUMPDEST JUMPDEST DUP3 CALLDATALOAD SWAP1 POP PUSH8 0xFFFFFFFFFFFFFFFF DUP2 GT ISZERO PUSH2 0x83A JUMPI PUSH2 0x839 PUSH2 0x7FD JUMP JUMPDEST JUMPDEST PUSH1 0x20 DUP4 ADD SWAP2 POP DUP4 PUSH1 0x1 DUP3 MUL DUP4 ADD GT ISZERO PUSH2 0x856 JUMPI PUSH2 0x855 PUSH2 0x802 JUMP JUMPDEST JUMPDEST SWAP3 POP SWAP3 SWAP1 POP JUMP JUMPDEST PUSH1 0x0 DUP1 PUSH1 0x0 DUP1 PUSH1 0x60 DUP6 DUP8 SUB SLT ISZERO PUSH2 0x877 JUMPI PUSH2 0x876 PUSH2 0x7B8 JUMP JUMPDEST JUMPDEST PUSH1 0x0 PUSH2 0x885 DUP8 DUP3 DUP9 ADD PUSH2 0x7E3 JUMP JUMPDEST SWAP5 POP POP PUSH1 0x20 DUP6 ADD CALLDATALOAD PUSH8 0xFFFFFFFFFFFFFFFF DUP2 GT ISZERO PUSH2 0x8A6 JUMPI PUSH2 0x8A5 PUSH2 0x7BD JUMP JUMPDEST JUMPDEST PUSH2 0x8B2 DUP8 DUP3 DUP9 ADD PUSH2 0x807 JUMP JUMPDEST SWAP4 POP SWAP4 POP POP PUSH1 0x40 PUSH2 0x8C5 DUP8 DUP3 DUP9 ADD PUSH2 0x7E3 JUMP JUMPDEST SWAP2 POP POP SWAP3 SWAP6 SWAP2 SWAP5 POP SWAP3 POP JUMP JUMPDEST PUSH1 0x0 PUSH20 0xFFFFFFFFFFFFFFFFFFFFFFFFFFFFFFFFFFFFFFFF DUP3 AND SWAP1 POP SWAP2 SWAP1 POP JUMP JUMPDEST PUSH1 0x0 PUSH2 0x8FC DUP3 PUSH2 0x8D1 JUMP JUMPDEST SWAP1 POP SWAP2 SWAP1 POP JUMP JUMPDEST PUSH2 0x90C DUP2 PUSH2 0x8F1 JUMP JUMPDEST DUP2 EQ PUSH2 0x917 JUMPI PUSH1 0x0 DUP1 REVERT JUMPDEST POP JUMP JUMPDEST PUSH1 0x0 DUP2 CALLDATALOAD SWAP1 POP PUSH2 0x929 DUP2 PUSH2 0x903 JUMP JUMPDEST SWAP3 SWAP2 POP POP JUMP JUMPDEST PUSH1 0x0 DUP1 PUSH1 0x0 PUSH1 0x40 DUP5 DUP7 SUB SLT ISZERO PUSH2 0x948 JUMPI PUSH2 0x947 PUSH2 0x7B8 JUMP JUMPDEST JUMPDEST PUSH1 0x0 DUP5 ADD CALLDATALOAD PUSH8 0xFFFFFFFFFFFFFFFF DUP2 GT ISZERO PUSH2 0x966 JUMPI PUSH2 0x965 PUSH2 0x7BD JUMP JUMPDEST JUMPDEST PUSH2 0x972 DUP7 DUP3 DUP8 ADD PUSH2 0x807 JUMP JUMPDEST SWAP4 POP SWAP4 POP POP PUSH1 0x20 PUSH2 0x985 DUP7 DUP3 DUP8 ADD PUSH2 0x91A JUMP JUMPDEST SWAP2 POP POP SWAP3 POP SWAP3 POP SWAP3 JUMP JUMPDEST PUSH2 0x998 DUP2 PUSH2 0x7C2 JUMP JUMPDEST DUP3 MSTORE POP POP JUMP JUMPDEST PUSH1 0x0 PUSH1 0x20 DUP3 ADD SWAP1 POP PUSH2 0x9B3 PUSH1 0x0 DUP4 ADD DUP5 PUSH2 0x98F JUMP JUMPDEST SWAP3 SWAP2 POP POP JUMP JUMPDEST PUSH1 0x0 DUP1 PUSH1 0x40 DUP4 DUP6 SUB SLT ISZERO PUSH2 0x9D0 JUMPI PUSH2 0x9CF PUSH2 0x7B8 JUMP JUMPDEST JUMPDEST PUSH1 0x0 PUSH2 0x9DE DUP6 DUP3 DUP7 ADD PUSH2 0x7E3 JUMP JUMPDEST SWAP3 POP POP PUSH1 0x20 PUSH2 0x9EF DUP6 DUP3 DUP7 ADD PUSH2 0x7E3 JUMP JUMPDEST SWAP2 POP POP SWAP3 POP SWAP3 SWAP1 POP JUMP JUMPDEST PUSH1 0x0 PUSH1 0x20 DUP3 DUP5 SUB SLT ISZERO PUSH2 0xA0F JUMPI PUSH2 0xA0E PUSH2 0x7B8 JUMP JUMPDEST JUMPDEST PUSH1 0x0 PUSH2 0xA1D DUP5 DUP3 DUP6 ADD PUSH2 0x7E3 JUMP JUMPDEST SWAP2 POP POP SWAP3 SWAP2 POP POP JUMP JUMPDEST PUSH1 0x0 DUP2 MLOAD SWAP1 POP SWAP2 SWAP1 POP JUMP JUMPDEST PUSH1 0x0 DUP3 DUP3 MSTORE PUSH1 0x20 DUP3 ADD SWAP1 POP SWAP3 SWAP2 POP POP JUMP JUMPDEST PUSH1 0x0 JUMPDEST DUP4 DUP2 LT ISZERO PUSH2 0xA60 JUMPI DUP1 DUP3 ADD MLOAD DUP2 DUP5 ADD MSTORE PUSH1 0x20 DUP2 ADD SWAP1 POP PUSH2 0xA45 JUMP JUMPDEST PUSH1 0x0 DUP5 DUP5 ADD MSTORE POP POP POP POP JUMP JUMPDEST PUSH1 0x0 PUSH1 0x1F NOT PUSH1 0x1F DUP4 ADD AND SWAP1 POP SWAP2 SWAP1 POP JUMP JUMPDEST PUSH1 0x0 PUSH2 0xA88 DUP3 PUSH2 0xA26 JUMP JUMPDEST PUSH2 0xA92 DUP2 DUP6 PUSH2 0xA31 JUMP JUMPDEST SWAP4 POP PUSH2 0xAA2 DUP2 DUP6 PUSH1 0x20 DUP7 ADD PUSH2 0xA42 JUMP JUMPDEST PUSH2 0xAAB DUP2 PUSH2 0xA6C JUMP JUMPDEST DUP5 ADD SWAP2 POP POP SWAP3 SWAP2 POP POP JUMP JUMPDEST PUSH1 0x0 DUP2 SWAP1 POP SWAP2 SWAP1 POP JUMP JUMPDEST PUSH2 0xAC9 DUP2 PUSH2 0xAB6 JUMP JUMPDEST DUP3 MSTORE POP POP JUMP JUMPDEST PUSH2 0xAD8 DUP2 PUSH2 0x8F1 JUMP JUMPDEST DUP3 MSTORE POP POP JUMP JUMPDEST PUSH1 0x0 PUSH1 0xE0 DUP3 ADD SWAP1 POP PUSH2 0xAF3 PUSH1 0x0 DUP4 ADD DUP11 PUSH2 0x98F JUMP JUMPDEST DUP2 DUP2 SUB PUSH1 0x20 DUP4 ADD MSTORE PUSH2 0xB05 DUP2 DUP10 PUSH2 0xA7D JUMP JUMPDEST SWAP1 POP PUSH2 0xB14 PUSH1 0x40 DUP4 ADD DUP9 PUSH2 0x98F JUMP JUMPDEST PUSH2 0xB21 PUSH1 0x60 DUP4 ADD DUP8 PUSH2 0x98F JUMP JUMPDEST PUSH2 0xB2E PUSH1 0x80 DUP4 ADD DUP7 PUSH2 0xAC0 JUMP JUMPDEST PUSH2 0xB3B PUSH1 0xA0 DUP4 ADD DUP6 PUSH2 0xAC0 JUMP JUMPDEST PUSH2 0xB48 PUSH1 0xC0 DUP4 ADD DUP5 PUSH2 0xACF JUMP JUMPDEST SWAP9 SWAP8 POP POP POP POP POP POP POP POP JUMP JUMPDEST PUSH32 0x616C726561647920726567697374657265640000000000000000000000000000 PUSH1 0x0 DUP3 ADD MSTORE POP JUMP JUMPDEST PUSH1 0x0 PUSH2 0xB8A PUSH1 0x12 DUP4 PUSH2 0xA31 JUMP JUMPDEST SWAP2 POP PUSH2 0xB95 DUP3 PUSH2 0xB54 JUMP JUMPDEST PUSH1 0x20 DUP3 ADD SWAP1 POP SWAP2 SWAP1 POP JUMP JUMPDEST PUSH1 0x0 PUSH1 0x20 DUP3 ADD SWAP1 POP DUP2 DUP2 SUB PUSH1 0x0 DUP4 ADD MSTORE PUSH2 0xBB9 DUP2 PUSH2 0xB7D JUMP JUMPDEST SWAP1 POP SWAP2 SWAP1 POP JUMP JUMPDEST PUSH32 0x726563656970744964206D69736D617463680000000000000000000000000000 PUSH1 0x0 DUP3 ADD MSTORE POP JUMP JUMPDEST PUSH1 0x0 PUSH2 0xBF6 PUSH1 0x12 DUP4 PUSH2 0xA31 JUMP JUMPDEST SWAP2 POP PUSH2 0xC01 DUP3 PUSH2 0xBC0 JUMP JUMPDEST PUSH1 0x20 DUP3 ADD SWAP1 POP SWAP2 SWAP1 POP JUMP JUMPDEST PUSH1 0x0 PUSH1 0x20 DUP3 ADD SWAP1 POP DUP2 DUP2 SUB PUSH1 0x0 DUP4 ADD MSTORE PUSH2 0xC25 DUP2 PUSH2 0xBE9 JUMP JUMPDEST SWAP1 POP SWAP2 SWAP1 POP JUMP JUMPDEST PUSH32 0x4E487B7100000000000000000000000000000000000000000000000000000000 PUSH1 0x0 MSTORE PUSH1 0x41 PUSH1 0x4 MSTORE PUSH1 0x24 PUSH1 0x0 REVERT JUMPDEST PUSH32 0x4E487B7100000000000000000000000000000000000000000000000000000000 PUSH1 0x0 MSTORE PUSH1 0x22 PUSH1 0x4 MSTORE PUSH1 0x24 PUSH1 0x0 REVERT JUMPDEST PUSH1 0x0 PUSH1 0x2 DUP3 DIV SWAP1 POP PUSH1 0x1 DUP3 AND DUP1 PUSH2 0xCA2 JUMPI PUSH1 0x7F DUP3 AND SWAP2 POP JUMPDEST PUSH1 0x20 DUP3 LT DUP2 SUB PUSH2 0xCB5 JUMPI PUSH2 0xCB4 PUSH2 0xC5B JUMP JUMPDEST JUMPDEST POP SWAP2 SWAP1 POP JUMP JUMPDEST PUSH1 0x0 DUP2 SWAP1 POP DUP2 PUSH1 0x0 MSTORE PUSH1 0x20 PUSH1 0x0 KECCAK256 SWAP1 POP SWAP2 SWAP1 POP JUMP JUMPDEST PUSH1 0x0 PUSH1 0x20 PUSH1 0x1F DUP4 ADD DIV SWAP1 POP SWAP2 SWAP1 POP JUMP JUMPDEST PUSH1 0x0 DUP3 DUP3 SHL SWAP1 POP SWAP3 SWAP2 POP POP JUMP JUMPDEST PUSH1 0x0 PUSH1 0x8 DUP4 MUL PUSH2 0xD1D PUSH32 0xFFFFFFFFFFFFFFFFFFFFFFFFFFFFFFFFFFFFFFFFFFFFFFFFFFFFFFFFFFFFFFFF DUP3 PUSH2 0xCE0 JUMP JUMPDEST PUSH2 0xD27 DUP7 DUP4 PUSH2 0xCE0 JUMP JUMPDEST SWAP6 POP DUP1 NOT DUP5 AND SWAP4 POP DUP1 DUP7 AND DUP5 OR SWAP3 POP POP POP SWAP4 SWAP3 POP POP POP JUMP JUMPDEST PUSH1 0x0 DUP2 SWAP1 POP SWAP2 SWAP1 POP JUMP JUMPDEST PUSH1 0x0 PUSH2 0xD64 PUSH2 0xD5F PUSH2 0xD5A DUP5 PUSH2 0xAB6 JUMP JUMPDEST PUSH2 0xD3F JUMP JUMPDEST PUSH2 0xAB6 JUMP JUMPDEST SWAP1 POP SWAP2 SWAP1 POP JUMP JUMPDEST PUSH1 0x0 DUP2 SWAP1 POP SWAP2 SWAP1 POP JUMP JUMPDEST PUSH2 0xD7E DUP4 PUSH2 0xD49 JUMP JUMPDEST PUSH2 0xD92 PUSH2 0xD8A DUP3 PUSH2 0xD6B JUMP JUMPDEST DUP5 DUP5 SLOAD PUSH2 0xCED JUMP JUMPDEST DUP3 SSTORE POP POP POP POP JUMP JUMPDEST PUSH1 0x0 SWAP1 JUMP JUMPDEST PUSH2 0xDA7 PUSH2 0xD9A JUMP JUMPDEST PUSH2 0xDB2 DUP2 DUP5 DUP5 PUSH2 0xD75 JUMP JUMPDEST POP POP POP JUMP JUMPDEST JUMPDEST DUP2 DUP2 LT ISZERO PUSH2 0xDD6 JUMPI PUSH2 0xDCB PUSH1 0x0 DUP3 PUSH2 0xD9F JUMP JUMPDEST PUSH1 0x1 DUP2 ADD SWAP1 POP PUSH2 0xDB8 JUMP JUMPDEST POP POP JUMP JUMPDEST PUSH1 0x1F DUP3 GT ISZERO PUSH2 0xE1B JUMPI PUSH2 0xDEC DUP2 PUSH2 0xCBB JUMP JUMPDEST PUSH2 0xDF5 DUP5 PUSH2 0xCD0 JUMP JUMPDEST DUP2 ADD PUSH1 0x20 DUP6 LT ISZERO PUSH2 0xE04 JUMPI DUP2 SWAP1 POP JUMPDEST PUSH2 0xE18 PUSH2 0xE10 DUP6 PUSH2 0xCD0 JUMP JUMPDEST DUP4 ADD DUP3 PUSH2 0xDB7 JUMP JUMPDEST POP POP JUMPDEST POP POP POP JUMP JUMPDEST PUSH1 0x0 DUP3 DUP3 SHR SWAP1 POP SWAP3 SWAP2 POP POP JUMP JUMPDEST PUSH1 0x0 PUSH2 0xE3E PUSH1 0x0 NOT DUP5 PUSH1 0x8 MUL PUSH2 0xE20 JUMP JUMPDEST NOT DUP1 DUP4 AND SWAP2 POP POP SWAP3 SWAP2 POP POP JUMP JUMPDEST PUSH1 0x0 PUSH2 0xE57 DUP4 DUP4 PUSH2 0xE2D JUMP JUMPDEST SWAP2 POP DUP3 PUSH1 0x2 MUL DUP3 OR SWAP1 POP SWAP3 SWAP2 POP POP JUMP JUMPDEST PUSH2 0xE70 DUP3 PUSH2 0xA26 JUMP JUMPDEST PUSH8 0xFFFFFFFFFFFFFFFF DUP2 GT ISZERO PUSH2 0xE89 JUMPI PUSH2 0xE88 PUSH2 0xC2C JUMP JUMPDEST JUMPDEST PUSH2 0xE93 DUP3 SLOAD PUSH2 0xC8A JUMP JUMPDEST PUSH2 0xE9E DUP3 DUP3 DUP6 PUSH2 0xDDA JUMP JUMPDEST PUSH1 0x0 PUSH1 0x20 SWAP1 POP PUSH1 0x1F DUP4 GT PUSH1 0x1 DUP2 EQ PUSH2 0xED1 JUMPI PUSH1 0x0 DUP5 ISZERO PUSH2 0xEBF JUMPI DUP3 DUP8 ADD MLOAD SWAP1 POP JUMPDEST PUSH2 0xEC9 DUP6 DUP3 PUSH2 0xE4B JUMP JUMPDEST DUP7 SSTORE POP PUSH2 0xF31 JUMP JUMPDEST PUSH1 0x1F NOT DUP5 AND PUSH2 0xEDF DUP7 PUSH2 0xCBB JUMP JUMPDEST PUSH1 0x0 JUMPDEST DUP3 DUP2 LT ISZERO PUSH2 0xF07 JUMPI DUP5 DUP10 ADD MLOAD DUP3 SSTORE PUSH1 0x1 DUP3 ADD SWAP2 POP PUSH1 0x20 DUP6 ADD SWAP5 POP PUSH1 0x20 DUP2 ADD SWAP1 POP PUSH2 0xEE2 JUMP JUMPDEST DUP7 DUP4 LT ISZERO PUSH2 0xF24 JUMPI DUP5 DUP10 ADD MLOAD PUSH2 0xF20 PUSH1 0x1F DUP10 AND DUP3 PUSH2 0xE2D JUMP JUMPDEST DUP4 SSTORE POP JUMPDEST PUSH1 0x1 PUSH1 0x2 DUP9 MUL ADD DUP9 SSTORE POP POP POP JUMPDEST POP POP POP POP POP POP JUMP JUMPDEST DUP3 DUP2 DUP4 CALLDATACOPY PUSH1 0x0 DUP4 DUP4 ADD MSTORE POP POP POP JUMP JUMPDEST PUSH1 0x0 PUSH2 0xF54 DUP4 DUP6 PUSH2 0xA31 JUMP JUMPDEST SWAP4 POP PUSH2 0xF61 DUP4 DUP6 DUP5 PUSH2 0xF39 JUMP JUMPDEST PUSH2 0xF6A DUP4 PUSH2 0xA6C JUMP JUMPDEST DUP5 ADD SWAP1 POP SWAP4 SWAP3 POP POP POP JUMP JUMPDEST PUSH1 0x0 PUSH1 0x60 DUP3 ADD SWAP1 POP DUP2 DUP2 SUB PUSH1 0x0 DUP4 ADD MSTORE PUSH2 0xF90 DUP2 DUP7 DUP9 PUSH2 0xF48 JUMP JUMPDEST SWAP1 POP PUSH2 0xF9F PUSH1 0x20 DUP4 ADD DUP6 PUSH2 0x98F JUMP JUMPDEST PUSH2 0xFAC PUSH1 0x40 DUP4 ADD DUP5 PUSH2 0xAC0 JUMP JUMPDEST SWAP6 SWAP5 POP POP POP POP POP JUMP JUMPDEST PUSH1 0x0 DUP2 SWAP1 POP SWAP3 SWAP2 POP POP JUMP JUMPDEST PUSH1 0x0 PUSH2 0xFCC DUP4 DUP6 PUSH2 0xFB5 JUMP JUMPDEST SWAP4 POP PUSH2 0xFD9 DUP4 DUP6 DUP5 PUSH2 0xF39 JUMP JUMPDEST DUP3 DUP5 ADD SWAP1 POP SWAP4 SWAP3 POP POP POP JUMP JUMPDEST PUSH32 0x7C00000000000000000000000000000000000000000000000000000000000000 PUSH1 0x0 DUP3 ADD MSTORE POP JUMP JUMPDEST PUSH1 0x0 PUSH2 0x101B PUSH1 0x1 DUP4 PUSH2 0xFB5 JUMP JUMPDEST SWAP2 POP PUSH2 0x1026 DUP3 PUSH2 0xFE5 JUMP JUMPDEST PUSH1 0x1 DUP3 ADD SWAP1 POP SWAP2 SWAP1 POP JUMP JUMPDEST PUSH1 0x0 PUSH2 0x103C DUP3 PUSH2 0xA26 JUMP JUMPDEST PUSH2 0x1046 DUP2 DUP6 PUSH2 0xFB5 JUMP JUMPDEST SWAP4 POP PUSH2 0x1056 DUP2 DUP6 PUSH1 0x20 DUP7 ADD PUSH2 0xA42 JUMP JUMPDEST DUP1 DUP5 ADD SWAP2 POP POP SWAP3 SWAP2 POP POP JUMP JUMPDEST PUSH1 0x0 PUSH2 0x106F DUP3 DUP6 DUP8 PUSH2 0xFC0 JUMP JUMPDEST SWAP2 POP PUSH2 0x107A DUP3 PUSH2 0x100E JUMP JUMPDEST SWAP2 POP PUSH2 0x1086 DUP3 DUP5 PUSH2 0x1031 JUMP JUMPDEST SWAP2 POP DUP2 SWAP1 POP SWAP5 SWAP4 POP POP POP POP JUMP JUMPDEST PUSH32 0x6E6F742072656769737465726564000000000000000000000000000000000000 PUSH1 0x0 DUP3 ADD MSTORE POP JUMP JUMPDEST PUSH1 0x0 PUSH2 0x10C9 PUSH1 0xE DUP4 PUSH2 0xA31 JUMP JUMPDEST SWAP2 POP PUSH2 0x10D4 DUP3 PUSH2 0x1093 JUMP JUMPDEST PUSH1 0x20 DUP3 ADD SWAP1 POP SWAP2 SWAP1 POP JUMP JUMPDEST PUSH1 0x0 PUSH1 0x20 DUP3 ADD SWAP1 POP DUP2 DUP2 SUB PUSH1 0x0 DUP4 ADD MSTORE PUSH2 0x10F8 DUP2 PUSH2 0x10BC JUMP JUMPDEST SWAP1 POP SWAP2 SWAP1 POP JUMP JUMPDEST PUSH32 0x616C726561647920617474657374656400000000000000000000000000000000 PUSH1 0x0 DUP3 ADD MSTORE POP JUMP JUMPDEST PUSH1 0x0 PUSH2 0x1135 PUSH1 0x10 DUP4 PUSH2 0xA31 JUMP JUMPDEST SWAP2 POP PUSH2 0x1140 DUP3 PUSH2 0x10FF JUMP JUMPDEST PUSH1 0x20 DUP3 ADD SWAP1 POP SWAP2 SWAP1 POP JUMP JUMPDEST PUSH1 0x0 PUSH1 0x20 DUP3 ADD SWAP1 POP DUP2 DUP2 SUB PUSH1 0x0 DUP4 ADD MSTORE PUSH2 0x1164 DUP2 PUSH2 0x1128 JUMP JUMPDEST SWAP1 POP SWAP2 SWAP1 POP JUMP JUMPDEST PUSH1 0x0 PUSH1 0x40 DUP3 ADD SWAP1 POP PUSH2 0x1180 PUSH1 0x0 DUP4 ADD DUP6 PUSH2 0x98F JUMP JUMPDEST PUSH2 0x118D PUSH1 0x20 DUP4 ADD DUP5 PUSH2 0xAC0 JUMP JUMPDEST SWAP4 SWAP3 POP POP POP JUMP JUMPDEST PUSH32 0x4E487B7100000000000000000000000000000000000000000000000000000000 PUSH1 0x0 MSTORE PUSH1 0x11 PUSH1 0x4 MSTORE PUSH1 0x24 PUSH1 0x0 REVERT JUMPDEST PUSH1 0x0 PUSH2 0x11CE DUP3 PUSH2 0xAB6 JUMP JUMPDEST SWAP2 POP PUSH2 0x11D9 DUP4 PUSH2 0xAB6 JUMP JUMPDEST SWAP3 POP DUP3 DUP3 SUB SWAP1 POP DUP2 DUP2 GT ISZERO PUSH2 0x11F1 JUMPI PUSH2 0x11F0 PUSH2 0x1194 JUMP JUMPDEST JUMPDEST SWAP3 SWAP2 POP POP JUMP JUMPDEST PUSH1 0x0 PUSH2 0x1202 DUP3 PUSH2 0xAB6 JUMP JUMPDEST SWAP2 POP PUSH2 0x120D DUP4 PUSH2 0xAB6 JUMP JUMPDEST SWAP3 POP DUP3 DUP3 MUL PUSH2 0x121B DUP2 PUSH2 0xAB6 JUMP JUMPDEST SWAP2 POP DUP3 DUP3 DIV DUP5 EQ DUP4 ISZERO OR PUSH2 0x1232 JUMPI PUSH2 0x1231 PUSH2 0x1194 JUMP JUMPDEST JUMPDEST POP SWAP3 SWAP2 POP POP JUMP JUMPDEST PUSH1 0x0 DUP2 PUSH1 0x1 SHR SWAP1 POP SWAP2 SWAP1 POP JUMP JUMPDEST PUSH1 0x0 DUP1 DUP3 SWAP2 POP DUP4 SWAP1 POP JUMPDEST PUSH1 0x1 DUP6 GT ISZERO PUSH2 0x1290 JUMPI DUP1 DUP7 DIV DUP2 GT ISZERO PUSH2 0x126C JUMPI PUSH2 0x126B PUSH2 0x1194 JUMP JUMPDEST JUMPDEST PUSH1 0x1 DUP6 AND ISZERO PUSH2 0x127B JUMPI DUP1 DUP3 MUL SWAP2 POP JUMPDEST DUP1 DUP2 MUL SWAP1 POP PUSH2 0x1289 DUP6 PUSH2 0x1239 JUMP JUMPDEST SWAP5 POP PUSH2 0x1250 JUMP JUMPDEST SWAP5 POP SWAP5 SWAP3 POP POP POP JUMP JUMPDEST PUSH1 0x0 DUP3 PUSH2 0x12A9 JUMPI PUSH1 0x1 SWAP1 POP PUSH2 0x1365 JUMP JUMPDEST DUP2 PUSH2 0x12B7 JUMPI PUSH1 0x0 SWAP1 POP PUSH2 0x1365 JUMP JUMPDEST DUP2 PUSH1 0x1 DUP2 EQ PUSH2 0x12CD JUMPI PUSH1 0x2 DUP2 EQ PUSH2 0x12D7 JUMPI PUSH2 0x1306 JUMP JUMPDEST PUSH1 0x1 SWAP2 POP POP PUSH2 0x1365 JUMP JUMPDEST PUSH1 0xFF DUP5 GT ISZERO PUSH2 0x12E9 JUMPI PUSH2 0x12E8 PUSH2 0x1194 JUMP JUMPDEST JUMPDEST DUP4 PUSH1 0x2 EXP SWAP2 POP DUP5 DUP3 GT ISZERO PUSH2 0x1300 JUMPI PUSH2 0x12FF PUSH2 0x1194 JUMP JUMPDEST JUMPDEST POP PUSH2 0x1365 JUMP JUMPDEST POP PUSH1 0x20 DUP4 LT PUSH2 0x133 DUP4 LT AND PUSH1 0x4E DUP5 LT PUSH1 0xB DUP5 LT AND OR ISZERO PUSH2 0x133B JUMPI DUP3 DUP3 EXP SWAP1 POP DUP4 DUP2 GT ISZERO PUSH2 0x1336 JUMPI PUSH2 0x1335 PUSH2 0x1194 JUMP JUMPDEST JUMPDEST PUSH2 0x1365 JUMP JUMPDEST PUSH2 0x1348 DUP5 DUP5 DUP5 PUSH1 0x1 PUSH2 0x1246 JUMP JUMPDEST SWAP3 POP SWAP1 POP DUP2 DUP5 DIV DUP2 GT ISZERO PUSH2 0x135F JUMPI PUSH2 0x135E PUSH2 0x1194 JUMP JUMPDEST JUMPDEST DUP2 DUP2 MUL SWAP1 POP JUMPDEST SWAP4 SWAP3 POP POP POP JUMP JUMPDEST PUSH1 0x0 PUSH2 0x1377 DUP3 PUSH2 0xAB6 JUMP JUMPDEST SWAP2 POP PUSH2 0x1382 DUP4 PUSH2 0xAB6 JUMP JUMPDEST SWAP3 POP PUSH2 0x13AF PUSH32 0xFFFFFFFFFFFFFFFFFFFFFFFFFFFFFFFFFFFFFFFFFFFFFFFFFFFFFFFFFFFFFFFF DUP5 DUP5 PUSH2 0x1299 JUMP JUMPDEST SWAP1 POP SWAP3 SWAP2 POP POP JUMP JUMPDEST PUSH32 0x4E487B7100000000000000000000000000000000000000000000000000000000 PUSH1 0x0 MSTORE PUSH1 0x12 PUSH1 0x4 MSTORE PUSH1 0x24 PUSH1 0x0 REVERT JUMPDEST PUSH1 0x0 PUSH2 0x13F1 DUP3 PUSH2 0xAB6 JUMP JUMPDEST SWAP2 POP PUSH2 0x13FC DUP4 PUSH2 0xAB6 JUMP JUMPDEST SWAP3 POP DUP3 PUSH2 0x140C JUMPI PUSH2 0x140B PUSH2 0x13B7 JUMP JUMPDEST JUMPDEST DUP3 DUP3 DIV SWAP1 POP SWAP3 SWAP2 POP POP JUMP JUMPDEST PUSH1 0x0 PUSH1 0xFF DUP3 AND SWAP1 POP SWAP2 SWAP1 POP JUMP JUMPDEST PUSH1 0x0 PUSH2 0x142F DUP3 PUSH2 0x1417 JUMP JUMPDEST SWAP2 POP PUSH2 0x143A DUP4 PUSH2 0x1417 JUMP JUMPDEST SWAP3 POP DUP3 PUSH2 0x144A JUMPI PUSH2 0x1449 PUSH2 0x13B7 JUMP JUMPDEST JUMPDEST DUP3 DUP3 DIV SWAP1 POP SWAP3 SWAP2 POP POP JUMP JUMPDEST PUSH1 0x0 PUSH2 0x1460 DUP3 PUSH2 0x1417 JUMP JUMPDEST SWAP2 POP PUSH2 0x146B DUP4 PUSH2 0x1417 JUMP JUMPDEST SWAP3 POP DUP3 DUP3 MUL PUSH2 0x1479 DUP2 PUSH2 0x1417 JUMP JUMPDEST SWAP2 POP DUP1 DUP3 EQ PUSH2 0x148B JUMPI PUSH2 0x148A PUSH2 0x1194 JUMP JUMPDEST JUMPDEST POP SWAP3 SWAP2 POP POP JUMP JUMPDEST PUSH1 0x0 PUSH2 0x149D DUP3 PUSH2 0x1417 JUMP JUMPDEST SWAP2 POP PUSH2 0x14A8 DUP4 PUSH2 0x1417 JUMP JUMPDEST SWAP3 POP DUP3 DUP3 SUB SWAP1 POP PUSH1 0xFF DUP2 GT ISZERO PUSH2 0x14C1 JUMPI PUSH2 0x14C0 PUSH2 0x1194 JUMP JUMPDEST JUMPDEST SWAP3 SWAP2 POP POP JUMP JUMPDEST PUSH32 0x4E487B7100000000000000000000000000000000000000000000000000000000 PUSH1 0x0 MSTORE PUSH1 0x32 PUSH1 0x4 MSTORE PUSH1 0x24 PUSH1 0x0 REVERT JUMPDEST PUSH1 0x0 PUSH2 0x1501 DUP3 PUSH2 0xAB6 JUMP JUMPDEST SWAP2 POP PUSH2 0x150C DUP4 PUSH2 0xAB6 JUMP JUMPDEST SWAP3 POP DUP3 DUP3 ADD SWAP1 POP DUP1 DUP3 GT ISZERO PUSH2 0x1524 JUMPI PUSH2 0x1523 PUSH2 0x1194 JUMP JUMPDEST JUMPDEST SWAP3 SWAP2 POP POP JUMP JUMPDEST PUSH1 0x0 PUSH2 0x1535 DUP3 PUSH2 0xAB6 JUMP JUMPDEST SWAP2 POP PUSH32 0xFFFFFFFFFFFFFFFFFFFFFFFFFFFFFFFFFFFFFFFFFFFFFFFFFFFFFFFFFFFFFFFF DUP3 SUB PUSH2 0x1567 JUMPI PUSH2 0x1566 PUSH2 0x1194 JUMP JUMPDEST JUMPDEST PUSH1 0x1 DUP3 ADD SWAP1 POP SWAP2 SWAP1 POP JUMP JUMPDEST PUSH32 0x3078000000000000000000000000000000000000000000000000000000000000 PUSH1 0x0 DUP3 ADD MSTORE POP JUMP JUMPDEST PUSH1 0x0 PUSH2 0x15A8 PUSH1 0x2 DUP4 PUSH2 0xFB5 JUMP JUMPDEST SWAP2 POP PUSH2 0x15B3 DUP3 PUSH2 0x1572 JUMP JUMPDEST PUSH1 0x2 DUP3 ADD SWAP1 POP SWAP2 SWAP1 POP JUMP JUMPDEST PUSH1 0x0 DUP2 MLOAD SWAP1 POP SWAP2 SWAP1 POP JUMP JUMPDEST PUSH1 0x0 DUP2 SWAP1 POP SWAP3 SWAP2 POP POP JUMP JUMPDEST PUSH1 0x0 PUSH2 0x15DF DUP3 PUSH2 0x15BE JUMP JUMPDEST PUSH2 0x15E9 DUP2 DUP6 PUSH2 0x15C9 JUMP JUMPDEST SWAP4 POP PUSH2 0x15F9 DUP2 DUP6 PUSH1 0x20 DUP7 ADD PUSH2 0xA42 JUMP JUMPDEST DUP1 DUP5 ADD SWAP2 POP POP SWAP3 SWAP2 POP POP JUMP JUMPDEST PUSH1 0x0 PUSH2 0x1610 DUP3 PUSH2 0x159B JUMP JUMPDEST SWAP2 POP PUSH2 0x161C DUP3 DUP5 PUSH2 0x15D4 JUMP JUMPDEST SWAP2 POP DUP2 SWAP1 POP SWAP3 SWAP2 POP POP JUMP JUMPDEST PUSH1 0x0 PUSH2 0x1632 DUP3 PUSH2 0x1417 JUMP JUMPDEST SWAP2 POP PUSH2 0x163D DUP4 PUSH2 0x1417 JUMP JUMPDEST SWAP3 POP DUP3 DUP3 ADD SWAP1 POP PUSH1 0xFF DUP2 GT ISZERO PUSH2 0x1656 JUMPI PUSH2 0x1655 PUSH2 0x1194 JUMP JUMPDEST JUMPDEST SWAP3 SWAP2 POP POP JUMP INVALID LOG2 PUSH5 0x6970667358 0x22 SLT KECCAK256 MLOAD 0xF7 PUSH1 0x81 LOG4 GT SELFBALANCE 0xD7 SWAP15 PUSH4 0xCCCD7F33 0xAF 0xF8 EXP SWAP3 SLOAD 0xCD CALLDATACOPY 0xFC PUSH28 0xEE8CEBA4BE6EF39ACF64736F6C634300081200330000000000000000 "},"methodIdentifiers":{"computeReceiptId(string,address)":"5221a21e","receipts(bytes32)":"ef6cf04d","registerEncryptedReceipt(bytes32,string,bytes32)":"01ca76df","updateAttestation(bytes32,bytes32)":"c03d83f0"}}}}}