{
  "_format": "hh-sol-artifact-1",
  "contractName": "MockArbSys",
  "sourceName": "contracts/mock/MockArbSys.sol",
  "abi": [
    {
      "anonymous": false,
      "inputs": [
        {
          "indexed": true,
          "internalType": "uint256",
          "name": "outId",
          "type": "uint256"
        },
        {
          "indexed": true,
          "internalType": "address",
          "name": "destination",
          "type": "address"
        },
        {
          "indexed": false,
          "internalType": "bytes",
          "name": "data",
          "type": "bytes"
        }
      ],
      "name": "OutboxMessage",
      "type": "event"
    },
    {
      "inputs": [],
      "name": "nextOutId",
      "outputs": [
        {
          "internalType": "uint256",
          "name": "",
          "type": "uint256"
        }
      ],
      "stateMutability": "view",
      "type": "function"
    },
    {
      "inputs": [
        {
          "internalType": "address",
          "name": "destination",
          "type": "address"
        },
        {
          "internalType": "bytes",
          "name": "data",
          "type": "bytes"
        }
      ],
      "name": "sendTxToL1",
      "outputs": [
        {
          "internalType": "uint256",
          "name": "",
          "type": "uint256"
        }
      ],
      "stateMutability": "payable",
      "type": "function"
    }
  ],
  "bytecode": "0x6080604052600160005534801561001557600080fd5b50610396806100256000396000f3fe6080604052600436106100295760003560e01c8063928c169a1461002e578063eef18c9b1461005e575b600080fd5b610048600480360381019061004391906101d3565b610089565b604051610055919061024c565b60405180910390f35b34801561006a57600080fd5b50610073610100565b604051610080919061024c565b60405180910390f35b60008060008081548092919061009e90610296565b9190505590508473ffffffffffffffffffffffffffffffffffffffff16817f8a34da1cc69cb347cc00e08c30241bf9f16d65e85f1b727f81ecdd9bb220339486866040516100ed92919061033c565b60405180910390a3809150509392505050565b60005481565b600080fd5b600080fd5b600073ffffffffffffffffffffffffffffffffffffffff82169050919050565b600061013b82610110565b9050919050565b61014b81610130565b811461015657600080fd5b50565b60008135905061016881610142565b92915050565b600080fd5b600080fd5b600080fd5b60008083601f8401126101935761019261016e565b5b8235905067ffffffffffffffff8111156101b0576101af610173565b5b6020830191508360018202830111156101cc576101cb610178565b5b9250929050565b6000806000604084860312156101ec576101eb610106565b5b60006101fa86828701610159565b935050602084013567ffffffffffffffff81111561021b5761021a61010b565b5b6102278682870161017d565b92509250509250925092565b6000819050919050565b61024681610233565b82525050565b6000602082019050610261600083018461023d565b92915050565b7f4e487b7100000000000000000000000000000000000000000000000000000000600052601160045260246000fd5b60006102a182610233565b91507fffffffffffffffffffffffffffffffffffffffffffffffffffffffffffffffff82036102d3576102d2610267565b5b600182019050919050565b600082825260208201905092915050565b82818337600083830152505050565b6000601f19601f8301169050919050565b600061031b83856102de565b93506103288385846102ef565b610331836102fe565b840190509392505050565b6000602082019050818103600083015261035781848661030f565b9050939250505056fea26469706673582212208c8590e5b2d1c40305febf544c35293705e9e5840bb7bbaa915c15b82281c7bc64736f6c63430008120033",
  "linkReferences": {},
  "deployedLinkReferences": {}
}