{
  "_format": "hh-sol-artifact-1",
  "contractName": "L1AttestationReceiver",
  "sourceName": "contracts/arb/L1AttestationReceiver.sol",
  "abi": [
    {
      "anonymous": false,
      "inputs": [
        {
          "indexed": true,
          "internalType": "bytes32",
          "name": "receiptId",
          "type": "bytes32"
        },
        {
          "indexed": true,
          "internalType": "bytes32",
          "name": "attestationHash",
          "type": "bytes32"
        },
        {
          "indexed": false,
          "internalType": "string",
          "name": "ipfsCID",
          "type": "string"
        },
        {
          "indexed": false,
          "internalType": "address",
          "name": "l2Source",
          "type": "address"
        },
        {
          "indexed": false,
          "internalType": "uint256",
          "name": "receivedAt",
          "type": "uint256"
        }
      ],
      "name": "AttestationReceived",
      "type": "event"
    },
    {
      "inputs": [
        {
          "internalType": "bytes32",
          "name": "",
          "type": "bytes32"
        }
      ],
      "name": "attestationByReceipt",
      "outputs": [
        {
          "internalType": "bytes32",
          "name": "attestationHash",
          "type": "bytes32"
        },
        {
          "internalType": "string",
          "name": "ipfsCID",
          "type": "string"
        },
        {
          "internalType": "address",
          "name": "l2Source",
          "type": "address"
        },
        {
          "internalType": "uint256",
          "name": "receivedAt",
          "type": "uint256"
        }
      ],
      "stateMutability": "view",
      "type": "function"
    },
    {
      "inputs": [
        {
          "internalType": "bytes32",
          "name": "receiptId",
          "type": "bytes32"
        },
        {
          "internalType": "bytes32",
          "name": "attestationHash",
          "type": "bytes32"
        },
        {
          "internalType": "string",
          "name": "ipfsCID",
          "type": "string"
        },
        {
          "internalType": "address",
          "name": "l2Source",
          "type": "address"
        }
      ],
      "name": "receiveAttestation",
      "outputs": [],
      "stateMutability": "nonpayable",
      "type": "function"
    }
  ],
  "bytecode": "0x608060405234801561001057600080fd5b506109f7806100206000396000f3fe608060405234801561001057600080fd5b50600436106100365760003560e01c806387f631ad1461003b578063e60c09d514610057575b600080fd5b61005560048036038101906100509190610404565b61008a565b005b610071600480360381019061006c919061048c565b610229565b6040516100819493929190610580565b60405180910390f35b600080600087815260200190815260200160002060030154146100e2576040517f08c379a00000000000000000000000000000000000000000000000000000000081526004016100d990610618565b60405180910390fd5b604051806080016040528085815260200184848080601f016020809104026020016040519081016040528093929190818152602001838380828437600081840152601f19601f8201169050808301925050505050505081526020018273ffffffffffffffffffffffffffffffffffffffff1681526020014281525060008087815260200190815260200160002060008201518160000155602082015181600101908161018e9190610873565b5060408201518160020160006101000a81548173ffffffffffffffffffffffffffffffffffffffff021916908373ffffffffffffffffffffffffffffffffffffffff1602179055506060820151816003015590505083857ffb1692c32af0de84684be40b629c2c1d814ae9d51e6706a83515661fe99d051f8585854260405161021a9493929190610981565b60405180910390a35050505050565b600060205280600052604060002060009150905080600001549080600101805461025290610696565b80601f016020809104026020016040519081016040528092919081815260200182805461027e90610696565b80156102cb5780601f106102a0576101008083540402835291602001916102cb565b820191906000526020600020905b8154815290600101906020018083116102ae57829003601f168201915b5050505050908060020160009054906101000a900473ffffffffffffffffffffffffffffffffffffffff16908060030154905084565b600080fd5b600080fd5b6000819050919050565b61031e8161030b565b811461032957600080fd5b50565b60008135905061033b81610315565b92915050565b600080fd5b600080fd5b600080fd5b60008083601f84011261036657610365610341565b5b8235905067ffffffffffffffff81111561038357610382610346565b5b60208301915083600182028301111561039f5761039e61034b565b5b9250929050565b600073ffffffffffffffffffffffffffffffffffffffff82169050919050565b60006103d1826103a6565b9050919050565b6103e1816103c6565b81146103ec57600080fd5b50565b6000813590506103fe816103d8565b92915050565b6000806000806000608086880312156104205761041f610301565b5b600061042e8882890161032c565b955050602061043f8882890161032c565b945050604086013567ffffffffffffffff8111156104605761045f610306565b5b61046c88828901610350565b9350935050606061047f888289016103ef565b9150509295509295909350565b6000602082840312156104a2576104a1610301565b5b60006104b08482850161032c565b91505092915050565b6104c28161030b565b82525050565b600081519050919050565b600082825260208201905092915050565b60005b838110156105025780820151818401526020810190506104e7565b60008484015250505050565b6000601f19601f8301169050919050565b600061052a826104c8565b61053481856104d3565b93506105448185602086016104e4565b61054d8161050e565b840191505092915050565b610561816103c6565b82525050565b6000819050919050565b61057a81610567565b82525050565b600060808201905061059560008301876104b9565b81810360208301526105a7818661051f565b90506105b66040830185610558565b6105c36060830184610571565b95945050505050565b7f616c726561647920726563656976656400000000000000000000000000000000600082015250565b60006106026010836104d3565b915061060d826105cc565b602082019050919050565b60006020820190508181036000830152610631816105f5565b9050919050565b7f4e487b7100000000000000000000000000000000000000000000000000000000600052604160045260246000fd5b7f4e487b7100000000000000000000000000000000000000000000000000000000600052602260045260246000fd5b600060028204905060018216806106ae57607f821691505b6020821081036106c1576106c0610667565b5b50919050565b60008190508160005260206000209050919050565b60006020601f8301049050919050565b600082821b905092915050565b6000600883026107297fffffffffffffffffffffffffffffffffffffffffffffffffffffffffffffffff826106ec565b61073386836106ec565b95508019841693508086168417925050509392505050565b6000819050919050565b600061077061076b61076684610567565b61074b565b610567565b9050919050565b6000819050919050565b61078a83610755565b61079e61079682610777565b8484546106f9565b825550505050565b600090565b6107b36107a6565b6107be818484610781565b505050565b5b818110156107e2576107d76000826107ab565b6001810190506107c4565b5050565b601f821115610827576107f8816106c7565b610801846106dc565b81016020851015610810578190505b61082461081c856106dc565b8301826107c3565b50505b505050565b600082821c905092915050565b600061084a6000198460080261082c565b1980831691505092915050565b60006108638383610839565b9150826002028217905092915050565b61087c826104c8565b67ffffffffffffffff81111561089557610894610638565b5b61089f8254610696565b6108aa8282856107e6565b600060209050601f8311600181146108dd57600084156108cb578287015190505b6108d58582610857565b86555061093d565b601f1984166108eb866106c7565b60005b82811015610913578489015182556001820191506020850194506020810190506108ee565b86831015610930578489015161092c601f891682610839565b8355505b6001600288020188555050505b505050505050565b82818337600083830152505050565b600061096083856104d3565b935061096d838584610945565b6109768361050e565b840190509392505050565b6000606082019050818103600083015261099c818688610954565b90506109ab6020830185610558565b6109b86040830184610571565b9594505050505056fea2646970667358221220408bb31e687c81d043b53eda1eee9599b378cb240e5caff41ed23718635b2dcc64736f6c63430008120033",
  "linkReferences": {},
  "deployedLinkReferences": {}
}