{
  "_format": "hh-sol-artifact-1",
  "contractName": "EncryptedReceiptRegistry",
  "sourceName": "contracts/arb/EncryptedReceiptRegistry.sol",
  "abi": [
    {
      "anonymous": false,
      "inputs": [
        {
          "indexed": true,
          "internalType": "bytes32",
          "name": "receiptId",
          "type": "bytes32"
        },
        {
          "indexed": false,
          "internalType": "bytes32",
          "name": "attestationHash",
          "type": "bytes32"
        },
        {
          "indexed": true,
          "internalType": "address",
          "name": "attestor",
          "type": "address"
        },
        {
          "indexed": false,
          "internalType": "uint256",
          "name": "ts",
          "type": "uint256"
        }
      ],
      "name": "ReceiptAttested",
      "type": "event"
    },
    {
      "anonymous": false,
      "inputs": [
        {
          "indexed": true,
          "internalType": "bytes32",
          "name": "receiptId",
          "type": "bytes32"
        },
        {
          "indexed": false,
          "internalType": "string",
          "name": "ipfsCID",
          "type": "string"
        },
        {
          "indexed": false,
          "internalType": "bytes32",
          "name": "merkleRoot",
          "type": "bytes32"
        },
        {
          "indexed": true,
          "internalType": "address",
          "name": "uploader",
          "type": "address"
        },
        {
          "indexed": false,
          "internalType": "uint256",
          "name": "ts",
          "type": "uint256"
        }
      ],
      "name": "ReceiptRegistered",
      "type": "event"
    },
    {
      "inputs": [
        {
          "internalType": "string",
          "name": "ipfsCID",
          "type": "string"
        },
        {
          "internalType": "address",
          "name": "uploader",
          "type": "address"
        }
      ],
      "name": "computeReceiptId",
      "outputs": [
        {
          "internalType": "bytes32",
          "name": "",
          "type": "bytes32"
        }
      ],
      "stateMutability": "pure",
      "type": "function"
    },
    {
      "inputs": [
        {
          "internalType": "bytes32",
          "name": "",
          "type": "bytes32"
        }
      ],
      "name": "receipts",
      "outputs": [
        {
          "internalType": "bytes32",
          "name": "id",
          "type": "bytes32"
        },
        {
          "internalType": "string",
          "name": "ipfsCID",
          "type": "string"
        },
        {
          "internalType": "bytes32",
          "name": "merkleRoot",
          "type": "bytes32"
        },
        {
          "internalType": "bytes32",
          "name": "attestationHash",
          "type": "bytes32"
        },
        {
          "internalType": "uint256",
          "name": "registeredAt",
          "type": "uint256"
        },
        {
          "internalType": "uint256",
          "name": "attestedAt",
          "type": "uint256"
        },
        {
          "internalType": "address",
          "name": "uploader",
          "type": "address"
        }
      ],
      "stateMutability": "view",
      "type": "function"
    },
    {
      "inputs": [
        {
          "internalType": "bytes32",
          "name": "receiptId",
          "type": "bytes32"
        },
        {
          "internalType": "string",
          "name": "ipfsCID",
          "type": "string"
        },
        {
          "internalType": "bytes32",
          "name": "merkleRoot",
          "type": "bytes32"
        }
      ],
      "name": "registerEncryptedReceipt",
      "outputs": [],
      "stateMutability": "nonpayable",
      "type": "function"
    },
    {
      "inputs": [
        {
          "internalType": "bytes32",
          "name": "receiptId",
          "type": "bytes32"
        },
        {
          "internalType": "bytes32",
          "name": "attestationHash",
          "type": "bytes32"
        }
      ],
      "name": "updateAttestation",
      "outputs": [],
      "stateMutability": "nonpayable",
      "type": "function"
    }
  ],
  "bytecode": "0x608060405234801561001057600080fd5b50611692806100206000396000f3fe608060405234801561001057600080fd5b506004361061004c5760003560e01c806301ca76df146100515780635221a21e1461006d578063c03d83f01461009d578063ef6cf04d146100b9575b600080fd5b61006b6004803603810190610066919061085d565b6100ef565b005b6100876004803603810190610082919061092f565b61032b565b604051610094919061099e565b60405180910390f35b6100b760048036038101906100b291906109b9565b610369565b005b6100d360048036038101906100ce91906109f9565b6104a6565b6040516100e69796959493929190610ade565b60405180910390f35b6000801b6000808681526020019081526020016000206000015414610149576040517f08c379a000000000000000000000000000000000000000000000000000000000815260040161014090610ba0565b60405180910390fd5b600061015684843361032b565b905084811461019a576040517f08c379a000000000000000000000000000000000000000000000000000000000815260040161019190610c0c565b60405180910390fd5b6040518060e0016040528086815260200185858080601f016020809104026020016040519081016040528093929190818152602001838380828437600081840152601f19601f8201169050808301925050505050505081526020018381526020016000801b8152602001428152602001600081526020013373ffffffffffffffffffffffffffffffffffffffff1681525060008087815260200190815260200160002060008201518160000155602082015181600101908161025c9190610e67565b5060408201518160020155606082015181600301556080820151816004015560a0820151816005015560c08201518160060160006101000a81548173ffffffffffffffffffffffffffffffffffffffff021916908373ffffffffffffffffffffffffffffffffffffffff1602179055509050503373ffffffffffffffffffffffffffffffffffffffff16857f801fbfe7a2075d128bf41f39b1cdb92f6e5d387d5d502a70a4b8852efb22c45c8686864260405161031c9493929190610f75565b60405180910390a35050505050565b6000838361033884610590565b60405160200161034a93929190611062565b6040516020818303038152906040528051906020012090509392505050565b6000801b60008084815260200190815260200160002060000154036103c3576040517f08c379a00000000000000000000000000000000000000000000000000000000081526004016103ba906110df565b60405180910390fd5b6000801b600080848152602001908152602001600020600301541461041d576040517f08c379a00000000000000000000000000000000000000000000000000000000081526004016104149061114b565b60405180910390fd5b806000808481526020019081526020016000206003018190555042600080848152602001908152602001600020600501819055503373ffffffffffffffffffffffffffffffffffffffff16827f8065d50c7119db75be7a97902337147f1e42c1af2425cb94398bb315e6495701834260405161049a92919061116b565b60405180910390a35050565b60006020528060005260406000206000915090508060000154908060010180546104cf90610c8a565b80601f01602080910402602001604051908101604052809291908181526020018280546104fb90610c8a565b80156105485780601f1061051d57610100808354040283529160200191610548565b820191906000526020600020905b81548152906001019060200180831161052b57829003601f168201915b5050505050908060020154908060030154908060040154908060050154908060060160009054906101000a900473ffffffffffffffffffffffffffffffffffffffff16905087565b60606000602867ffffffffffffffff8111156105af576105ae610c2c565b5b6040519080825280601f01601f1916602001820160405280156105e15781602001600182028036833780820191505090505b50905060005b60148110156107495760008160136105ff91906111c3565b600861060b91906111f7565b6002610617919061136c565b8573ffffffffffffffffffffffffffffffffffffffff1661063891906113e6565b60f81b9050600060108260f81c61064f9190611424565b60f81b905060008160f81c60106106669190611455565b8360f81c6106749190611492565b60f81b905061068282610772565b8585600261069091906111f7565b815181106106a1576106a06114c7565b5b60200101907effffffffffffffffffffffffffffffffffffffffffffffffffffffffffffff1916908160001a9053506106d981610772565b8560018660026106e991906111f7565b6106f391906114f6565b81518110610704576107036114c7565b5b60200101907effffffffffffffffffffffffffffffffffffffffffffffffffffffffffffff1916908160001a90535050505080806107419061152a565b9150506105e7565b508060405160200161075b9190611605565b604051602081830303815290604052915050919050565b6000600a8260f81c60ff16101561079d5760308260f81c6107939190611627565b60f81b90506107b3565b60578260f81c6107ad9190611627565b60f81b90505b919050565b600080fd5b600080fd5b6000819050919050565b6107d5816107c2565b81146107e057600080fd5b50565b6000813590506107f2816107cc565b92915050565b600080fd5b600080fd5b600080fd5b60008083601f84011261081d5761081c6107f8565b5b8235905067ffffffffffffffff81111561083a576108396107fd565b5b60208301915083600182028301111561085657610855610802565b5b9250929050565b60008060008060608587031215610877576108766107b8565b5b6000610885878288016107e3565b945050602085013567ffffffffffffffff8111156108a6576108a56107bd565b5b6108b287828801610807565b935093505060406108c5878288016107e3565b91505092959194509250565b600073ffffffffffffffffffffffffffffffffffffffff82169050919050565b60006108fc826108d1565b9050919050565b61090c816108f1565b811461091757600080fd5b50565b60008135905061092981610903565b92915050565b600080600060408486031215610948576109476107b8565b5b600084013567ffffffffffffffff811115610966576109656107bd565b5b61097286828701610807565b935093505060206109858682870161091a565b9150509250925092565b610998816107c2565b82525050565b60006020820190506109b3600083018461098f565b92915050565b600080604083850312156109d0576109cf6107b8565b5b60006109de858286016107e3565b92505060206109ef858286016107e3565b9150509250929050565b600060208284031215610a0f57610a0e6107b8565b5b6000610a1d848285016107e3565b91505092915050565b600081519050919050565b600082825260208201905092915050565b60005b83811015610a60578082015181840152602081019050610a45565b60008484015250505050565b6000601f19601f8301169050919050565b6000610a8882610a26565b610a928185610a31565b9350610aa2818560208601610a42565b610aab81610a6c565b840191505092915050565b6000819050919050565b610ac981610ab6565b82525050565b610ad8816108f1565b82525050565b600060e082019050610af3600083018a61098f565b8181036020830152610b058189610a7d565b9050610b14604083018861098f565b610b21606083018761098f565b610b2e6080830186610ac0565b610b3b60a0830185610ac0565b610b4860c0830184610acf565b98975050505050505050565b7f616c726561647920726567697374657265640000000000000000000000000000600082015250565b6000610b8a601283610a31565b9150610b9582610b54565b602082019050919050565b60006020820190508181036000830152610bb981610b7d565b9050919050565b7f726563656970744964206d69736d617463680000000000000000000000000000600082015250565b6000610bf6601283610a31565b9150610c0182610bc0565b602082019050919050565b60006020820190508181036000830152610c2581610be9565b9050919050565b7f4e487b7100000000000000000000000000000000000000000000000000000000600052604160045260246000fd5b7f4e487b7100000000000000000000000000000000000000000000000000000000600052602260045260246000fd5b60006002820490506001821680610ca257607f821691505b602082108103610cb557610cb4610c5b565b5b50919050565b60008190508160005260206000209050919050565b60006020601f8301049050919050565b600082821b905092915050565b600060088302610d1d7fffffffffffffffffffffffffffffffffffffffffffffffffffffffffffffffff82610ce0565b610d278683610ce0565b95508019841693508086168417925050509392505050565b6000819050919050565b6000610d64610d5f610d5a84610ab6565b610d3f565b610ab6565b9050919050565b6000819050919050565b610d7e83610d49565b610d92610d8a82610d6b565b848454610ced565b825550505050565b600090565b610da7610d9a565b610db2818484610d75565b505050565b5b81811015610dd657610dcb600082610d9f565b600181019050610db8565b5050565b601f821115610e1b57610dec81610cbb565b610df584610cd0565b81016020851015610e04578190505b610e18610e1085610cd0565b830182610db7565b50505b505050565b600082821c905092915050565b6000610e3e60001984600802610e20565b1980831691505092915050565b6000610e578383610e2d565b9150826002028217905092915050565b610e7082610a26565b67ffffffffffffffff811115610e8957610e88610c2c565b5b610e938254610c8a565b610e9e828285610dda565b600060209050601f831160018114610ed15760008415610ebf578287015190505b610ec98582610e4b565b865550610f31565b601f198416610edf86610cbb565b60005b82811015610f0757848901518255600182019150602085019450602081019050610ee2565b86831015610f245784890151610f20601f891682610e2d565b8355505b6001600288020188555050505b505050505050565b82818337600083830152505050565b6000610f548385610a31565b9350610f61838584610f39565b610f6a83610a6c565b840190509392505050565b60006060820190508181036000830152610f90818688610f48565b9050610f9f602083018561098f565b610fac6040830184610ac0565b95945050505050565b600081905092915050565b6000610fcc8385610fb5565b9350610fd9838584610f39565b82840190509392505050565b7f7c00000000000000000000000000000000000000000000000000000000000000600082015250565b600061101b600183610fb5565b915061102682610fe5565b600182019050919050565b600061103c82610a26565b6110468185610fb5565b9350611056818560208601610a42565b80840191505092915050565b600061106f828587610fc0565b915061107a8261100e565b91506110868284611031565b9150819050949350505050565b7f6e6f742072656769737465726564000000000000000000000000000000000000600082015250565b60006110c9600e83610a31565b91506110d482611093565b602082019050919050565b600060208201905081810360008301526110f8816110bc565b9050919050565b7f616c726561647920617474657374656400000000000000000000000000000000600082015250565b6000611135601083610a31565b9150611140826110ff565b602082019050919050565b6000602082019050818103600083015261116481611128565b9050919050565b6000604082019050611180600083018561098f565b61118d6020830184610ac0565b9392505050565b7f4e487b7100000000000000000000000000000000000000000000000000000000600052601160045260246000fd5b60006111ce82610ab6565b91506111d983610ab6565b92508282039050818111156111f1576111f0611194565b5b92915050565b600061120282610ab6565b915061120d83610ab6565b925082820261121b81610ab6565b9150828204841483151761123257611231611194565b5b5092915050565b60008160011c9050919050565b6000808291508390505b60018511156112905780860481111561126c5761126b611194565b5b600185161561127b5780820291505b808102905061128985611239565b9450611250565b94509492505050565b6000826112a95760019050611365565b816112b75760009050611365565b81600181146112cd57600281146112d757611306565b6001915050611365565b60ff8411156112e9576112e8611194565b5b8360020a915084821115611300576112ff611194565b5b50611365565b5060208310610133831016604e8410600b841016171561133b5782820a90508381111561133657611335611194565b5b611365565b6113488484846001611246565b9250905081840481111561135f5761135e611194565b5b81810290505b9392505050565b600061137782610ab6565b915061138283610ab6565b92506113af7fffffffffffffffffffffffffffffffffffffffffffffffffffffffffffffffff8484611299565b905092915050565b7f4e487b7100000000000000000000000000000000000000000000000000000000600052601260045260246000fd5b60006113f182610ab6565b91506113fc83610ab6565b92508261140c5761140b6113b7565b5b828204905092915050565b600060ff82169050919050565b600061142f82611417565b915061143a83611417565b92508261144a576114496113b7565b5b828204905092915050565b600061146082611417565b915061146b83611417565b925082820261147981611417565b915080821461148b5761148a611194565b5b5092915050565b600061149d82611417565b91506114a883611417565b9250828203905060ff8111156114c1576114c0611194565b5b92915050565b7f4e487b7100000000000000000000000000000000000000000000000000000000600052603260045260246000fd5b600061150182610ab6565b915061150c83610ab6565b925082820190508082111561152457611523611194565b5b92915050565b600061153582610ab6565b91507fffffffffffffffffffffffffffffffffffffffffffffffffffffffffffffffff820361156757611566611194565b5b600182019050919050565b7f3078000000000000000000000000000000000000000000000000000000000000600082015250565b60006115a8600283610fb5565b91506115b382611572565b600282019050919050565b600081519050919050565b600081905092915050565b60006115df826115be565b6115e981856115c9565b93506115f9818560208601610a42565b80840191505092915050565b60006116108261159b565b915061161c82846115d4565b915081905092915050565b600061163282611417565b915061163d83611417565b9250828201905060ff81111561165657611655611194565b5b9291505056fea264697066735822122051f76081a41147d79e63cccd7f33aff80a9254cd37fc7bee8ceba4be6ef39acf64736f6c63430008120033",
  "linkReferences": {},
  "deployedLinkReferences": {}
}