{
  "_format": "hh-sol-artifact-1",
  "contractName": "ArbitrumAttestationBridgeMock",
  "sourceName": "contracts/arb/ArbitrumAttestationBridgeMock.sol",
  "abi": [
    {
      "inputs": [
        {
          "internalType": "address",
          "name": "arbSysAddress",
          "type": "address"
        }
      ],
      "stateMutability": "nonpayable",
      "type": "constructor"
    },
    {
      "anonymous": false,
      "inputs": [
        {
          "indexed": true,
          "internalType": "bytes32",
          "name": "receiptId",
          "type": "bytes32"
        },
        {
          "indexed": false,
          "internalType": "bytes32",
          "name": "attestationHash",
          "type": "bytes32"
        },
        {
          "indexed": false,
          "internalType": "string",
          "name": "ipfsCID",
          "type": "string"
        },
        {
          "indexed": true,
          "internalType": "address",
          "name": "registrar",
          "type": "address"
        }
      ],
      "name": "L2AttestationRegistered",
      "type": "event"
    },
    {
      "anonymous": false,
      "inputs": [
        {
          "indexed": true,
          "internalType": "bytes32",
          "name": "receiptId",
          "type": "bytes32"
        },
        {
          "indexed": true,
          "internalType": "uint256",
          "name": "outId",
          "type": "uint256"
        },
        {
          "indexed": true,
          "internalType": "address",
          "name": "destination",
          "type": "address"
        }
      ],
      "name": "L2ToL1Sent",
      "type": "event"
    },
    {
      "inputs": [],
      "name": "arbSys",
      "outputs": [
        {
          "internalType": "contract IMockArbSys",
          "name": "",
          "type": "address"
        }
      ],
      "stateMutability": "view",
      "type": "function"
    },
    {
      "inputs": [
        {
          "internalType": "bytes32",
          "name": "receiptId",
          "type": "bytes32"
        },
        {
          "internalType": "bytes32",
          "name": "attestationHash",
          "type": "bytes32"
        },
        {
          "internalType": "string",
          "name": "ipfsCID",
          "type": "string"
        }
      ],
      "name": "registerAttestationL2",
      "outputs": [],
      "stateMutability": "nonpayable",
      "type": "function"
    },
    {
      "inputs": [
        {
          "internalType": "address",
          "name": "destination",
          "type": "address"
        },
        {
          "internalType": "bytes32",
          "name": "receiptId",
          "type": "bytes32"
        },
        {
          "internalType": "bytes32",
          "name": "attestationHash",
          "type": "bytes32"
        },
        {
          "internalType": "string",
          "name": "ipfsCID",
          "type": "string"
        }
      ],
      "name": "sendAttestationToL1",
      "outputs": [
        {
          "internalType": "uint256",
          "name": "",
          "type": "uint256"
        }
      ],
      "stateMutability": "payable",
      "type": "function"
    }
  ],
  "bytecode": "0x608060405234801561001057600080fd5b506040516108c93803806108c9833981810160405281019061003291906100db565b806000806101000a81548173ffffffffffffffffffffffffffffffffffffffff021916908373ffffffffffffffffffffffffffffffffffffffff16021790555050610108565b600080fd5b600073ffffffffffffffffffffffffffffffffffffffff82169050919050565b60006100a88261007d565b9050919050565b6100b88161009d565b81146100c357600080fd5b50565b6000815190506100d5816100af565b92915050565b6000602082840312156100f1576100f0610078565b5b60006100ff848285016100c6565b91505092915050565b6107b2806101176000396000f3fe6080604052600436106100345760003560e01c80631057d40f1461003957806369e45bd9146100645780638e047f2d14610094575b600080fd5b34801561004557600080fd5b5061004e6100bd565b60405161005b919061034a565b60405180910390f35b61007e60048036038101906100799190610448565b6100e1565b60405161008b91906104e9565b60405180910390f35b3480156100a057600080fd5b506100bb60048036038101906100b69190610504565b610272565b005b60008054906101000a900473ffffffffffffffffffffffffffffffffffffffff1681565b60008085858585336040516024016100fd9594939291906105f4565b6040516020818303038152906040527f87f631ad000000000000000000000000000000000000000000000000000000007bffffffffffffffffffffffffffffffffffffffffffffffffffffffff19166020820180517bffffffffffffffffffffffffffffffffffffffffffffffffffffffff8381831617835250505050905060008060009054906101000a900473ffffffffffffffffffffffffffffffffffffffff1673ffffffffffffffffffffffffffffffffffffffff1663928c169a89846040518363ffffffff1660e01b81526004016101da9291906106c1565b6020604051808303816000875af11580156101f9573d6000803e3d6000fd5b505050506040513d601f19601f8201168201806040525081019061021d919061071d565b90508773ffffffffffffffffffffffffffffffffffffffff1681887f3189a96cdff55ffc3a03b8f0a26d7e0803127ca51449c8f7d5d6f86ad5095ae960405160405180910390a4809250505095945050505050565b3373ffffffffffffffffffffffffffffffffffffffff16847faac5641931a617a5d545b2e3dd6102367b62d8724ea93426310629c1293cfb3c8585856040516102bd9392919061074a565b60405180910390a350505050565b600073ffffffffffffffffffffffffffffffffffffffff82169050919050565b6000819050919050565b600061031061030b610306846102cb565b6102eb565b6102cb565b9050919050565b6000610322826102f5565b9050919050565b600061033482610317565b9050919050565b61034481610329565b82525050565b600060208201905061035f600083018461033b565b92915050565b600080fd5b600080fd5b600061037a826102cb565b9050919050565b61038a8161036f565b811461039557600080fd5b50565b6000813590506103a781610381565b92915050565b6000819050919050565b6103c0816103ad565b81146103cb57600080fd5b50565b6000813590506103dd816103b7565b92915050565b600080fd5b600080fd5b600080fd5b60008083601f840112610408576104076103e3565b5b8235905067ffffffffffffffff811115610425576104246103e8565b5b602083019150836001820283011115610441576104406103ed565b5b9250929050565b60008060008060006080868803121561046457610463610365565b5b600061047288828901610398565b9550506020610483888289016103ce565b9450506040610494888289016103ce565b935050606086013567ffffffffffffffff8111156104b5576104b461036a565b5b6104c1888289016103f2565b92509250509295509295909350565b6000819050919050565b6104e3816104d0565b82525050565b60006020820190506104fe60008301846104da565b92915050565b6000806000806060858703121561051e5761051d610365565b5b600061052c878288016103ce565b945050602061053d878288016103ce565b935050604085013567ffffffffffffffff81111561055e5761055d61036a565b5b61056a878288016103f2565b925092505092959194509250565b610581816103ad565b82525050565b600082825260208201905092915050565b82818337600083830152505050565b6000601f19601f8301169050919050565b60006105c48385610587565b93506105d1838584610598565b6105da836105a7565b840190509392505050565b6105ee8161036f565b82525050565b60006080820190506106096000830188610578565b6106166020830187610578565b81810360408301526106298185876105b8565b905061063860608301846105e5565b9695505050505050565b600081519050919050565b600082825260208201905092915050565b60005b8381101561067c578082015181840152602081019050610661565b60008484015250505050565b600061069382610642565b61069d818561064d565b93506106ad81856020860161065e565b6106b6816105a7565b840191505092915050565b60006040820190506106d660008301856105e5565b81810360208301526106e88184610688565b90509392505050565b6106fa816104d0565b811461070557600080fd5b50565b600081519050610717816106f1565b92915050565b60006020828403121561073357610732610365565b5b600061074184828501610708565b91505092915050565b600060408201905061075f6000830186610578565b81810360208301526107728184866105b8565b905094935050505056fea26469706673582212209ee830e6f72a869b3406ab35492cbd59ca6efdac5f94fc5ba683518b54800dab64736f6c63430008120033",
  "linkReferences": {},
  "deployedLinkReferences": {}
}