{
  "_format": "hh-sol-artifact-1",
  "contractName": "EnclaveAttestationRegistry",
  "sourceName": "contracts/EnclaveAttestationRegistry.sol",
  "abi": [
    {
      "inputs": [
        {
          "internalType": "uint256",
          "name": "_expirySeconds",
          "type": "uint256"
        }
      ],
      "stateMutability": "nonpayable",
      "type": "constructor"
    },
    {
      "anonymous": false,
      "inputs": [
        {
          "indexed": true,
          "internalType": "bytes32",
          "name": "receiptId",
          "type": "bytes32"
        },
        {
          "indexed": false,
          "internalType": "bytes32",
          "name": "attestationHash",
          "type": "bytes32"
        },
        {
          "indexed": true,
          "internalType": "address",
          "name": "signer",
          "type": "address"
        },
        {
          "indexed": false,
          "internalType": "bytes32",
          "name": "mrenclave",
          "type": "bytes32"
        },
        {
          "indexed": false,
          "internalType": "uint256",
          "name": "timestamp",
          "type": "uint256"
        }
      ],
      "name": "AttestationSubmitted",
      "type": "event"
    },
    {
      "anonymous": false,
      "inputs": [
        {
          "indexed": true,
          "internalType": "address",
          "name": "previousOwner",
          "type": "address"
        },
        {
          "indexed": true,
          "internalType": "address",
          "name": "newOwner",
          "type": "address"
        }
      ],
      "name": "OwnershipTransferred",
      "type": "event"
    },
    {
      "inputs": [
        {
          "internalType": "bytes32",
          "name": "",
          "type": "bytes32"
        }
      ],
      "name": "attestations",
      "outputs": [
        {
          "internalType": "bytes32",
          "name": "attestationHash",
          "type": "bytes32"
        },
        {
          "internalType": "address",
          "name": "signer",
          "type": "address"
        },
        {
          "internalType": "bytes32",
          "name": "mrenclave",
          "type": "bytes32"
        },
        {
          "internalType": "uint256",
          "name": "timestamp",
          "type": "uint256"
        }
      ],
      "stateMutability": "view",
      "type": "function"
    },
    {
      "inputs": [],
      "name": "expirySeconds",
      "outputs": [
        {
          "internalType": "uint256",
          "name": "",
          "type": "uint256"
        }
      ],
      "stateMutability": "view",
      "type": "function"
    },
    {
      "inputs": [
        {
          "internalType": "bytes32",
          "name": "receiptId",
          "type": "bytes32"
        }
      ],
      "name": "getAttestation",
      "outputs": [
        {
          "internalType": "bytes32",
          "name": "attHash",
          "type": "bytes32"
        },
        {
          "internalType": "address",
          "name": "signerAddr",
          "type": "address"
        },
        {
          "internalType": "bytes32",
          "name": "mrenclave",
          "type": "bytes32"
        },
        {
          "internalType": "uint256",
          "name": "ts",
          "type": "uint256"
        }
      ],
      "stateMutability": "view",
      "type": "function"
    },
    {
      "inputs": [
        {
          "internalType": "address",
          "name": "signer",
          "type": "address"
        },
        {
          "internalType": "uint256",
          "name": "nonce",
          "type": "uint256"
        }
      ],
      "name": "isNonceUsed",
      "outputs": [
        {
          "internalType": "bool",
          "name": "",
          "type": "bool"
        }
      ],
      "stateMutability": "view",
      "type": "function"
    },
    {
      "inputs": [],
      "name": "owner",
      "outputs": [
        {
          "internalType": "address",
          "name": "",
          "type": "address"
        }
      ],
      "stateMutability": "view",
      "type": "function"
    },
    {
      "inputs": [],
      "name": "renounceOwnership",
      "outputs": [],
      "stateMutability": "nonpayable",
      "type": "function"
    },
    {
      "inputs": [
        {
          "internalType": "uint256",
          "name": "secs",
          "type": "uint256"
        }
      ],
      "name": "setExpirySeconds",
      "outputs": [],
      "stateMutability": "nonpayable",
      "type": "function"
    },
    {
      "inputs": [
        {
          "internalType": "bytes32",
          "name": "receiptId",
          "type": "bytes32"
        },
        {
          "internalType": "bytes32",
          "name": "attestationHash",
          "type": "bytes32"
        },
        {
          "internalType": "uint256",
          "name": "nonce",
          "type": "uint256"
        },
        {
          "internalType": "uint256",
          "name": "timestamp",
          "type": "uint256"
        },
        {
          "internalType": "bytes32",
          "name": "mrenclave",
          "type": "bytes32"
        },
        {
          "internalType": "bytes",
          "name": "signature",
          "type": "bytes"
        }
      ],
      "name": "submitAttestation",
      "outputs": [],
      "stateMutability": "nonpayable",
      "type": "function"
    },
    {
      "inputs": [
        {
          "internalType": "address",
          "name": "newOwner",
          "type": "address"
        }
      ],
      "name": "transferOwnership",
      "outputs": [],
      "stateMutability": "nonpayable",
      "type": "function"
    },
    {
      "inputs": [
        {
          "internalType": "address",
          "name": "",
          "type": "address"
        },
        {
          "internalType": "uint256",
          "name": "",
          "type": "uint256"
        }
      ],
      "name": "usedNonce",
      "outputs": [
        {
          "internalType": "bool",
          "name": "",
          "type": "bool"
        }
      ],
      "stateMutability": "view",
      "type": "function"
    }
  ],
  "bytecode": "0x6080604052620151806003553480156200001857600080fd5b50604051620018563803806200185683398181016040528101906200003e919062000178565b6200005e620000526200006c60201b60201c565b6200007460201b60201c565b8060038190555050620001aa565b600033905090565b60008060009054906101000a900473ffffffffffffffffffffffffffffffffffffffff169050816000806101000a81548173ffffffffffffffffffffffffffffffffffffffff021916908373ffffffffffffffffffffffffffffffffffffffff1602179055508173ffffffffffffffffffffffffffffffffffffffff168173ffffffffffffffffffffffffffffffffffffffff167f8be0079c531659141344cd1fd0a4f28419497f9722a3daafe3b4186f6b6457e060405160405180910390a35050565b600080fd5b6000819050919050565b62000152816200013d565b81146200015e57600080fd5b50565b600081519050620001728162000147565b92915050565b60006020828403121562000191576200019062000138565b5b6000620001a18482850162000161565b91505092915050565b61169c80620001ba6000396000f3fe608060405234801561001057600080fd5b506004361061009e5760003560e01c8063a3112a6411610066578063a3112a6414610138578063cab7e8eb1461016b578063d4506e771461019b578063f2fde38b146101b7578063f90a2f30146101d35761009e565b8063715018a6146100a35780638da5cb5b146100ad578063940992a3146100cb578063963160e5146100fe5780639f1bbda71461011a575b600080fd5b6100ab610203565b005b6100b5610217565b6040516100c29190610ccd565b60405180910390f35b6100e560048036038101906100e09190610d28565b610240565b6040516100f59493929190610d7d565b60405180910390f35b61011860048036038101906101139190610e53565b610290565b005b61012261061b565b60405161012f9190610f02565b60405180910390f35b610152600480360381019061014d9190610d28565b610621565b6040516101629493929190610d7d565b60405180910390f35b61018560048036038101906101809190610f49565b6106e1565b6040516101929190610fa4565b60405180910390f35b6101b560048036038101906101b09190610fbf565b610749565b005b6101d160048036038101906101cc9190610fec565b61075b565b005b6101ed60048036038101906101e89190610f49565b6107de565b6040516101fa9190610fa4565b60405180910390f35b61020b61080d565b610215600061088b565b565b60008060009054906101000a900473ffffffffffffffffffffffffffffffffffffffff16905090565b60016020528060005260406000206000915090508060000154908060010160009054906101000a900473ffffffffffffffffffffffffffffffffffffffff16908060020154908060030154905084565b60006001600089815260200190815260200160002060030154146102e9576040517f08c379a00000000000000000000000000000000000000000000000000000000081526004016102e090611076565b60405180910390fd5b600042905061012c816102fc91906110c5565b85111561033e576040517f08c379a000000000000000000000000000000000000000000000000000000000815260040161033590611145565b60405180910390fd5b6003548561034c91906110c5565b81111561038e576040517f08c379a0000000000000000000000000000000000000000000000000000000008152600401610385906111b1565b60405180910390fd5b600061039e89898989893061094f565b9050600061040185858080601f016020809104026020016040519081016040528093929190818152602001838380828437600081840152601f19601f820116905080830192505050505050506103f38461098e565b6109c490919063ffffffff16565b9050600260008273ffffffffffffffffffffffffffffffffffffffff1673ffffffffffffffffffffffffffffffffffffffff168152602001908152602001600020600089815260200190815260200160002060009054906101000a900460ff16156104a1576040517f08c379a00000000000000000000000000000000000000000000000000000000081526004016104989061121d565b60405180910390fd5b6001600260008373ffffffffffffffffffffffffffffffffffffffff1673ffffffffffffffffffffffffffffffffffffffff16815260200190815260200160002060008a815260200190815260200160002060006101000a81548160ff02191690831515021790555060405180608001604052808a81526020018273ffffffffffffffffffffffffffffffffffffffff16815260200187815260200188815250600160008c81526020019081526020016000206000820151816000015560208201518160010160006101000a81548173ffffffffffffffffffffffffffffffffffffffff021916908373ffffffffffffffffffffffffffffffffffffffff16021790555060408201518160020155606082015181600301559050508073ffffffffffffffffffffffffffffffffffffffff168a7fe5a90ea6dac043c41c7b1ea481ac75e2d777067f2dd841e1806e00ca0aaef49e8b898b6040516106079392919061123d565b60405180910390a350505050505050505050565b60035481565b600080600080600060016000878152602001908152602001600020604051806080016040529081600082015481526020016001820160009054906101000a900473ffffffffffffffffffffffffffffffffffffffff1673ffffffffffffffffffffffffffffffffffffffff1673ffffffffffffffffffffffffffffffffffffffff16815260200160028201548152602001600382015481525050905080600001518160200151826040015183606001519450945094509450509193509193565b6000600260008473ffffffffffffffffffffffffffffffffffffffff1673ffffffffffffffffffffffffffffffffffffffff168152602001908152602001600020600083815260200190815260200160002060009054906101000a900460ff16905092915050565b61075161080d565b8060038190555050565b61076361080d565b600073ffffffffffffffffffffffffffffffffffffffff168173ffffffffffffffffffffffffffffffffffffffff16036107d2576040517f08c379a00000000000000000000000000000000000000000000000000000000081526004016107c9906112e6565b60405180910390fd5b6107db8161088b565b50565b60026020528160005260406000206020528060005260406000206000915091509054906101000a900460ff1681565b6108156109eb565b73ffffffffffffffffffffffffffffffffffffffff16610833610217565b73ffffffffffffffffffffffffffffffffffffffff1614610889576040517f08c379a000000000000000000000000000000000000000000000000000000000815260040161088090611352565b60405180910390fd5b565b60008060009054906101000a900473ffffffffffffffffffffffffffffffffffffffff169050816000806101000a81548173ffffffffffffffffffffffffffffffffffffffff021916908373ffffffffffffffffffffffffffffffffffffffff1602179055508173ffffffffffffffffffffffffffffffffffffffff168173ffffffffffffffffffffffffffffffffffffffff167f8be0079c531659141344cd1fd0a4f28419497f9722a3daafe3b4186f6b6457e060405160405180910390a35050565b600086868686868660405160200161096c969594939291906113fc565b6040516020818303038152906040528051906020012090509695505050505050565b60007f19457468657265756d205369676e6564204d6573736167653a0a33320000000060005281601c52603c6000209050919050565b60008060006109d385856109f3565b915091506109e081610a44565b819250505092915050565b600033905090565b6000806041835103610a345760008060006020860151925060408601519150606086015160001a9050610a2887828585610baa565b94509450505050610a3d565b60006002915091505b9250929050565b60006004811115610a5857610a5761146c565b5b816004811115610a6b57610a6a61146c565b5b0315610ba75760016004811115610a8557610a8461146c565b5b816004811115610a9857610a9761146c565b5b03610ad8576040517f08c379a0000000000000000000000000000000000000000000000000000000008152600401610acf906114e7565b60405180910390fd5b60026004811115610aec57610aeb61146c565b5b816004811115610aff57610afe61146c565b5b03610b3f576040517f08c379a0000000000000000000000000000000000000000000000000000000008152600401610b3690611553565b60405180910390fd5b60036004811115610b5357610b5261146c565b5b816004811115610b6657610b6561146c565b5b03610ba6576040517f08c379a0000000000000000000000000000000000000000000000000000000008152600401610b9d906115e5565b60405180910390fd5b5b50565b6000807f7fffffffffffffffffffffffffffffff5d576e7357a4501ddfe92f46681b20a08360001c1115610be5576000600391509150610c83565b600060018787878760405160008152602001604052604051610c0a9493929190611621565b6020604051602081039080840390855afa158015610c2c573d6000803e3d6000fd5b505050602060405103519050600073ffffffffffffffffffffffffffffffffffffffff168173ffffffffffffffffffffffffffffffffffffffff1603610c7a57600060019250925050610c83565b80600092509250505b94509492505050565b600073ffffffffffffffffffffffffffffffffffffffff82169050919050565b6000610cb782610c8c565b9050919050565b610cc781610cac565b82525050565b6000602082019050610ce26000830184610cbe565b92915050565b600080fd5b600080fd5b6000819050919050565b610d0581610cf2565b8114610d1057600080fd5b50565b600081359050610d2281610cfc565b92915050565b600060208284031215610d3e57610d3d610ce8565b5b6000610d4c84828501610d13565b91505092915050565b610d5e81610cf2565b82525050565b6000819050919050565b610d7781610d64565b82525050565b6000608082019050610d926000830187610d55565b610d9f6020830186610cbe565b610dac6040830185610d55565b610db96060830184610d6e565b95945050505050565b610dcb81610d64565b8114610dd657600080fd5b50565b600081359050610de881610dc2565b92915050565b600080fd5b600080fd5b600080fd5b60008083601f840112610e1357610e12610dee565b5b8235905067ffffffffffffffff811115610e3057610e2f610df3565b5b602083019150836001820283011115610e4c57610e4b610df8565b5b9250929050565b600080600080600080600060c0888a031215610e7257610e71610ce8565b5b6000610e808a828b01610d13565b9750506020610e918a828b01610d13565b9650506040610ea28a828b01610dd9565b9550506060610eb38a828b01610dd9565b9450506080610ec48a828b01610d13565b93505060a088013567ffffffffffffffff811115610ee557610ee4610ced565b5b610ef18a828b01610dfd565b925092505092959891949750929550565b6000602082019050610f176000830184610d6e565b92915050565b610f2681610cac565b8114610f3157600080fd5b50565b600081359050610f4381610f1d565b92915050565b60008060408385031215610f6057610f5f610ce8565b5b6000610f6e85828601610f34565b9250506020610f7f85828601610dd9565b9150509250929050565b60008115159050919050565b610f9e81610f89565b82525050565b6000602082019050610fb96000830184610f95565b92915050565b600060208284031215610fd557610fd4610ce8565b5b6000610fe384828501610dd9565b91505092915050565b60006020828403121561100257611001610ce8565b5b600061101084828501610f34565b91505092915050565b600082825260208201905092915050565b7f616c726561647920617474657374656400000000000000000000000000000000600082015250565b6000611060601083611019565b915061106b8261102a565b602082019050919050565b6000602082019050818103600083015261108f81611053565b9050919050565b7f4e487b7100000000000000000000000000000000000000000000000000000000600052601160045260246000fd5b60006110d082610d64565b91506110db83610d64565b92508282019050808211156110f3576110f2611096565b5b92915050565b7f74696d657374616d7020696e2066757475726500000000000000000000000000600082015250565b600061112f601383611019565b915061113a826110f9565b602082019050919050565b6000602082019050818103600083015261115e81611122565b9050919050565b7f6174746573746174696f6e206578706972656400000000000000000000000000600082015250565b600061119b601383611019565b91506111a682611165565b602082019050919050565b600060208201905081810360008301526111ca8161118e565b9050919050565b7f6e6f6e6365207573656400000000000000000000000000000000000000000000600082015250565b6000611207600a83611019565b9150611212826111d1565b602082019050919050565b60006020820190508181036000830152611236816111fa565b9050919050565b60006060820190506112526000830186610d55565b61125f6020830185610d55565b61126c6040830184610d6e565b949350505050565b7f4f776e61626c653a206e6577206f776e657220697320746865207a65726f206160008201527f6464726573730000000000000000000000000000000000000000000000000000602082015250565b60006112d0602683611019565b91506112db82611274565b604082019050919050565b600060208201905081810360008301526112ff816112c3565b9050919050565b7f4f776e61626c653a2063616c6c6572206973206e6f7420746865206f776e6572600082015250565b600061133c602083611019565b915061134782611306565b602082019050919050565b6000602082019050818103600083015261136b8161132f565b9050919050565b6000819050919050565b61138d61138882610cf2565b611372565b82525050565b6000819050919050565b6113ae6113a982610d64565b611393565b82525050565b60008160601b9050919050565b60006113cc826113b4565b9050919050565b60006113de826113c1565b9050919050565b6113f66113f182610cac565b6113d3565b82525050565b6000611408828961137c565b602082019150611418828861137c565b602082019150611428828761139d565b602082019150611438828661139d565b602082019150611448828561137c565b60208201915061145882846113e5565b601482019150819050979650505050505050565b7f4e487b7100000000000000000000000000000000000000000000000000000000600052602160045260246000fd5b7f45434453413a20696e76616c6964207369676e61747572650000000000000000600082015250565b60006114d1601883611019565b91506114dc8261149b565b602082019050919050565b60006020820190508181036000830152611500816114c4565b9050919050565b7f45434453413a20696e76616c6964207369676e6174757265206c656e67746800600082015250565b600061153d601f83611019565b915061154882611507565b602082019050919050565b6000602082019050818103600083015261156c81611530565b9050919050565b7f45434453413a20696e76616c6964207369676e6174757265202773272076616c60008201527f7565000000000000000000000000000000000000000000000000000000000000602082015250565b60006115cf602283611019565b91506115da82611573565b604082019050919050565b600060208201905081810360008301526115fe816115c2565b9050919050565b600060ff82169050919050565b61161b81611605565b82525050565b60006080820190506116366000830187610d55565b6116436020830186611612565b6116506040830185610d55565b61165d6060830184610d55565b9594505050505056fea2646970667358221220206947567be57547eec7c93f1a50a5486897b38818ef06f9a71c5e9081e22d6f64736f6c63430008120033",
  "linkReferences": {},
  "deployedLinkReferences": {}
}