{
  "_format": "hh-sol-artifact-1",
  "contractName": "EncryptedReceiptRegistry",
  "sourceName": "contracts/EncryptedReceiptRegistry.sol",
  "abi": [
    {
      "anonymous": false,
      "inputs": [
        {
          "indexed": true,
          "internalType": "bytes32",
          "name": "receiptId",
          "type": "bytes32"
        },
        {
          "indexed": false,
          "internalType": "bytes32",
          "name": "attestationHash",
          "type": "bytes32"
        },
        {
          "indexed": true,
          "internalType": "address",
          "name": "attestor",
          "type": "address"
        },
        {
          "indexed": false,
          "internalType": "uint256",
          "name": "ts",
          "type": "uint256"
        }
      ],
      "name": "ReceiptAttested",
      "type": "event"
    },
    {
      "anonymous": false,
      "inputs": [
        {
          "indexed": true,
          "internalType": "bytes32",
          "name": "receiptId",
          "type": "bytes32"
        },
        {
          "indexed": false,
          "internalType": "string",
          "name": "ipfsCID",
          "type": "string"
        },
        {
          "indexed": false,
          "internalType": "bytes32",
          "name": "merkleRoot",
          "type": "bytes32"
        },
        {
          "indexed": true,
          "internalType": "address",
          "name": "uploader",
          "type": "address"
        },
        {
          "indexed": false,
          "internalType": "uint256",
          "name": "ts",
          "type": "uint256"
        }
      ],
      "name": "ReceiptRegistered",
      "type": "event"
    },
    {
      "inputs": [
        {
          "internalType": "string",
          "name": "ipfsCID",
          "type": "string"
        },
        {
          "internalType": "address",
          "name": "uploader",
          "type": "address"
        }
      ],
      "name": "computeReceiptId",
      "outputs": [
        {
          "internalType": "bytes32",
          "name": "",
          "type": "bytes32"
        }
      ],
      "stateMutability": "pure",
      "type": "function"
    },
    {
      "inputs": [
        {
          "internalType": "bytes32",
          "name": "",
          "type": "bytes32"
        }
      ],
      "name": "receipts",
      "outputs": [
        {
          "internalType": "bytes32",
          "name": "id",
          "type": "bytes32"
        },
        {
          "internalType": "string",
          "name": "ipfsCID",
          "type": "string"
        },
        {
          "internalType": "bytes32",
          "name": "merkleRoot",
          "type": "bytes32"
        },
        {
          "internalType": "bytes32",
          "name": "attestationHash",
          "type": "bytes32"
        },
        {
          "internalType": "uint256",
          "name": "registeredAt",
          "type": "uint256"
        },
        {
          "internalType": "uint256",
          "name": "attestedAt",
          "type": "uint256"
        },
        {
          "internalType": "address",
          "name": "uploader",
          "type": "address"
        }
      ],
      "stateMutability": "view",
      "type": "function"
    },
    {
      "inputs": [
        {
          "internalType": "bytes32",
          "name": "receiptId",
          "type": "bytes32"
        },
        {
          "internalType": "string",
          "name": "ipfsCID",
          "type": "string"
        },
        {
          "internalType": "bytes32",
          "name": "merkleRoot",
          "type": "bytes32"
        }
      ],
      "name": "registerEncryptedReceipt",
      "outputs": [],
      "stateMutability": "nonpayable",
      "type": "function"
    },
    {
      "inputs": [
        {
          "internalType": "bytes32",
          "name": "receiptId",
          "type": "bytes32"
        },
        {
          "internalType": "bytes32",
          "name": "attestationHash",
          "type": "bytes32"
        }
      ],
      "name": "updateAttestation",
      "outputs": [],
      "stateMutability": "nonpayable",
      "type": "function"
    }
  ],
  "bytecode": "0x608060405234801561001057600080fd5b50611676806100206000396000f3fe608060405234801561001057600080fd5b506004361061004c5760003560e01c806301ca76df146100515780635221a21e1461006d578063c03d83f01461009d578063ef6cf04d146100b9575b600080fd5b61006b600480360381019061006691906108f6565b6100ef565b005b610087600480360381019061008291906109c8565b61032b565b6040516100949190610a37565b60405180910390f35b6100b760048036038101906100b29190610a52565b610369565b005b6100d360048036038101906100ce9190610a92565b61048a565b6040516100e69796959493929190610b77565b60405180910390f35b6000801b6000808681526020019081526020016000206000015414610149576040517f08c379a000000000000000000000000000000000000000000000000000000000815260040161014090610c39565b60405180910390fd5b600061015684843361032b565b905084811461019a576040517f08c379a000000000000000000000000000000000000000000000000000000000815260040161019190610ca5565b60405180910390fd5b6040518060e0016040528086815260200185858080601f016020809104026020016040519081016040528093929190818152602001838380828437600081840152601f19601f8201169050808301925050505050505081526020018381526020016000801b8152602001428152602001600081526020013373ffffffffffffffffffffffffffffffffffffffff1681525060008087815260200190815260200160002060008201518160000155602082015181600101908161025c9190610f00565b5060408201518160020155606082015181600301556080820151816004015560a0820151816005015560c08201518160060160006101000a81548173ffffffffffffffffffffffffffffffffffffffff021916908373ffffffffffffffffffffffffffffffffffffffff1602179055509050503373ffffffffffffffffffffffffffffffffffffffff16857f801fbfe7a2075d128bf41f39b1cdb92f6e5d387d5d502a70a4b8852efb22c45c8686864260405161031c949392919061100e565b60405180910390a35050505050565b6000838361033884610574565b60405160200161034a939291906110fb565b6040516020818303038152906040528051906020012090509392505050565b6000801b60008084815260200190815260200160002060000154036103c3576040517f08c379a00000000000000000000000000000000000000000000000000000000081526004016103ba90611178565b60405180910390fd5b600080600084815260200190815260200160002090506000801b816003015414610422576040517f08c379a0000000000000000000000000000000000000000000000000000000008152600401610419906111e4565b60405180910390fd5b8181600301819055504281600501819055503373ffffffffffffffffffffffffffffffffffffffff16837f8065d50c7119db75be7a97902337147f1e42c1af2425cb94398bb315e6495701844260405161047d929190611204565b60405180910390a3505050565b60006020528060005260406000206000915090508060000154908060010180546104b390610d23565b80601f01602080910402602001604051908101604052809291908181526020018280546104df90610d23565b801561052c5780601f106105015761010080835404028352916020019161052c565b820191906000526020600020905b81548152906001019060200180831161050f57829003601f168201915b5050505050908060020154908060030154908060040154908060050154908060060160009054906101000a900473ffffffffffffffffffffffffffffffffffffffff16905087565b60606000602a67ffffffffffffffff81111561059357610592610cc5565b5b6040519080825280601f01601f1916602001820160405280156105c55781602001600182028036833780820191505090505b5090507f3000000000000000000000000000000000000000000000000000000000000000816000815181106105fd576105fc61122d565b5b60200101907effffffffffffffffffffffffffffffffffffffffffffffffffffffffffffff1916908160001a9053507f7800000000000000000000000000000000000000000000000000000000000000816001815181106106615761066061122d565b5b60200101907effffffffffffffffffffffffffffffffffffffffffffffffffffffffffffff1916908160001a90535060005b60148110156108015760008160136106ab919061128b565b60086106b791906112bf565b60026106c39190611434565b8573ffffffffffffffffffffffffffffffffffffffff166106e491906114ae565b60f81b9050600060108260f81c6106fb91906114ec565b60f81b905060008160f81c6010610712919061151d565b8360f81c610720919061155a565b60f81b905061072e8261080b565b85600286600261073e91906112bf565b610748919061158f565b815181106107595761075861122d565b5b60200101907effffffffffffffffffffffffffffffffffffffffffffffffffffffffffffff1916908160001a9053506107918161080b565b8560038660026107a191906112bf565b6107ab919061158f565b815181106107bc576107bb61122d565b5b60200101907effffffffffffffffffffffffffffffffffffffffffffffffffffffffffffff1916908160001a90535050505080806107f9906115c3565b915050610693565b5080915050919050565b6000600a8260f81c60ff1610156108365760308260f81c61082c919061160b565b60f81b905061084c565b60578260f81c610846919061160b565b60f81b90505b919050565b600080fd5b600080fd5b6000819050919050565b61086e8161085b565b811461087957600080fd5b50565b60008135905061088b81610865565b92915050565b600080fd5b600080fd5b600080fd5b60008083601f8401126108b6576108b5610891565b5b8235905067ffffffffffffffff8111156108d3576108d2610896565b5b6020830191508360018202830111156108ef576108ee61089b565b5b9250929050565b600080600080606085870312156109105761090f610851565b5b600061091e8782880161087c565b945050602085013567ffffffffffffffff81111561093f5761093e610856565b5b61094b878288016108a0565b9350935050604061095e8782880161087c565b91505092959194509250565b600073ffffffffffffffffffffffffffffffffffffffff82169050919050565b60006109958261096a565b9050919050565b6109a58161098a565b81146109b057600080fd5b50565b6000813590506109c28161099c565b92915050565b6000806000604084860312156109e1576109e0610851565b5b600084013567ffffffffffffffff8111156109ff576109fe610856565b5b610a0b868287016108a0565b93509350506020610a1e868287016109b3565b9150509250925092565b610a318161085b565b82525050565b6000602082019050610a4c6000830184610a28565b92915050565b60008060408385031215610a6957610a68610851565b5b6000610a778582860161087c565b9250506020610a888582860161087c565b9150509250929050565b600060208284031215610aa857610aa7610851565b5b6000610ab68482850161087c565b91505092915050565b600081519050919050565b600082825260208201905092915050565b60005b83811015610af9578082015181840152602081019050610ade565b60008484015250505050565b6000601f19601f8301169050919050565b6000610b2182610abf565b610b2b8185610aca565b9350610b3b818560208601610adb565b610b4481610b05565b840191505092915050565b6000819050919050565b610b6281610b4f565b82525050565b610b718161098a565b82525050565b600060e082019050610b8c600083018a610a28565b8181036020830152610b9e8189610b16565b9050610bad6040830188610a28565b610bba6060830187610a28565b610bc76080830186610b59565b610bd460a0830185610b59565b610be160c0830184610b68565b98975050505050505050565b7f616c726561647920726567697374657265640000000000000000000000000000600082015250565b6000610c23601283610aca565b9150610c2e82610bed565b602082019050919050565b60006020820190508181036000830152610c5281610c16565b9050919050565b7f726563656970744964206d69736d617463680000000000000000000000000000600082015250565b6000610c8f601283610aca565b9150610c9a82610c59565b602082019050919050565b60006020820190508181036000830152610cbe81610c82565b9050919050565b7f4e487b7100000000000000000000000000000000000000000000000000000000600052604160045260246000fd5b7f4e487b7100000000000000000000000000000000000000000000000000000000600052602260045260246000fd5b60006002820490506001821680610d3b57607f821691505b602082108103610d4e57610d4d610cf4565b5b50919050565b60008190508160005260206000209050919050565b60006020601f8301049050919050565b600082821b905092915050565b600060088302610db67fffffffffffffffffffffffffffffffffffffffffffffffffffffffffffffffff82610d79565b610dc08683610d79565b95508019841693508086168417925050509392505050565b6000819050919050565b6000610dfd610df8610df384610b4f565b610dd8565b610b4f565b9050919050565b6000819050919050565b610e1783610de2565b610e2b610e2382610e04565b848454610d86565b825550505050565b600090565b610e40610e33565b610e4b818484610e0e565b505050565b5b81811015610e6f57610e64600082610e38565b600181019050610e51565b5050565b601f821115610eb457610e8581610d54565b610e8e84610d69565b81016020851015610e9d578190505b610eb1610ea985610d69565b830182610e50565b50505b505050565b600082821c905092915050565b6000610ed760001984600802610eb9565b1980831691505092915050565b6000610ef08383610ec6565b9150826002028217905092915050565b610f0982610abf565b67ffffffffffffffff811115610f2257610f21610cc5565b5b610f2c8254610d23565b610f37828285610e73565b600060209050601f831160018114610f6a5760008415610f58578287015190505b610f628582610ee4565b865550610fca565b601f198416610f7886610d54565b60005b82811015610fa057848901518255600182019150602085019450602081019050610f7b565b86831015610fbd5784890151610fb9601f891682610ec6565b8355505b6001600288020188555050505b505050505050565b82818337600083830152505050565b6000610fed8385610aca565b9350610ffa838584610fd2565b61100383610b05565b840190509392505050565b60006060820190508181036000830152611029818688610fe1565b90506110386020830185610a28565b6110456040830184610b59565b95945050505050565b600081905092915050565b6000611065838561104e565b9350611072838584610fd2565b82840190509392505050565b7f7c00000000000000000000000000000000000000000000000000000000000000600082015250565b60006110b460018361104e565b91506110bf8261107e565b600182019050919050565b60006110d582610abf565b6110df818561104e565b93506110ef818560208601610adb565b80840191505092915050565b6000611108828587611059565b9150611113826110a7565b915061111f82846110ca565b9150819050949350505050565b7f6e6f742072656769737465726564000000000000000000000000000000000000600082015250565b6000611162600e83610aca565b915061116d8261112c565b602082019050919050565b6000602082019050818103600083015261119181611155565b9050919050565b7f616c726561647920617474657374656400000000000000000000000000000000600082015250565b60006111ce601083610aca565b91506111d982611198565b602082019050919050565b600060208201905081810360008301526111fd816111c1565b9050919050565b60006040820190506112196000830185610a28565b6112266020830184610b59565b9392505050565b7f4e487b7100000000000000000000000000000000000000000000000000000000600052603260045260246000fd5b7f4e487b7100000000000000000000000000000000000000000000000000000000600052601160045260246000fd5b600061129682610b4f565b91506112a183610b4f565b92508282039050818111156112b9576112b861125c565b5b92915050565b60006112ca82610b4f565b91506112d583610b4f565b92508282026112e381610b4f565b915082820484148315176112fa576112f961125c565b5b5092915050565b60008160011c9050919050565b6000808291508390505b6001851115611358578086048111156113345761133361125c565b5b60018516156113435780820291505b808102905061135185611301565b9450611318565b94509492505050565b600082611371576001905061142d565b8161137f576000905061142d565b8160018114611395576002811461139f576113ce565b600191505061142d565b60ff8411156113b1576113b061125c565b5b8360020a9150848211156113c8576113c761125c565b5b5061142d565b5060208310610133831016604e8410600b84101617156114035782820a9050838111156113fe576113fd61125c565b5b61142d565b611410848484600161130e565b925090508184048111156114275761142661125c565b5b81810290505b9392505050565b600061143f82610b4f565b915061144a83610b4f565b92506114777fffffffffffffffffffffffffffffffffffffffffffffffffffffffffffffffff8484611361565b905092915050565b7f4e487b7100000000000000000000000000000000000000000000000000000000600052601260045260246000fd5b60006114b982610b4f565b91506114c483610b4f565b9250826114d4576114d361147f565b5b828204905092915050565b600060ff82169050919050565b60006114f7826114df565b9150611502836114df565b9250826115125761151161147f565b5b828204905092915050565b6000611528826114df565b9150611533836114df565b9250828202611541816114df565b91508082146115535761155261125c565b5b5092915050565b6000611565826114df565b9150611570836114df565b9250828203905060ff8111156115895761158861125c565b5b92915050565b600061159a82610b4f565b91506115a583610b4f565b92508282019050808211156115bd576115bc61125c565b5b92915050565b60006115ce82610b4f565b91507fffffffffffffffffffffffffffffffffffffffffffffffffffffffffffffffff8203611600576115ff61125c565b5b600182019050919050565b6000611616826114df565b9150611621836114df565b9250828201905060ff81111561163a5761163961125c565b5b9291505056fea26469706673582212209d9377a4a7be5d4fab2c487613a069b6800f6bf21df5abf56ac4d84aabbb540364736f6c63430008120033",
  "linkReferences": {},
  "deployedLinkReferences": {}
}